Archive member included to satisfy reference by file (symbol)

d:/mcha3500_windows_toolchain/toolchain/gcc-arm-none-eabi/bin/../lib/gcc/arm-none-eabi/9.2.1/thumb/v7e-m+fp/hard\libgcc.a(_arm_muldf3.o)
                              build/pendulum.o (__aeabi_dmul)
d:/mcha3500_windows_toolchain/toolchain/gcc-arm-none-eabi/bin/../lib/gcc/arm-none-eabi/9.2.1/thumb/v7e-m+fp/hard\libgcc.a(_arm_addsubdf3.o)
                              build/data_logging.o (__aeabi_i2d)
d:/mcha3500_windows_toolchain/toolchain/gcc-arm-none-eabi/bin/../lib/gcc/arm-none-eabi/9.2.1/thumb/v7e-m+fp/hard\libgcc.a(_arm_truncdfsf2.o)
                              build/pendulum.o (__aeabi_d2f)
d:/mcha3500_windows_toolchain/toolchain/gcc-arm-none-eabi/bin/../lib/gcc/arm-none-eabi/9.2.1/thumb/v7e-m+fp/hard\libgcc.a(_aeabi_ldivmod.o)
                              build/uart.o (__aeabi_ldivmod)
d:/mcha3500_windows_toolchain/toolchain/gcc-arm-none-eabi/bin/../lib/gcc/arm-none-eabi/9.2.1/thumb/v7e-m+fp/hard\libgcc.a(_aeabi_uldivmod.o)
                              build/uart.o (__aeabi_uldivmod)
d:/mcha3500_windows_toolchain/toolchain/gcc-arm-none-eabi/bin/../lib/gcc/arm-none-eabi/9.2.1/thumb/v7e-m+fp/hard\libgcc.a(_udivmoddi4.o)
                              d:/mcha3500_windows_toolchain/toolchain/gcc-arm-none-eabi/bin/../lib/gcc/arm-none-eabi/9.2.1/thumb/v7e-m+fp/hard\libgcc.a(_aeabi_ldivmod.o) (__udivmoddi4)
d:/mcha3500_windows_toolchain/toolchain/gcc-arm-none-eabi/bin/../lib/gcc/arm-none-eabi/9.2.1/thumb/v7e-m+fp/hard\libgcc.a(_dvmd_tls.o)
                              d:/mcha3500_windows_toolchain/toolchain/gcc-arm-none-eabi/bin/../lib/gcc/arm-none-eabi/9.2.1/thumb/v7e-m+fp/hard\libgcc.a(_aeabi_ldivmod.o) (__aeabi_ldiv0)
d:/mcha3500_windows_toolchain/toolchain/gcc-arm-none-eabi/bin/../lib/gcc/arm-none-eabi/9.2.1/../../../../arm-none-eabi/lib/thumb/v7e-m+fp/hard\libc_nano.a(lib_a-ctype_.o)
                              build/cmd_parser.o (_ctype_)
d:/mcha3500_windows_toolchain/toolchain/gcc-arm-none-eabi/bin/../lib/gcc/arm-none-eabi/9.2.1/../../../../arm-none-eabi/lib/thumb/v7e-m+fp/hard\libc_nano.a(lib_a-exit.o)
                              d:/mcha3500_windows_toolchain/toolchain/gcc-arm-none-eabi/bin/../lib/gcc/arm-none-eabi/9.2.1/../../../../arm-none-eabi/lib/thumb/v7e-m+fp/hard/crt0.o (exit)
d:/mcha3500_windows_toolchain/toolchain/gcc-arm-none-eabi/bin/../lib/gcc/arm-none-eabi/9.2.1/../../../../arm-none-eabi/lib/thumb/v7e-m+fp/hard\libc_nano.a(lib_a-getchar.o)
                              build/cmd_line_buffer.o (getchar)
d:/mcha3500_windows_toolchain/toolchain/gcc-arm-none-eabi/bin/../lib/gcc/arm-none-eabi/9.2.1/../../../../arm-none-eabi/lib/thumb/v7e-m+fp/hard\libc_nano.a(lib_a-impure.o)
                              d:/mcha3500_windows_toolchain/toolchain/gcc-arm-none-eabi/bin/../lib/gcc/arm-none-eabi/9.2.1/../../../../arm-none-eabi/lib/thumb/v7e-m+fp/hard\libc_nano.a(lib_a-exit.o) (_global_impure_ptr)
d:/mcha3500_windows_toolchain/toolchain/gcc-arm-none-eabi/bin/../lib/gcc/arm-none-eabi/9.2.1/../../../../arm-none-eabi/lib/thumb/v7e-m+fp/hard\libc_nano.a(lib_a-init.o)
                              d:/mcha3500_windows_toolchain/toolchain/gcc-arm-none-eabi/bin/../lib/gcc/arm-none-eabi/9.2.1/../../../../arm-none-eabi/lib/thumb/v7e-m+fp/hard/crt0.o (__libc_init_array)
d:/mcha3500_windows_toolchain/toolchain/gcc-arm-none-eabi/bin/../lib/gcc/arm-none-eabi/9.2.1/../../../../arm-none-eabi/lib/thumb/v7e-m+fp/hard\libc_nano.a(lib_a-malloc.o)
                              build/FreeRTOS/heap_useNewlib.o (malloc)
d:/mcha3500_windows_toolchain/toolchain/gcc-arm-none-eabi/bin/../lib/gcc/arm-none-eabi/9.2.1/../../../../arm-none-eabi/lib/thumb/v7e-m+fp/hard\libc_nano.a(lib_a-memcpy-stub.o)
                              build/FreeRTOS/queue.o (memcpy)
d:/mcha3500_windows_toolchain/toolchain/gcc-arm-none-eabi/bin/../lib/gcc/arm-none-eabi/9.2.1/../../../../arm-none-eabi/lib/thumb/v7e-m+fp/hard\libc_nano.a(lib_a-memset.o)
                              d:/mcha3500_windows_toolchain/toolchain/gcc-arm-none-eabi/bin/../lib/gcc/arm-none-eabi/9.2.1/../../../../arm-none-eabi/lib/thumb/v7e-m+fp/hard/crt0.o (memset)
d:/mcha3500_windows_toolchain/toolchain/gcc-arm-none-eabi/bin/../lib/gcc/arm-none-eabi/9.2.1/../../../../arm-none-eabi/lib/thumb/v7e-m+fp/hard\libc_nano.a(lib_a-mstats.o)
                              build/FreeRTOS/heap_useNewlib.o (mallinfo)
d:/mcha3500_windows_toolchain/toolchain/gcc-arm-none-eabi/bin/../lib/gcc/arm-none-eabi/9.2.1/../../../../arm-none-eabi/lib/thumb/v7e-m+fp/hard\libc_nano.a(lib_a-nano-freer.o)
                              d:/mcha3500_windows_toolchain/toolchain/gcc-arm-none-eabi/bin/../lib/gcc/arm-none-eabi/9.2.1/../../../../arm-none-eabi/lib/thumb/v7e-m+fp/hard\libc_nano.a(lib_a-malloc.o) (_free_r)
d:/mcha3500_windows_toolchain/toolchain/gcc-arm-none-eabi/bin/../lib/gcc/arm-none-eabi/9.2.1/../../../../arm-none-eabi/lib/thumb/v7e-m+fp/hard\libc_nano.a(lib_a-nano-mallinfor.o)
                              d:/mcha3500_windows_toolchain/toolchain/gcc-arm-none-eabi/bin/../lib/gcc/arm-none-eabi/9.2.1/../../../../arm-none-eabi/lib/thumb/v7e-m+fp/hard\libc_nano.a(lib_a-mstats.o) (_mallinfo_r)
d:/mcha3500_windows_toolchain/toolchain/gcc-arm-none-eabi/bin/../lib/gcc/arm-none-eabi/9.2.1/../../../../arm-none-eabi/lib/thumb/v7e-m+fp/hard\libc_nano.a(lib_a-nano-mallocr.o)
                              d:/mcha3500_windows_toolchain/toolchain/gcc-arm-none-eabi/bin/../lib/gcc/arm-none-eabi/9.2.1/../../../../arm-none-eabi/lib/thumb/v7e-m+fp/hard\libc_nano.a(lib_a-malloc.o) (_malloc_r)
d:/mcha3500_windows_toolchain/toolchain/gcc-arm-none-eabi/bin/../lib/gcc/arm-none-eabi/9.2.1/../../../../arm-none-eabi/lib/thumb/v7e-m+fp/hard\libc_nano.a(lib_a-nano-malloptr.o)
                              d:/mcha3500_windows_toolchain/toolchain/gcc-arm-none-eabi/bin/../lib/gcc/arm-none-eabi/9.2.1/../../../../arm-none-eabi/lib/thumb/v7e-m+fp/hard\libc_nano.a(lib_a-mstats.o) (_mallopt_r)
d:/mcha3500_windows_toolchain/toolchain/gcc-arm-none-eabi/bin/../lib/gcc/arm-none-eabi/9.2.1/../../../../arm-none-eabi/lib/thumb/v7e-m+fp/hard\libc_nano.a(lib_a-nano-mallstatsr.o)
                              d:/mcha3500_windows_toolchain/toolchain/gcc-arm-none-eabi/bin/../lib/gcc/arm-none-eabi/9.2.1/../../../../arm-none-eabi/lib/thumb/v7e-m+fp/hard\libc_nano.a(lib_a-mstats.o) (_malloc_stats_r)
d:/mcha3500_windows_toolchain/toolchain/gcc-arm-none-eabi/bin/../lib/gcc/arm-none-eabi/9.2.1/../../../../arm-none-eabi/lib/thumb/v7e-m+fp/hard\libc_nano.a(lib_a-nano-vfprintf_float.o)
                              (_printf_float)
d:/mcha3500_windows_toolchain/toolchain/gcc-arm-none-eabi/bin/../lib/gcc/arm-none-eabi/9.2.1/../../../../arm-none-eabi/lib/thumb/v7e-m+fp/hard\libc_nano.a(lib_a-nano-vfprintf_i.o)
                              d:/mcha3500_windows_toolchain/toolchain/gcc-arm-none-eabi/bin/../lib/gcc/arm-none-eabi/9.2.1/../../../../arm-none-eabi/lib/thumb/v7e-m+fp/hard\libc_nano.a(lib_a-nano-vfprintf_float.o) (_printf_common)
d:/mcha3500_windows_toolchain/toolchain/gcc-arm-none-eabi/bin/../lib/gcc/arm-none-eabi/9.2.1/../../../../arm-none-eabi/lib/thumb/v7e-m+fp/hard\libc_nano.a(lib_a-nano-vfscanf_float.o)
                              (_scanf_float)
d:/mcha3500_windows_toolchain/toolchain/gcc-arm-none-eabi/bin/../lib/gcc/arm-none-eabi/9.2.1/../../../../arm-none-eabi/lib/thumb/v7e-m+fp/hard\libc_nano.a(lib_a-printf.o)
                              build/cmd_line_buffer.o (printf)
d:/mcha3500_windows_toolchain/toolchain/gcc-arm-none-eabi/bin/../lib/gcc/arm-none-eabi/9.2.1/../../../../arm-none-eabi/lib/thumb/v7e-m+fp/hard\libc_nano.a(lib_a-reent.o)
                              build/FreeRTOS/tasks.o (_reclaim_reent)
d:/mcha3500_windows_toolchain/toolchain/gcc-arm-none-eabi/bin/../lib/gcc/arm-none-eabi/9.2.1/../../../../arm-none-eabi/lib/thumb/v7e-m+fp/hard\libc_nano.a(lib_a-sbrkr.o)
                              d:/mcha3500_windows_toolchain/toolchain/gcc-arm-none-eabi/bin/../lib/gcc/arm-none-eabi/9.2.1/../../../../arm-none-eabi/lib/thumb/v7e-m+fp/hard\libc_nano.a(lib_a-nano-mallinfor.o) (_sbrk_r)
d:/mcha3500_windows_toolchain/toolchain/gcc-arm-none-eabi/bin/../lib/gcc/arm-none-eabi/9.2.1/../../../../arm-none-eabi/lib/thumb/v7e-m+fp/hard\libc_nano.a(lib_a-setvbuf.o)
                              build/uart.o (setvbuf)
d:/mcha3500_windows_toolchain/toolchain/gcc-arm-none-eabi/bin/../lib/gcc/arm-none-eabi/9.2.1/../../../../arm-none-eabi/lib/thumb/v7e-m+fp/hard\libc_nano.a(lib_a-sf_nan.o)
                              d:/mcha3500_windows_toolchain/toolchain/gcc-arm-none-eabi/bin/../lib/gcc/arm-none-eabi/9.2.1/../../../../arm-none-eabi/lib/thumb/v7e-m+fp/hard\libc_nano.a(lib_a-nano-vfscanf_float.o) (nanf)
d:/mcha3500_windows_toolchain/toolchain/gcc-arm-none-eabi/bin/../lib/gcc/arm-none-eabi/9.2.1/../../../../arm-none-eabi/lib/thumb/v7e-m+fp/hard\libc_nano.a(lib_a-sprintf.o)
                              d:/mcha3500_windows_toolchain/toolchain/gcc-arm-none-eabi/bin/../lib/gcc/arm-none-eabi/9.2.1/../../../../arm-none-eabi/lib/thumb/v7e-m+fp/hard\libc_nano.a(lib_a-nano-vfscanf_float.o) (sprintf)
d:/mcha3500_windows_toolchain/toolchain/gcc-arm-none-eabi/bin/../lib/gcc/arm-none-eabi/9.2.1/../../../../arm-none-eabi/lib/thumb/v7e-m+fp/hard\libc_nano.a(lib_a-strcmp.o)
                              build/cmd_parser.o (strcmp)
d:/mcha3500_windows_toolchain/toolchain/gcc-arm-none-eabi/bin/../lib/gcc/arm-none-eabi/9.2.1/../../../../arm-none-eabi/lib/thumb/v7e-m+fp/hard\libc_nano.a(lib_a-strlen.o)
                              d:/mcha3500_windows_toolchain/toolchain/gcc-arm-none-eabi/bin/../lib/gcc/arm-none-eabi/9.2.1/../../../../arm-none-eabi/lib/thumb/v7e-m+fp/hard\libc_nano.a(lib_a-nano-vfprintf_float.o) (strlen)
d:/mcha3500_windows_toolchain/toolchain/gcc-arm-none-eabi/bin/../lib/gcc/arm-none-eabi/9.2.1/../../../../arm-none-eabi/lib/thumb/v7e-m+fp/hard\libc_nano.a(lib_a-strtod.o)
                              d:/mcha3500_windows_toolchain/toolchain/gcc-arm-none-eabi/bin/../lib/gcc/arm-none-eabi/9.2.1/../../../../arm-none-eabi/lib/thumb/v7e-m+fp/hard\libc_nano.a(lib_a-nano-vfscanf_float.o) (_strtod_r)
d:/mcha3500_windows_toolchain/toolchain/gcc-arm-none-eabi/bin/../lib/gcc/arm-none-eabi/9.2.1/../../../../arm-none-eabi/lib/thumb/v7e-m+fp/hard\libc_nano.a(lib_a-strtol.o)
                              d:/mcha3500_windows_toolchain/toolchain/gcc-arm-none-eabi/bin/../lib/gcc/arm-none-eabi/9.2.1/../../../../arm-none-eabi/lib/thumb/v7e-m+fp/hard\libc_nano.a(lib_a-nano-vfscanf_float.o) (_strtol_r)
d:/mcha3500_windows_toolchain/toolchain/gcc-arm-none-eabi/bin/../lib/gcc/arm-none-eabi/9.2.1/../../../../arm-none-eabi/lib/thumb/v7e-m+fp/hard\libc_nano.a(lib_a-vprintf.o)
                              build/uart.o (vprintf)
d:/mcha3500_windows_toolchain/toolchain/gcc-arm-none-eabi/bin/../lib/gcc/arm-none-eabi/9.2.1/../../../../arm-none-eabi/lib/thumb/v7e-m+fp/hard\libc_nano.a(lib_a-dtoa.o)
                              d:/mcha3500_windows_toolchain/toolchain/gcc-arm-none-eabi/bin/../lib/gcc/arm-none-eabi/9.2.1/../../../../arm-none-eabi/lib/thumb/v7e-m+fp/hard\libc_nano.a(lib_a-nano-vfprintf_float.o) (_dtoa_r)
d:/mcha3500_windows_toolchain/toolchain/gcc-arm-none-eabi/bin/../lib/gcc/arm-none-eabi/9.2.1/../../../../arm-none-eabi/lib/thumb/v7e-m+fp/hard\libc_nano.a(lib_a-fflush.o)
                              d:/mcha3500_windows_toolchain/toolchain/gcc-arm-none-eabi/bin/../lib/gcc/arm-none-eabi/9.2.1/../../../../arm-none-eabi/lib/thumb/v7e-m+fp/hard\libc_nano.a(lib_a-setvbuf.o) (_fflush_r)
d:/mcha3500_windows_toolchain/toolchain/gcc-arm-none-eabi/bin/../lib/gcc/arm-none-eabi/9.2.1/../../../../arm-none-eabi/lib/thumb/v7e-m+fp/hard\libc_nano.a(lib_a-findfp.o)
                              d:/mcha3500_windows_toolchain/toolchain/gcc-arm-none-eabi/bin/../lib/gcc/arm-none-eabi/9.2.1/../../../../arm-none-eabi/lib/thumb/v7e-m+fp/hard\libc_nano.a(lib_a-getchar.o) (__sinit)
d:/mcha3500_windows_toolchain/toolchain/gcc-arm-none-eabi/bin/../lib/gcc/arm-none-eabi/9.2.1/../../../../arm-none-eabi/lib/thumb/v7e-m+fp/hard\libc_nano.a(lib_a-fprintf.o)
                              d:/mcha3500_windows_toolchain/toolchain/gcc-arm-none-eabi/bin/../lib/gcc/arm-none-eabi/9.2.1/../../../../arm-none-eabi/lib/thumb/v7e-m+fp/hard\libc_nano.a(lib_a-mstats.o) (fiprintf)
d:/mcha3500_windows_toolchain/toolchain/gcc-arm-none-eabi/bin/../lib/gcc/arm-none-eabi/9.2.1/../../../../arm-none-eabi/lib/thumb/v7e-m+fp/hard\libc_nano.a(lib_a-fwalk.o)
                              d:/mcha3500_windows_toolchain/toolchain/gcc-arm-none-eabi/bin/../lib/gcc/arm-none-eabi/9.2.1/../../../../arm-none-eabi/lib/thumb/v7e-m+fp/hard\libc_nano.a(lib_a-findfp.o) (_fwalk)
d:/mcha3500_windows_toolchain/toolchain/gcc-arm-none-eabi/bin/../lib/gcc/arm-none-eabi/9.2.1/../../../../arm-none-eabi/lib/thumb/v7e-m+fp/hard\libc_nano.a(lib_a-gdtoa-gethex.o)
                              d:/mcha3500_windows_toolchain/toolchain/gcc-arm-none-eabi/bin/../lib/gcc/arm-none-eabi/9.2.1/../../../../arm-none-eabi/lib/thumb/v7e-m+fp/hard\libc_nano.a(lib_a-strtod.o) (__gethex)
d:/mcha3500_windows_toolchain/toolchain/gcc-arm-none-eabi/bin/../lib/gcc/arm-none-eabi/9.2.1/../../../../arm-none-eabi/lib/thumb/v7e-m+fp/hard\libc_nano.a(lib_a-gdtoa-hexnan.o)
                              d:/mcha3500_windows_toolchain/toolchain/gcc-arm-none-eabi/bin/../lib/gcc/arm-none-eabi/9.2.1/../../../../arm-none-eabi/lib/thumb/v7e-m+fp/hard\libc_nano.a(lib_a-strtod.o) (__match)
d:/mcha3500_windows_toolchain/toolchain/gcc-arm-none-eabi/bin/../lib/gcc/arm-none-eabi/9.2.1/../../../../arm-none-eabi/lib/thumb/v7e-m+fp/hard\libc_nano.a(lib_a-getc.o)
                              d:/mcha3500_windows_toolchain/toolchain/gcc-arm-none-eabi/bin/../lib/gcc/arm-none-eabi/9.2.1/../../../../arm-none-eabi/lib/thumb/v7e-m+fp/hard\libc_nano.a(lib_a-getchar.o) (_getc_r)
d:/mcha3500_windows_toolchain/toolchain/gcc-arm-none-eabi/bin/../lib/gcc/arm-none-eabi/9.2.1/../../../../arm-none-eabi/lib/thumb/v7e-m+fp/hard\libc_nano.a(lib_a-lnumeric.o)
                              d:/mcha3500_windows_toolchain/toolchain/gcc-arm-none-eabi/bin/../lib/gcc/arm-none-eabi/9.2.1/../../../../arm-none-eabi/lib/thumb/v7e-m+fp/hard\libc_nano.a(lib_a-strtod.o) (_C_numeric_locale)
d:/mcha3500_windows_toolchain/toolchain/gcc-arm-none-eabi/bin/../lib/gcc/arm-none-eabi/9.2.1/../../../../arm-none-eabi/lib/thumb/v7e-m+fp/hard\libc_nano.a(lib_a-locale.o)
                              d:/mcha3500_windows_toolchain/toolchain/gcc-arm-none-eabi/bin/../lib/gcc/arm-none-eabi/9.2.1/../../../../arm-none-eabi/lib/thumb/v7e-m+fp/hard\libc_nano.a(lib_a-strtod.o) (__global_locale)
d:/mcha3500_windows_toolchain/toolchain/gcc-arm-none-eabi/bin/../lib/gcc/arm-none-eabi/9.2.1/../../../../arm-none-eabi/lib/thumb/v7e-m+fp/hard\libc_nano.a(lib_a-localeconv.o)
                              d:/mcha3500_windows_toolchain/toolchain/gcc-arm-none-eabi/bin/../lib/gcc/arm-none-eabi/9.2.1/../../../../arm-none-eabi/lib/thumb/v7e-m+fp/hard\libc_nano.a(lib_a-nano-vfprintf_float.o) (_localeconv_r)
d:/mcha3500_windows_toolchain/toolchain/gcc-arm-none-eabi/bin/../lib/gcc/arm-none-eabi/9.2.1/../../../../arm-none-eabi/lib/thumb/v7e-m+fp/hard\libc_nano.a(lib_a-lock.o)
                              d:/mcha3500_windows_toolchain/toolchain/gcc-arm-none-eabi/bin/../lib/gcc/arm-none-eabi/9.2.1/../../../../arm-none-eabi/lib/thumb/v7e-m+fp/hard\libc_nano.a(lib_a-findfp.o) (__retarget_lock_init_recursive)
d:/mcha3500_windows_toolchain/toolchain/gcc-arm-none-eabi/bin/../lib/gcc/arm-none-eabi/9.2.1/../../../../arm-none-eabi/lib/thumb/v7e-m+fp/hard\libc_nano.a(lib_a-makebuf.o)
                              d:/mcha3500_windows_toolchain/toolchain/gcc-arm-none-eabi/bin/../lib/gcc/arm-none-eabi/9.2.1/../../../../arm-none-eabi/lib/thumb/v7e-m+fp/hard\libc_nano.a(lib_a-setvbuf.o) (__swhatbuf_r)
d:/mcha3500_windows_toolchain/toolchain/gcc-arm-none-eabi/bin/../lib/gcc/arm-none-eabi/9.2.1/../../../../arm-none-eabi/lib/thumb/v7e-m+fp/hard\libc_nano.a(lib_a-mbtowc_r.o)
                              d:/mcha3500_windows_toolchain/toolchain/gcc-arm-none-eabi/bin/../lib/gcc/arm-none-eabi/9.2.1/../../../../arm-none-eabi/lib/thumb/v7e-m+fp/hard\libc_nano.a(lib_a-locale.o) (__ascii_mbtowc)
d:/mcha3500_windows_toolchain/toolchain/gcc-arm-none-eabi/bin/../lib/gcc/arm-none-eabi/9.2.1/../../../../arm-none-eabi/lib/thumb/v7e-m+fp/hard\libc_nano.a(lib_a-memchr.o)
                              d:/mcha3500_windows_toolchain/toolchain/gcc-arm-none-eabi/bin/../lib/gcc/arm-none-eabi/9.2.1/../../../../arm-none-eabi/lib/thumb/v7e-m+fp/hard\libc_nano.a(lib_a-nano-vfprintf_i.o) (memchr)
d:/mcha3500_windows_toolchain/toolchain/gcc-arm-none-eabi/bin/../lib/gcc/arm-none-eabi/9.2.1/../../../../arm-none-eabi/lib/thumb/v7e-m+fp/hard\libc_nano.a(lib_a-mprec.o)
                              d:/mcha3500_windows_toolchain/toolchain/gcc-arm-none-eabi/bin/../lib/gcc/arm-none-eabi/9.2.1/../../../../arm-none-eabi/lib/thumb/v7e-m+fp/hard\libc_nano.a(lib_a-strtod.o) (_Balloc)
d:/mcha3500_windows_toolchain/toolchain/gcc-arm-none-eabi/bin/../lib/gcc/arm-none-eabi/9.2.1/../../../../arm-none-eabi/lib/thumb/v7e-m+fp/hard\libc_nano.a(lib_a-nano-callocr.o)
                              d:/mcha3500_windows_toolchain/toolchain/gcc-arm-none-eabi/bin/../lib/gcc/arm-none-eabi/9.2.1/../../../../arm-none-eabi/lib/thumb/v7e-m+fp/hard\libc_nano.a(lib_a-mprec.o) (_calloc_r)
d:/mcha3500_windows_toolchain/toolchain/gcc-arm-none-eabi/bin/../lib/gcc/arm-none-eabi/9.2.1/../../../../arm-none-eabi/lib/thumb/v7e-m+fp/hard\libc_nano.a(lib_a-nano-svfprintf.o)
                              d:/mcha3500_windows_toolchain/toolchain/gcc-arm-none-eabi/bin/../lib/gcc/arm-none-eabi/9.2.1/../../../../arm-none-eabi/lib/thumb/v7e-m+fp/hard\libc_nano.a(lib_a-sprintf.o) (_svfprintf_r)
d:/mcha3500_windows_toolchain/toolchain/gcc-arm-none-eabi/bin/../lib/gcc/arm-none-eabi/9.2.1/../../../../arm-none-eabi/lib/thumb/v7e-m+fp/hard\libc_nano.a(lib_a-nano-vfprintf.o)
                              d:/mcha3500_windows_toolchain/toolchain/gcc-arm-none-eabi/bin/../lib/gcc/arm-none-eabi/9.2.1/../../../../arm-none-eabi/lib/thumb/v7e-m+fp/hard\libc_nano.a(lib_a-printf.o) (_vfprintf_r)
d:/mcha3500_windows_toolchain/toolchain/gcc-arm-none-eabi/bin/../lib/gcc/arm-none-eabi/9.2.1/../../../../arm-none-eabi/lib/thumb/v7e-m+fp/hard\libc_nano.a(lib_a-rget.o)
                              d:/mcha3500_windows_toolchain/toolchain/gcc-arm-none-eabi/bin/../lib/gcc/arm-none-eabi/9.2.1/../../../../arm-none-eabi/lib/thumb/v7e-m+fp/hard\libc_nano.a(lib_a-getc.o) (__srget_r)
d:/mcha3500_windows_toolchain/toolchain/gcc-arm-none-eabi/bin/../lib/gcc/arm-none-eabi/9.2.1/../../../../arm-none-eabi/lib/thumb/v7e-m+fp/hard\libc_nano.a(lib_a-s_nan.o)
                              d:/mcha3500_windows_toolchain/toolchain/gcc-arm-none-eabi/bin/../lib/gcc/arm-none-eabi/9.2.1/../../../../arm-none-eabi/lib/thumb/v7e-m+fp/hard\libc_nano.a(lib_a-strtod.o) (nan)
d:/mcha3500_windows_toolchain/toolchain/gcc-arm-none-eabi/bin/../lib/gcc/arm-none-eabi/9.2.1/../../../../arm-none-eabi/lib/thumb/v7e-m+fp/hard\libc_nano.a(lib_a-stdio.o)
                              d:/mcha3500_windows_toolchain/toolchain/gcc-arm-none-eabi/bin/../lib/gcc/arm-none-eabi/9.2.1/../../../../arm-none-eabi/lib/thumb/v7e-m+fp/hard\libc_nano.a(lib_a-findfp.o) (__sread)
d:/mcha3500_windows_toolchain/toolchain/gcc-arm-none-eabi/bin/../lib/gcc/arm-none-eabi/9.2.1/../../../../arm-none-eabi/lib/thumb/v7e-m+fp/hard\libc_nano.a(lib_a-strncmp.o)
                              d:/mcha3500_windows_toolchain/toolchain/gcc-arm-none-eabi/bin/../lib/gcc/arm-none-eabi/9.2.1/../../../../arm-none-eabi/lib/thumb/v7e-m+fp/hard\libc_nano.a(lib_a-strtod.o) (strncmp)
d:/mcha3500_windows_toolchain/toolchain/gcc-arm-none-eabi/bin/../lib/gcc/arm-none-eabi/9.2.1/../../../../arm-none-eabi/lib/thumb/v7e-m+fp/hard\libc_nano.a(lib_a-wbuf.o)
                              d:/mcha3500_windows_toolchain/toolchain/gcc-arm-none-eabi/bin/../lib/gcc/arm-none-eabi/9.2.1/../../../../arm-none-eabi/lib/thumb/v7e-m+fp/hard\libc_nano.a(lib_a-nano-vfprintf.o) (__swbuf_r)
d:/mcha3500_windows_toolchain/toolchain/gcc-arm-none-eabi/bin/../lib/gcc/arm-none-eabi/9.2.1/../../../../arm-none-eabi/lib/thumb/v7e-m+fp/hard\libc_nano.a(lib_a-wctomb_r.o)
                              d:/mcha3500_windows_toolchain/toolchain/gcc-arm-none-eabi/bin/../lib/gcc/arm-none-eabi/9.2.1/../../../../arm-none-eabi/lib/thumb/v7e-m+fp/hard\libc_nano.a(lib_a-locale.o) (__ascii_wctomb)
d:/mcha3500_windows_toolchain/toolchain/gcc-arm-none-eabi/bin/../lib/gcc/arm-none-eabi/9.2.1/../../../../arm-none-eabi/lib/thumb/v7e-m+fp/hard\libc_nano.a(lib_a-writer.o)
                              d:/mcha3500_windows_toolchain/toolchain/gcc-arm-none-eabi/bin/../lib/gcc/arm-none-eabi/9.2.1/../../../../arm-none-eabi/lib/thumb/v7e-m+fp/hard\libc_nano.a(lib_a-stdio.o) (_write_r)
d:/mcha3500_windows_toolchain/toolchain/gcc-arm-none-eabi/bin/../lib/gcc/arm-none-eabi/9.2.1/../../../../arm-none-eabi/lib/thumb/v7e-m+fp/hard\libc_nano.a(lib_a-wsetup.o)
                              d:/mcha3500_windows_toolchain/toolchain/gcc-arm-none-eabi/bin/../lib/gcc/arm-none-eabi/9.2.1/../../../../arm-none-eabi/lib/thumb/v7e-m+fp/hard\libc_nano.a(lib_a-nano-vfprintf.o) (__swsetup_r)
d:/mcha3500_windows_toolchain/toolchain/gcc-arm-none-eabi/bin/../lib/gcc/arm-none-eabi/9.2.1/../../../../arm-none-eabi/lib/thumb/v7e-m+fp/hard\libc_nano.a(lib_a-closer.o)
                              d:/mcha3500_windows_toolchain/toolchain/gcc-arm-none-eabi/bin/../lib/gcc/arm-none-eabi/9.2.1/../../../../arm-none-eabi/lib/thumb/v7e-m+fp/hard\libc_nano.a(lib_a-stdio.o) (_close_r)
d:/mcha3500_windows_toolchain/toolchain/gcc-arm-none-eabi/bin/../lib/gcc/arm-none-eabi/9.2.1/../../../../arm-none-eabi/lib/thumb/v7e-m+fp/hard\libc_nano.a(lib_a-fstatr.o)
                              d:/mcha3500_windows_toolchain/toolchain/gcc-arm-none-eabi/bin/../lib/gcc/arm-none-eabi/9.2.1/../../../../arm-none-eabi/lib/thumb/v7e-m+fp/hard\libc_nano.a(lib_a-makebuf.o) (_fstat_r)
d:/mcha3500_windows_toolchain/toolchain/gcc-arm-none-eabi/bin/../lib/gcc/arm-none-eabi/9.2.1/../../../../arm-none-eabi/lib/thumb/v7e-m+fp/hard\libc_nano.a(lib_a-fvwrite.o)
                              d:/mcha3500_windows_toolchain/toolchain/gcc-arm-none-eabi/bin/../lib/gcc/arm-none-eabi/9.2.1/../../../../arm-none-eabi/lib/thumb/v7e-m+fp/hard\libc_nano.a(lib_a-nano-vfprintf.o) (__sfvwrite_r)
d:/mcha3500_windows_toolchain/toolchain/gcc-arm-none-eabi/bin/../lib/gcc/arm-none-eabi/9.2.1/../../../../arm-none-eabi/lib/thumb/v7e-m+fp/hard\libc_nano.a(lib_a-isattyr.o)
                              d:/mcha3500_windows_toolchain/toolchain/gcc-arm-none-eabi/bin/../lib/gcc/arm-none-eabi/9.2.1/../../../../arm-none-eabi/lib/thumb/v7e-m+fp/hard\libc_nano.a(lib_a-makebuf.o) (_isatty_r)
d:/mcha3500_windows_toolchain/toolchain/gcc-arm-none-eabi/bin/../lib/gcc/arm-none-eabi/9.2.1/../../../../arm-none-eabi/lib/thumb/v7e-m+fp/hard\libc_nano.a(lib_a-lseekr.o)
                              d:/mcha3500_windows_toolchain/toolchain/gcc-arm-none-eabi/bin/../lib/gcc/arm-none-eabi/9.2.1/../../../../arm-none-eabi/lib/thumb/v7e-m+fp/hard\libc_nano.a(lib_a-stdio.o) (_lseek_r)
d:/mcha3500_windows_toolchain/toolchain/gcc-arm-none-eabi/bin/../lib/gcc/arm-none-eabi/9.2.1/../../../../arm-none-eabi/lib/thumb/v7e-m+fp/hard\libc_nano.a(lib_a-memmove.o)
                              d:/mcha3500_windows_toolchain/toolchain/gcc-arm-none-eabi/bin/../lib/gcc/arm-none-eabi/9.2.1/../../../../arm-none-eabi/lib/thumb/v7e-m+fp/hard\libc_nano.a(lib_a-nano-svfprintf.o) (memmove)
d:/mcha3500_windows_toolchain/toolchain/gcc-arm-none-eabi/bin/../lib/gcc/arm-none-eabi/9.2.1/../../../../arm-none-eabi/lib/thumb/v7e-m+fp/hard\libc_nano.a(lib_a-nano-reallocr.o)
                              d:/mcha3500_windows_toolchain/toolchain/gcc-arm-none-eabi/bin/../lib/gcc/arm-none-eabi/9.2.1/../../../../arm-none-eabi/lib/thumb/v7e-m+fp/hard\libc_nano.a(lib_a-nano-svfprintf.o) (_realloc_r)
d:/mcha3500_windows_toolchain/toolchain/gcc-arm-none-eabi/bin/../lib/gcc/arm-none-eabi/9.2.1/../../../../arm-none-eabi/lib/thumb/v7e-m+fp/hard\libc_nano.a(lib_a-readr.o)
                              d:/mcha3500_windows_toolchain/toolchain/gcc-arm-none-eabi/bin/../lib/gcc/arm-none-eabi/9.2.1/../../../../arm-none-eabi/lib/thumb/v7e-m+fp/hard\libc_nano.a(lib_a-stdio.o) (_read_r)
d:/mcha3500_windows_toolchain/toolchain/gcc-arm-none-eabi/bin/../lib/gcc/arm-none-eabi/9.2.1/../../../../arm-none-eabi/lib/thumb/v7e-m+fp/hard\libc_nano.a(lib_a-refill.o)
                              d:/mcha3500_windows_toolchain/toolchain/gcc-arm-none-eabi/bin/../lib/gcc/arm-none-eabi/9.2.1/../../../../arm-none-eabi/lib/thumb/v7e-m+fp/hard\libc_nano.a(lib_a-rget.o) (__srefill_r)
d:/mcha3500_windows_toolchain/toolchain/gcc-arm-none-eabi/bin/../lib/gcc/arm-none-eabi/9.2.1/../../../../arm-none-eabi/lib/thumb/v7e-m+fp/hard\libc_nano.a(lib_a-nano-msizer.o)
                              d:/mcha3500_windows_toolchain/toolchain/gcc-arm-none-eabi/bin/../lib/gcc/arm-none-eabi/9.2.1/../../../../arm-none-eabi/lib/thumb/v7e-m+fp/hard\libc_nano.a(lib_a-nano-reallocr.o) (_malloc_usable_size_r)
d:/mcha3500_windows_toolchain/toolchain/gcc-arm-none-eabi/bin/../lib/gcc/arm-none-eabi/9.2.1/thumb/v7e-m+fp/hard\libgcc.a(_arm_muldivdf3.o)
                              d:/mcha3500_windows_toolchain/toolchain/gcc-arm-none-eabi/bin/../lib/gcc/arm-none-eabi/9.2.1/../../../../arm-none-eabi/lib/thumb/v7e-m+fp/hard\libc_nano.a(lib_a-strtod.o) (__aeabi_ddiv)
d:/mcha3500_windows_toolchain/toolchain/gcc-arm-none-eabi/bin/../lib/gcc/arm-none-eabi/9.2.1/thumb/v7e-m+fp/hard\libgcc.a(_arm_cmpdf2.o)
                              d:/mcha3500_windows_toolchain/toolchain/gcc-arm-none-eabi/bin/../lib/gcc/arm-none-eabi/9.2.1/../../../../arm-none-eabi/lib/thumb/v7e-m+fp/hard\libc_nano.a(lib_a-nano-vfprintf_float.o) (__aeabi_dcmpeq)
d:/mcha3500_windows_toolchain/toolchain/gcc-arm-none-eabi/bin/../lib/gcc/arm-none-eabi/9.2.1/thumb/v7e-m+fp/hard\libgcc.a(_arm_unorddf2.o)
                              d:/mcha3500_windows_toolchain/toolchain/gcc-arm-none-eabi/bin/../lib/gcc/arm-none-eabi/9.2.1/../../../../arm-none-eabi/lib/thumb/v7e-m+fp/hard\libc_nano.a(lib_a-nano-vfprintf_float.o) (__aeabi_dcmpun)
d:/mcha3500_windows_toolchain/toolchain/gcc-arm-none-eabi/bin/../lib/gcc/arm-none-eabi/9.2.1/thumb/v7e-m+fp/hard\libgcc.a(_arm_fixdfsi.o)
                              d:/mcha3500_windows_toolchain/toolchain/gcc-arm-none-eabi/bin/../lib/gcc/arm-none-eabi/9.2.1/../../../../arm-none-eabi/lib/thumb/v7e-m+fp/hard\libc_nano.a(lib_a-dtoa.o) (__aeabi_d2iz)
d:/mcha3500_windows_toolchain/toolchain/gcc-arm-none-eabi/bin/../lib/gcc/arm-none-eabi/9.2.1/thumb/v7e-m+fp/hard\libgcc.a(_arm_fixunsdfsi.o)
                              d:/mcha3500_windows_toolchain/toolchain/gcc-arm-none-eabi/bin/../lib/gcc/arm-none-eabi/9.2.1/../../../../arm-none-eabi/lib/thumb/v7e-m+fp/hard\libc_nano.a(lib_a-strtod.o) (__aeabi_d2uiz)
d:/mcha3500_windows_toolchain/toolchain/gcc-arm-none-eabi/bin/../lib/gcc/arm-none-eabi/9.2.1/thumb/v7e-m+fp/hard\libgcc.a(_fixdfdi.o)
                              d:/mcha3500_windows_toolchain/toolchain/gcc-arm-none-eabi/bin/../lib/gcc/arm-none-eabi/9.2.1/../../../../arm-none-eabi/lib/thumb/v7e-m+fp/hard\libc_nano.a(lib_a-strtod.o) (__aeabi_d2lz)
d:/mcha3500_windows_toolchain/toolchain/gcc-arm-none-eabi/bin/../lib/gcc/arm-none-eabi/9.2.1/thumb/v7e-m+fp/hard\libgcc.a(_fixunsdfdi.o)
                              d:/mcha3500_windows_toolchain/toolchain/gcc-arm-none-eabi/bin/../lib/gcc/arm-none-eabi/9.2.1/thumb/v7e-m+fp/hard\libgcc.a(_fixdfdi.o) (__aeabi_d2ulz)
d:/mcha3500_windows_toolchain/toolchain/gcc-arm-none-eabi/bin/../lib/gcc/arm-none-eabi/9.2.1/../../../../arm-none-eabi/lib/thumb/v7e-m+fp/hard\libnosys.a(close.o)
                              d:/mcha3500_windows_toolchain/toolchain/gcc-arm-none-eabi/bin/../lib/gcc/arm-none-eabi/9.2.1/../../../../arm-none-eabi/lib/thumb/v7e-m+fp/hard\libc_nano.a(lib_a-closer.o) (_close)
d:/mcha3500_windows_toolchain/toolchain/gcc-arm-none-eabi/bin/../lib/gcc/arm-none-eabi/9.2.1/../../../../arm-none-eabi/lib/thumb/v7e-m+fp/hard\libnosys.a(fstat.o)
                              d:/mcha3500_windows_toolchain/toolchain/gcc-arm-none-eabi/bin/../lib/gcc/arm-none-eabi/9.2.1/../../../../arm-none-eabi/lib/thumb/v7e-m+fp/hard\libc_nano.a(lib_a-fstatr.o) (_fstat)
d:/mcha3500_windows_toolchain/toolchain/gcc-arm-none-eabi/bin/../lib/gcc/arm-none-eabi/9.2.1/../../../../arm-none-eabi/lib/thumb/v7e-m+fp/hard\libnosys.a(isatty.o)
                              d:/mcha3500_windows_toolchain/toolchain/gcc-arm-none-eabi/bin/../lib/gcc/arm-none-eabi/9.2.1/../../../../arm-none-eabi/lib/thumb/v7e-m+fp/hard\libc_nano.a(lib_a-isattyr.o) (_isatty)
d:/mcha3500_windows_toolchain/toolchain/gcc-arm-none-eabi/bin/../lib/gcc/arm-none-eabi/9.2.1/../../../../arm-none-eabi/lib/thumb/v7e-m+fp/hard\libnosys.a(lseek.o)
                              d:/mcha3500_windows_toolchain/toolchain/gcc-arm-none-eabi/bin/../lib/gcc/arm-none-eabi/9.2.1/../../../../arm-none-eabi/lib/thumb/v7e-m+fp/hard\libc_nano.a(lib_a-lseekr.o) (_lseek)
d:/mcha3500_windows_toolchain/toolchain/gcc-arm-none-eabi/bin/../lib/gcc/arm-none-eabi/9.2.1/../../../../arm-none-eabi/lib/thumb/v7e-m+fp/hard\libnosys.a(_exit.o)
                              d:/mcha3500_windows_toolchain/toolchain/gcc-arm-none-eabi/bin/../lib/gcc/arm-none-eabi/9.2.1/../../../../arm-none-eabi/lib/thumb/v7e-m+fp/hard\libc_nano.a(lib_a-exit.o) (_exit)

Allocating common symbols
Common symbol       size              file

__lock___atexit_recursive_mutex
                    0x1               d:/mcha3500_windows_toolchain/toolchain/gcc-arm-none-eabi/bin/../lib/gcc/arm-none-eabi/9.2.1/../../../../arm-none-eabi/lib/thumb/v7e-m+fp/hard\libc_nano.a(lib_a-lock.o)
__lock___arc4random_mutex
                    0x1               d:/mcha3500_windows_toolchain/toolchain/gcc-arm-none-eabi/bin/../lib/gcc/arm-none-eabi/9.2.1/../../../../arm-none-eabi/lib/thumb/v7e-m+fp/hard\libc_nano.a(lib_a-lock.o)
errno               0x4               d:/mcha3500_windows_toolchain/toolchain/gcc-arm-none-eabi/bin/../lib/gcc/arm-none-eabi/9.2.1/../../../../arm-none-eabi/lib/thumb/v7e-m+fp/hard\libc_nano.a(lib_a-reent.o)
sConfigADC1         0x10              build/pendulum.o
uwTick              0x4               build/stm32f4_HAL/stm32f4xx_hal.o
__lock___env_recursive_mutex
                    0x1               d:/mcha3500_windows_toolchain/toolchain/gcc-arm-none-eabi/bin/../lib/gcc/arm-none-eabi/9.2.1/../../../../arm-none-eabi/lib/thumb/v7e-m+fp/hard\libc_nano.a(lib_a-lock.o)
__lock___sinit_recursive_mutex
                    0x1               d:/mcha3500_windows_toolchain/toolchain/gcc-arm-none-eabi/bin/../lib/gcc/arm-none-eabi/9.2.1/../../../../arm-none-eabi/lib/thumb/v7e-m+fp/hard\libc_nano.a(lib_a-lock.o)
htim3               0x40              build/motor.o
__lock___malloc_recursive_mutex
                    0x1               d:/mcha3500_windows_toolchain/toolchain/gcc-arm-none-eabi/bin/../lib/gcc/arm-none-eabi/9.2.1/../../../../arm-none-eabi/lib/thumb/v7e-m+fp/hard\libc_nano.a(lib_a-lock.o)
hadc1               0x48              build/pendulum.o
sConfigPWM          0x1c              build/motor.o
id1                 0x4               build/data_logging.o
__lock___at_quick_exit_mutex
                    0x1               d:/mcha3500_windows_toolchain/toolchain/gcc-arm-none-eabi/bin/../lib/gcc/arm-none-eabi/9.2.1/../../../../arm-none-eabi/lib/thumb/v7e-m+fp/hard\libc_nano.a(lib_a-lock.o)
exec1               0x4               build/data_logging.o
__lock___dd_hash_mutex
                    0x1               d:/mcha3500_windows_toolchain/toolchain/gcc-arm-none-eabi/bin/../lib/gcc/arm-none-eabi/9.2.1/../../../../arm-none-eabi/lib/thumb/v7e-m+fp/hard\libc_nano.a(lib_a-lock.o)
__lock___tz_mutex   0x1               d:/mcha3500_windows_toolchain/toolchain/gcc-arm-none-eabi/bin/../lib/gcc/arm-none-eabi/9.2.1/../../../../arm-none-eabi/lib/thumb/v7e-m+fp/hard\libc_nano.a(lib_a-lock.o)
__lock___sfp_recursive_mutex
                    0x1               d:/mcha3500_windows_toolchain/toolchain/gcc-arm-none-eabi/bin/../lib/gcc/arm-none-eabi/9.2.1/../../../../arm-none-eabi/lib/thumb/v7e-m+fp/hard\libc_nano.a(lib_a-lock.o)

Memory Configuration

Name             Origin             Length             Attributes
FLASH            0x08000000         0x00080000         xr
RAM              0x20000000         0x00020000         xrw
*default*        0x00000000         0xffffffff

Linker script and memory map

LOAD d:/mcha3500_windows_toolchain/toolchain/gcc-arm-none-eabi/bin/../lib/gcc/arm-none-eabi/9.2.1/thumb/v7e-m+fp/hard/crti.o
LOAD d:/mcha3500_windows_toolchain/toolchain/gcc-arm-none-eabi/bin/../lib/gcc/arm-none-eabi/9.2.1/thumb/v7e-m+fp/hard/crtbegin.o
LOAD d:/mcha3500_windows_toolchain/toolchain/gcc-arm-none-eabi/bin/../lib/gcc/arm-none-eabi/9.2.1/../../../../arm-none-eabi/lib/thumb/v7e-m+fp/hard/crt0.o
LOAD build/stm32f4xx_it.o
LOAD build/system_stm32f4xx.o
LOAD build/cmd_line_buffer.o
LOAD build/cmd_parser.o
LOAD build/cmd_task.o
LOAD build/main.o
LOAD build/uart.o
LOAD build/heartbeat_task.o
LOAD build/heartbeat_cmd.o
LOAD build/dummy_task.o
LOAD build/pendulum.o
LOAD build/motor.o
LOAD build/data_logging.o
LOAD build/startup_stm32f446xx.o
LOAD build/stm32f4_HAL/stm32f4xx_hal.o
LOAD build/stm32f4_HAL/stm32f4xx_hal_dma.o
LOAD build/stm32f4_HAL/stm32f4xx_hal_adc.o
LOAD build/stm32f4_HAL/stm32f4xx_hal_adc_ex.o
LOAD build/stm32f4_HAL/stm32f4xx_hal_gpio.o
LOAD build/stm32f4_HAL/stm32f4xx_ll_gpio.o
LOAD build/stm32f4_HAL/stm32f4xx_ll_usart.o
LOAD build/stm32f4_HAL/stm32f4xx_ll_dma.o
LOAD build/stm32f4_HAL/stm32f4xx_ll_rcc.o
LOAD build/stm32f4_HAL/stm32f4xx_hal_i2c.o
LOAD build/stm32f4_HAL/stm32f4xx_hal_i2c_ex.o
LOAD build/stm32f4_HAL/stm32f4xx_hal_tim.o
LOAD build/stm32f4_HAL/stm32f4xx_hal_tim_ex.o
LOAD build/stm32f4_HAL/stm32f4xx_hal_rtc.o
LOAD build/stm32f4_HAL/stm32f4xx_hal_rcc.o
LOAD build/stm32f4_HAL/stm32f4xx_hal_rcc_ex.o
LOAD build/stm32f4_HAL/stm32f4xx_hal_pwr.o
LOAD build/stm32f4_HAL/stm32f4xx_hal_pwr_ex.o
LOAD build/stm32f4_HAL/stm32f4xx_hal_cortex.o
LOAD build/stm32f4_HAL/stm32f4xx_hal_spi.o
LOAD build/stm32f4_HAL/stm32f4xx_hal_dac.o
LOAD build/stm32f4_HAL/stm32f4xx_hal_dac_ex.o
LOAD build/stm32f4_HAL/stm32f4xx_hal_can.o
LOAD build/FreeRTOS/croutine.o
LOAD build/FreeRTOS/event_groups.o
LOAD build/FreeRTOS/list.o
LOAD build/FreeRTOS/queue.o
LOAD build/FreeRTOS/tasks.o
LOAD build/FreeRTOS/timers.o
LOAD build/FreeRTOS/stream_buffer.o
LOAD build/FreeRTOS/cmsis_os2.o
LOAD build/FreeRTOS/clib_arm.o
LOAD build/FreeRTOS/os_systick.o
LOAD build/FreeRTOS/heap_useNewlib.o
LOAD build/FreeRTOS/port.o
LOAD d:/mcha3500_windows_toolchain/toolchain/gcc-arm-none-eabi/bin/../lib/gcc/arm-none-eabi/9.2.1/../../../../arm-none-eabi/lib/thumb/v7e-m+fp/hard\libm.a
LOAD ../STM32Cube_F4_FW/Drivers/CMSIS/Lib/GCC/libarm_cortexM4lf_math.a
START GROUP
LOAD d:/mcha3500_windows_toolchain/toolchain/gcc-arm-none-eabi/bin/../lib/gcc/arm-none-eabi/9.2.1/thumb/v7e-m+fp/hard\libgcc.a
LOAD d:/mcha3500_windows_toolchain/toolchain/gcc-arm-none-eabi/bin/../lib/gcc/arm-none-eabi/9.2.1/../../../../arm-none-eabi/lib/thumb/v7e-m+fp/hard\libc_nano.a
END GROUP
START GROUP
LOAD d:/mcha3500_windows_toolchain/toolchain/gcc-arm-none-eabi/bin/../lib/gcc/arm-none-eabi/9.2.1/thumb/v7e-m+fp/hard\libgcc.a
LOAD d:/mcha3500_windows_toolchain/toolchain/gcc-arm-none-eabi/bin/../lib/gcc/arm-none-eabi/9.2.1/../../../../arm-none-eabi/lib/thumb/v7e-m+fp/hard\libc_nano.a
LOAD d:/mcha3500_windows_toolchain/toolchain/gcc-arm-none-eabi/bin/../lib/gcc/arm-none-eabi/9.2.1/../../../../arm-none-eabi/lib/thumb/v7e-m+fp/hard\libnosys.a
END GROUP
START GROUP
LOAD d:/mcha3500_windows_toolchain/toolchain/gcc-arm-none-eabi/bin/../lib/gcc/arm-none-eabi/9.2.1/thumb/v7e-m+fp/hard\libgcc.a
LOAD d:/mcha3500_windows_toolchain/toolchain/gcc-arm-none-eabi/bin/../lib/gcc/arm-none-eabi/9.2.1/../../../../arm-none-eabi/lib/thumb/v7e-m+fp/hard\libc_nano.a
LOAD d:/mcha3500_windows_toolchain/toolchain/gcc-arm-none-eabi/bin/../lib/gcc/arm-none-eabi/9.2.1/../../../../arm-none-eabi/lib/thumb/v7e-m+fp/hard\libnosys.a
END GROUP
LOAD d:/mcha3500_windows_toolchain/toolchain/gcc-arm-none-eabi/bin/../lib/gcc/arm-none-eabi/9.2.1/thumb/v7e-m+fp/hard/crtend.o
LOAD d:/mcha3500_windows_toolchain/toolchain/gcc-arm-none-eabi/bin/../lib/gcc/arm-none-eabi/9.2.1/thumb/v7e-m+fp/hard/crtn.o
                0x20020000                _estack = 0x20020000
                0x00010000                _Min_Heap_Size = 0x10000
                0x00002000                _Min_Stack_Size = 0x2000

.isr_vector     0x08000000      0x1c4
                0x08000000                . = ALIGN (0x4)
 *(.isr_vector)
 .isr_vector    0x08000000      0x1c4 build/startup_stm32f446xx.o
                0x08000000                g_pfnVectors
                0x080001c4                . = ALIGN (0x4)

.text           0x080001d0    0x16734
                0x080001d0                . = ALIGN (0x4)
 *(.text)
 .text          0x080001d0        0x0 d:/mcha3500_windows_toolchain/toolchain/gcc-arm-none-eabi/bin/../lib/gcc/arm-none-eabi/9.2.1/thumb/v7e-m+fp/hard/crti.o
 .text          0x080001d0       0x40 d:/mcha3500_windows_toolchain/toolchain/gcc-arm-none-eabi/bin/../lib/gcc/arm-none-eabi/9.2.1/thumb/v7e-m+fp/hard/crtbegin.o
 .text          0x08000210       0x74 d:/mcha3500_windows_toolchain/toolchain/gcc-arm-none-eabi/bin/../lib/gcc/arm-none-eabi/9.2.1/../../../../arm-none-eabi/lib/thumb/v7e-m+fp/hard/crt0.o
                0x08000210                _start
                0x08000210                _mainCRTStartup
 .text          0x08000284        0xc build/stm32f4xx_it.o
                0x08000284                NMI_Handler
                0x08000286                HardFault_Handler
                0x08000288                MemManage_Handler
                0x0800028a                BusFault_Handler
                0x0800028c                UsageFault_Handler
                0x0800028e                DebugMon_Handler
 .text          0x08000290       0xc0 build/system_stm32f4xx.o
                0x08000290                SystemInit
                0x080002dc                SystemCoreClockUpdate
 .text          0x08000350      0x104 build/cmd_line_buffer.o
                0x08000350                clb_init
                0x0800035a                clb_is_empty
                0x08000364                clb_is_full
                0x08000372                clb_delc
                0x0800037c                clb_is_cmd_ready
                0x08000394                clb_putc
                0x080003b4                clb_consume_char
                0x080003dc                clb_consume_str
                0x080003f6                clb_gets_at
                0x0800040e                clb_gets
                0x08000414                clb_process
 .text          0x08000454      0x148 build/cmd_parser.o
                0x080004ec                cmd_parse
 .text          0x0800059c       0x4c build/cmd_task.o
                0x080005bc                cmd_task_init
 .text          0x080005e8        0x0 build/main.o
 .text          0x080005e8      0x47c build/uart.o
                0x080005e8                uart_init
                0x080008bc                __wrap_printf
                0x080008f4                __io_putchar
                0x08000924                __io_getchar
                0x08000940                _write
                0x0800095c                _read
                0x08000970                _uart_rxne_isr
                0x08000998                _uart_txe_isr
                0x080009d0                _uart_error
                0x08000a28                USART2_IRQHandler
 .text          0x08000a64       0xc4 build/heartbeat_task.o
                0x08000a80                heartbeat_task_init
                0x08000adc                heartbeat_task_start
                0x08000af4                heartbeat_task_stop
                0x08000b0c                heartbeat_task_is_running
                0x08000b18                heartbeat_task_deinit
 .text          0x08000b28       0x70 build/heartbeat_cmd.o
                0x08000b28                heartbeat_cmd
 .text          0x08000b98       0x80 build/dummy_task.o
                0x08000ba4                dummy_task_init
                0x08000bcc                dummy_task_start
                0x08000be4                dummy_task_stop
                0x08000bfc                dummy_task_is_running
                0x08000c08                dummy_task_deinit
 .text          0x08000c18       0xe8 build/pendulum.o
                0x08000c18                pendulum_init
                0x08000c94                pendulum_read_voltage
 .text          0x08000d00      0x180 build/motor.o
                0x08000d00                motor_PWM_init
                0x08000da0                motor_encoder_init
                0x08000e04                EXTI0_IRQHandler
                0x08000e3c                EXTI1_IRQHandler
                0x08000e74                motor_encoder_getValue
 .text          0x08000e80       0xb8 build/data_logging.o
                0x08000e80                logging_init
                0x08000ea4                pend_logging_start
                0x08000ebc                pend_logging_stop
 .text          0x08000f38       0x14 build/startup_stm32f446xx.o
 .text          0x08000f4c      0x20c build/stm32f4_HAL/stm32f4xx_hal.o
                0x08000f4c                HAL_MspInit
                0x08000f4e                HAL_MspDeInit
                0x08000f50                HAL_DeInit
                0x08000f7c                HAL_InitTick
                0x08000fc0                HAL_Init
                0x08000ff4                HAL_IncTick
                0x0800100c                HAL_GetTick
                0x08001018                HAL_GetTickPrio
                0x08001024                HAL_SetTickFreq
                0x08001044                HAL_GetTickFreq
                0x08001050                HAL_Delay
                0x08001078                HAL_SuspendTick
                0x08001088                HAL_ResumeTick
                0x08001098                HAL_GetHalVersion
                0x080010a0                HAL_GetREVID
                0x080010ac                HAL_GetDEVID
                0x080010bc                HAL_DBGMCU_EnableDBGSleepMode
                0x080010cc                HAL_DBGMCU_DisableDBGSleepMode
                0x080010dc                HAL_DBGMCU_EnableDBGStopMode
                0x080010ec                HAL_DBGMCU_DisableDBGStopMode
                0x080010fc                HAL_DBGMCU_EnableDBGStandbyMode
                0x0800110c                HAL_DBGMCU_DisableDBGStandbyMode
                0x0800111c                HAL_EnableCompensationCell
                0x08001128                HAL_DisableCompensationCell
                0x08001134                HAL_GetUIDw0
                0x08001140                HAL_GetUIDw1
                0x0800114c                HAL_GetUIDw2
 .text          0x08001158      0x630 build/stm32f4_HAL/stm32f4xx_hal_dma.o
                0x08001184                HAL_DMA_Init
                0x08001284                HAL_DMA_DeInit
                0x080012d8                HAL_DMA_Start
                0x0800132c                HAL_DMA_Start_IT
                0x080013a0                HAL_DMA_Abort
                0x08001428                HAL_DMA_Abort_IT
                0x0800144c                HAL_DMA_PollForTransfer
                0x0800155a                HAL_DMA_IRQHandler
                0x080016d4                HAL_DMA_RegisterCallback
                0x0800171c                HAL_DMA_UnRegisterCallback
                0x0800177e                HAL_DMA_GetState
                0x08001784                HAL_DMA_GetError
 .text          0x08001788      0x9c8 build/stm32f4_HAL/stm32f4xx_hal_adc.o
                0x08001788                HAL_ADC_MspInit
                0x0800178a                HAL_ADC_Init
                0x080018d8                HAL_ADC_MspDeInit
                0x080018da                HAL_ADC_DeInit
                0x0800190e                HAL_ADC_Start
                0x080019f8                HAL_ADC_Stop
                0x08001a2e                HAL_ADC_PollForConversion
                0x08001acc                HAL_ADC_PollForEvent
                0x08001b32                HAL_ADC_Start_IT
                0x08001c28                HAL_ADC_Stop_IT
                0x08001c70                HAL_ADC_Start_DMA
                0x08001d94                HAL_ADC_Stop_DMA
                0x08001dee                HAL_ADC_GetValue
                0x08001df4                HAL_ADC_ConvCpltCallback
                0x08001df6                HAL_ADC_ConvHalfCpltCallback
                0x08001e02                HAL_ADC_LevelOutOfWindowCallback
                0x08001e04                HAL_ADC_ErrorCallback
                0x08001e06                HAL_ADC_IRQHandler
                0x08001fb0                HAL_ADC_ConfigChannel
                0x080020e8                HAL_ADC_AnalogWDGConfig
                0x08002146                HAL_ADC_GetState
                0x0800214a                HAL_ADC_GetError
 .text          0x08002150      0x6ac build/stm32f4_HAL/stm32f4xx_hal_adc_ex.o
                0x080021c0                HAL_ADCEx_InjectedStart
                0x08002274                HAL_ADCEx_InjectedStart_IT
                0x08002330                HAL_ADCEx_InjectedStop
                0x0800238a                HAL_ADCEx_InjectedPollForConversion
                0x08002412                HAL_ADCEx_InjectedStop_IT
                0x08002474                HAL_ADCEx_InjectedGetValue
                0x080024a6                HAL_ADCEx_MultiModeStart_DMA
                0x080025a0                HAL_ADCEx_MultiModeStop_DMA
                0x08002600                HAL_ADCEx_MultiModeGetValue
                0x0800260c                HAL_ADCEx_InjectedConvCpltCallback
                0x0800260e                HAL_ADCEx_InjectedConfigChannel
                0x080027ac                HAL_ADCEx_MultiModeConfigChannel
 .text          0x080027fc      0x334 build/stm32f4_HAL/stm32f4xx_hal_gpio.o
                0x080027fc                HAL_GPIO_Init
                0x080029ac                HAL_GPIO_DeInit
                0x08002ac8                HAL_GPIO_ReadPin
                0x08002ad4                HAL_GPIO_WritePin
                0x08002ade                HAL_GPIO_TogglePin
                0x08002aec                HAL_GPIO_LockPin
                0x08002b16                HAL_GPIO_EXTI_Callback
                0x08002b18                HAL_GPIO_EXTI_IRQHandler
 .text          0x08002b30      0x220 build/stm32f4_HAL/stm32f4xx_ll_gpio.o
                0x08002b50                LL_GPIO_DeInit
                0x08002bfc                LL_GPIO_Init
                0x08002d38                LL_GPIO_StructInit
 .text          0x08002d50      0x21c build/stm32f4_HAL/stm32f4xx_ll_usart.o
                0x08002d50                LL_USART_DeInit
                0x08002e10                LL_USART_Init
                0x08002f0c                LL_USART_StructInit
                0x08002f24                LL_USART_ClockInit
                0x08002f5e                LL_USART_ClockStructInit
 .text          0x08002f6c      0x238 build/stm32f4_HAL/stm32f4xx_ll_dma.o
                0x08002f6c                LL_DMA_DeInit
                0x080030fc                LL_DMA_Init
                0x08003180                LL_DMA_StructInit
 .text          0x080031a4      0x604 build/stm32f4_HAL/stm32f4xx_ll_rcc.o
                0x080031b4                LL_RCC_DeInit
                0x08003264                LL_RCC_GetCECClockFreq
                0x08003294                RCC_GetHCLKClockFreq
                0x080032ac                RCC_GetPCLK1ClockFreq
                0x080032c4                RCC_GetPCLK2ClockFreq
                0x080032dc                RCC_PLL_GetFreqDomain_SYS
                0x08003324                RCC_GetSystemClockFreq
                0x08003354                LL_RCC_GetSystemClocksFreq
                0x08003374                LL_RCC_GetFMPI2CClockFreq
                0x080033c4                RCC_PLL_GetFreqDomain_48M
                0x08003400                RCC_PLL_GetFreqDomain_I2S
                0x0800343c                RCC_PLL_GetFreqDomain_SPDIFRX
                0x08003440                RCC_PLL_GetFreqDomain_SAI
                0x08003444                RCC_PLLSAI_GetFreqDomain_SAI
                0x08003494                RCC_PLLSAI_GetFreqDomain_48M
                0x080034d8                LL_RCC_GetSDIOClockFreq
                0x08003520                LL_RCC_GetUSBClockFreq
                0x08003554                RCC_PLLI2S_GetFreqDomain_SAI
                0x080035a4                LL_RCC_GetSAIClockFreq
                0x08003658                RCC_PLLI2S_GetFreqDomain_SPDIFRX
                0x0800369c                LL_RCC_GetSPDIFRXClockFreq
                0x080036d0                RCC_PLLI2S_GetFreqDomain_I2S
                0x08003710                LL_RCC_GetI2SClockFreq
 .text          0x080037a8     0x31e0 build/stm32f4_HAL/stm32f4xx_hal_i2c.o
                0x08003bcc                HAL_I2C_MspInit
                0x08003bce                HAL_I2C_Init
                0x08003d1c                HAL_I2C_MspDeInit
                0x08003d1e                HAL_I2C_DeInit
                0x08003d50                HAL_I2C_Master_Transmit
                0x08003f00                HAL_I2C_Master_Receive
                0x080041e0                HAL_I2C_Slave_Transmit
                0x08004340                HAL_I2C_Slave_Receive
                0x080044bc                HAL_I2C_Master_Transmit_IT
                0x0800456c                HAL_I2C_Master_Receive_IT
                0x08004624                HAL_I2C_Slave_Transmit_IT
                0x08004694                HAL_I2C_Slave_Receive_IT
                0x08004704                HAL_I2C_Master_Transmit_DMA
                0x08004830                HAL_I2C_Master_Receive_DMA
                0x08004958                HAL_I2C_Slave_Transmit_DMA
                0x08004a18                HAL_I2C_Slave_Receive_DMA
                0x08004ad8                HAL_I2C_Mem_Write
                0x08004bf8                HAL_I2C_Mem_Read
                0x08004e08                HAL_I2C_Mem_Write_IT
                0x08004ec4                HAL_I2C_Mem_Read_IT
                0x08004f90                HAL_I2C_Mem_Write_DMA
                0x080050d8                HAL_I2C_Mem_Read_DMA
                0x08005264                HAL_I2C_IsDeviceReady
                0x080053c4                HAL_I2C_Master_Seq_Transmit_IT
                0x08005494                HAL_I2C_Master_Seq_Transmit_DMA
                0x08005608                HAL_I2C_Master_Seq_Receive_IT
                0x08005714                HAL_I2C_Master_Seq_Receive_DMA
                0x080058e0                HAL_I2C_Slave_Seq_Transmit_IT
                0x08005956                HAL_I2C_Slave_Seq_Transmit_DMA
                0x08005a94                HAL_I2C_Slave_Seq_Receive_IT
                0x08005b0a                HAL_I2C_Slave_Seq_Receive_DMA
                0x08005c48                HAL_I2C_EnableListen_IT
                0x08005c7e                HAL_I2C_DisableListen_IT
                0x08005cbc                HAL_I2C_MasterTxCpltCallback
                0x08005cbe                HAL_I2C_MasterRxCpltCallback
                0x08005cc0                HAL_I2C_SlaveTxCpltCallback
                0x08005cc2                HAL_I2C_SlaveRxCpltCallback
                0x08005cc4                HAL_I2C_AddrCallback
                0x08005cc6                HAL_I2C_ListenCpltCallback
                0x08005cc8                HAL_I2C_MemTxCpltCallback
                0x08005cca                HAL_I2C_MemRxCpltCallback
                0x08005ccc                HAL_I2C_ErrorCallback
                0x08005e1a                HAL_I2C_AbortCpltCallback
                0x08005fec                HAL_I2C_Master_Abort_IT
                0x08006038                HAL_I2C_EV_IRQHandler
                0x08006844                HAL_I2C_ER_IRQHandler
                0x08006978                HAL_I2C_GetState
                0x0800697e                HAL_I2C_GetMode
                0x08006984                HAL_I2C_GetError
 .text          0x08006988       0x7c build/stm32f4_HAL/stm32f4xx_hal_i2c_ex.o
                0x08006988                HAL_I2CEx_ConfigAnalogFilter
                0x080069c6                HAL_I2CEx_ConfigDigitalFilter
 .text          0x08006a04     0x1dec build/stm32f4_HAL/stm32f4xx_hal_tim.o
                0x08006b20                HAL_TIM_Base_MspInit
                0x08006b22                HAL_TIM_Base_MspDeInit
                0x08006b24                HAL_TIM_Base_DeInit
                0x08006b5e                HAL_TIM_Base_Start
                0x08006b82                HAL_TIM_Base_Stop
                0x08006bb0                HAL_TIM_Base_Start_IT
                0x08006bd0                HAL_TIM_Base_Stop_IT
                0x08006bfa                HAL_TIM_Base_Start_DMA
                0x08006c64                HAL_TIM_Base_Stop_DMA
                0x08006ca0                HAL_TIM_OC_MspInit
                0x08006ca2                HAL_TIM_OC_MspDeInit
                0x08006ca4                HAL_TIM_OC_DeInit
                0x08006cde                HAL_TIM_PWM_MspInit
                0x08006ce0                HAL_TIM_PWM_MspDeInit
                0x08006ce2                HAL_TIM_PWM_DeInit
                0x08006d1c                HAL_TIM_IC_MspInit
                0x08006d1e                HAL_TIM_IC_MspDeInit
                0x08006d20                HAL_TIM_IC_DeInit
                0x08006d5a                HAL_TIM_OnePulse_MspInit
                0x08006d5c                HAL_TIM_OnePulse_MspDeInit
                0x08006d5e                HAL_TIM_OnePulse_DeInit
                0x08006d98                HAL_TIM_OnePulse_Start
                0x08006dd8                HAL_TIM_OnePulse_Stop
                0x08006e40                HAL_TIM_OnePulse_Start_IT
                0x08006e90                HAL_TIM_OnePulse_Stop_IT
                0x08006f08                HAL_TIM_Encoder_MspInit
                0x08006f0a                HAL_TIM_Encoder_MspDeInit
                0x08006f0c                HAL_TIM_Encoder_DeInit
                0x08006f46                HAL_TIM_Encoder_Start
                0x08006f8a                HAL_TIM_Encoder_Stop
                0x08006fd2                HAL_TIM_Encoder_Start_IT
                0x08007040                HAL_TIM_Encoder_Stop_IT
                0x080070b4                HAL_TIM_Encoder_Start_DMA
                0x080071f4                HAL_TIM_Encoder_Stop_DMA
                0x08007286                HAL_TIM_DMABurst_WriteStart
                0x08007364                HAL_TIM_DMABurst_WriteStop
                0x080073c8                HAL_TIM_DMABurst_ReadStart
                0x080074ac                HAL_TIM_DMABurst_ReadStop
                0x080074b0                HAL_TIM_GenerateEvent
                0x080074d4                HAL_TIM_ConfigTI1Input
                0x080074e4                HAL_TIM_ReadCapturedValue
                0x08007510                HAL_TIM_PeriodElapsedCallback
                0x08007522                HAL_TIM_PeriodElapsedHalfCpltCallback
                0x08007534                HAL_TIM_OC_DelayElapsedCallback
                0x08007536                HAL_TIM_IC_CaptureCallback
                0x08007538                TIM_DMACaptureCplt
                0x08007574                HAL_TIM_IC_CaptureHalfCpltCallback
                0x08007576                TIM_DMACaptureHalfCplt
                0x080075b2                HAL_TIM_PWM_PulseFinishedCallback
                0x080075b4                TIM_DMADelayPulseCplt
                0x080075f0                HAL_TIM_PWM_PulseFinishedHalfCpltCallback
                0x080075f2                TIM_DMADelayPulseHalfCplt
                0x0800762e                HAL_TIM_TriggerCallback
                0x08007630                HAL_TIM_IRQHandler
                0x08007784                HAL_TIM_TriggerHalfCpltCallback
                0x08007796                HAL_TIM_ErrorCallback
                0x08007798                TIM_DMAError
                0x080077a8                HAL_TIM_Base_GetState
                0x080077ae                HAL_TIM_OC_GetState
                0x080077b4                HAL_TIM_PWM_GetState
                0x080077ba                HAL_TIM_IC_GetState
                0x080077c0                HAL_TIM_OnePulse_GetState
                0x080077c6                HAL_TIM_Encoder_GetState
                0x080077cc                TIM_Base_SetConfig
                0x08007898                HAL_TIM_Base_Init
                0x080078cc                HAL_TIM_OC_Init
                0x08007900                HAL_TIM_PWM_Init
                0x08007934                HAL_TIM_IC_Init
                0x08007968                HAL_TIM_OnePulse_Init
                0x080079ae                HAL_TIM_Encoder_Init
                0x08007a44                TIM_OC2_SetConfig
                0x08007ab0                HAL_TIM_OC_ConfigChannel
                0x08007b08                HAL_TIM_PWM_ConfigChannel
                0x08007bc8                TIM_TI1_SetConfig
                0x08007c3c                HAL_TIM_IC_ConfigChannel
                0x08007d50                HAL_TIM_OnePulse_ConfigChannel
                0x08007e46                TIM_ETR_SetConfig
                0x08007e5a                HAL_TIM_ConfigOCrefClear
                0x08007f22                HAL_TIM_ConfigClockSource
                0x080080ee                HAL_TIM_SlaveConfigSynchro
                0x0800813c                HAL_TIM_SlaveConfigSynchro_IT
                0x0800818a                TIM_CCxChannelCmd
                0x080081a6                HAL_TIM_OC_Start
                0x080081e4                HAL_TIM_PWM_Start
                0x080081e8                HAL_TIM_OC_Stop
                0x08008244                HAL_TIM_OC_Start_IT
                0x080082b4                HAL_TIM_PWM_Start_IT
                0x080082b8                HAL_TIM_OC_Stop_IT
                0x08008348                HAL_TIM_PWM_Stop_IT
                0x0800834c                HAL_TIM_OC_Start_DMA
                0x0800845c                HAL_TIM_PWM_Start_DMA
                0x08008460                HAL_TIM_OC_Stop_DMA
                0x08008510                HAL_TIM_PWM_Stop_DMA
                0x08008514                HAL_TIM_PWM_Stop
                0x08008578                HAL_TIM_IC_Start
                0x0800859c                HAL_TIM_IC_Stop
                0x080085ca                HAL_TIM_IC_Start_IT
                0x08008620                HAL_TIM_IC_Stop_IT
                0x08008680                HAL_TIM_IC_Start_DMA
                0x08008770                HAL_TIM_IC_Stop_DMA
 .text          0x080087f0      0x814 build/stm32f4_HAL/stm32f4xx_hal_tim_ex.o
                0x0800880c                HAL_TIMEx_HallSensor_MspInit
                0x0800880e                HAL_TIMEx_HallSensor_Init
                0x080088bc                HAL_TIMEx_HallSensor_MspDeInit
                0x080088be                HAL_TIMEx_HallSensor_DeInit
                0x080088f8                HAL_TIMEx_HallSensor_Start
                0x0800891e                HAL_TIMEx_HallSensor_Stop
                0x0800894e                HAL_TIMEx_HallSensor_Start_IT
                0x0800897c                HAL_TIMEx_HallSensor_Stop_IT
                0x080089b4                HAL_TIMEx_HallSensor_Start_DMA
                0x08008a30                HAL_TIMEx_HallSensor_Stop_DMA
                0x08008a70                HAL_TIMEx_OCN_Start
                0x08008a9c                HAL_TIMEx_OCN_Stop
                0x08008ae6                HAL_TIMEx_OCN_Start_IT
                0x08008b3c                HAL_TIMEx_OCN_Stop_IT
                0x08008bba                HAL_TIMEx_OCN_Start_DMA
                0x08008c8c                HAL_TIMEx_OCN_Stop_DMA
                0x08008d12                HAL_TIMEx_PWMN_Start
                0x08008d16                HAL_TIMEx_PWMN_Stop
                0x08008d1a                HAL_TIMEx_PWMN_Start_IT
                0x08008d1e                HAL_TIMEx_PWMN_Stop_IT
                0x08008d22                HAL_TIMEx_PWMN_Start_DMA
                0x08008d26                HAL_TIMEx_PWMN_Stop_DMA
                0x08008d2a                HAL_TIMEx_OnePulseN_Start
                0x08008d44                HAL_TIMEx_OnePulseN_Stop
                0x08008d48                HAL_TIMEx_OnePulseN_Start_IT
                0x08008d72                HAL_TIMEx_OnePulseN_Stop_IT
                0x08008dcc                HAL_TIMEx_ConfigCommutEvent
                0x08008e26                HAL_TIMEx_ConfigCommutEvent_IT
                0x08008e80                HAL_TIMEx_ConfigCommutEvent_DMA
                0x08008ef4                HAL_TIMEx_MasterConfigSynchronization
                0x08008f70                HAL_TIMEx_ConfigBreakDeadTime
                0x08008fbc                HAL_TIMEx_RemapConfig
                0x08008fd6                HAL_TIMEx_CommutCallback
                0x08008fd8                TIMEx_DMACommutationCplt
                0x08008fe8                HAL_TIMEx_CommutHalfCpltCallback
                0x08008fea                TIMEx_DMACommutationHalfCplt
                0x08008ffa                HAL_TIMEx_BreakCallback
                0x08008ffc                HAL_TIMEx_HallSensor_GetState
 .text          0x08009004        0x0 build/stm32f4_HAL/stm32f4xx_hal_rtc.o
 .text          0x08009004      0x6d4 build/stm32f4_HAL/stm32f4xx_hal_rcc.o
                0x08009356                HAL_RCC_MCOConfig
                0x080093f0                HAL_RCC_EnableCSS
                0x080093fc                HAL_RCC_DisableCSS
                0x08009464                HAL_RCC_ClockConfig
                0x0800959c                HAL_RCC_GetHCLKFreq
                0x080095a8                HAL_RCC_GetPCLK1Freq
                0x080095c8                HAL_RCC_GetPCLK2Freq
                0x0800967c                HAL_RCC_GetClockConfig
                0x080096b8                HAL_RCC_CSSCallback
                0x080096ba                HAL_RCC_NMI_IRQHandler
 .text          0x080096d8      0xdc8 build/stm32f4_HAL/stm32f4xx_hal_rcc_ex.o
                0x080096d8                HAL_RCCEx_PeriphCLKConfig
                0x08009af0                HAL_RCCEx_GetPeriphCLKConfig
                0x08009bec                HAL_RCCEx_GetPeriphCLKFreq
                0x08009d94                HAL_RCCEx_SelectLSEMode
                0x08009dac                HAL_RCCEx_EnablePLLI2S
                0x08009e20                HAL_RCCEx_DisablePLLI2S
                0x08009e54                HAL_RCCEx_EnablePLLSAI
                0x08009ec0                HAL_RCCEx_DisablePLLSAI
                0x08009ef4                HAL_RCC_GetSysClockFreq
                0x08009f84                HAL_RCC_DeInit
                0x0800a0d8                HAL_RCC_OscConfig
                0x0800a404                HAL_RCC_GetOscConfig
 .text          0x0800a4a0      0x1ac build/stm32f4_HAL/stm32f4xx_hal_pwr.o
                0x0800a4a0                HAL_PWR_DeInit
                0x0800a4b8                HAL_PWR_EnableBkUpAccess
                0x0800a4c4                HAL_PWR_DisableBkUpAccess
                0x0800a4d0                HAL_PWR_ConfigPVD
                0x0800a540                HAL_PWR_EnablePVD
                0x0800a54c                HAL_PWR_DisablePVD
                0x0800a558                HAL_PWR_EnableWakeUpPin
                0x0800a568                HAL_PWR_DisableWakeUpPin
                0x0800a578                HAL_PWR_EnterSLEEPMode
                0x0800a598                HAL_PWR_EnterSTOPMode
                0x0800a5d0                HAL_PWR_EnterSTANDBYMode
                0x0800a5f0                HAL_PWR_PVDCallback
                0x0800a5f2                HAL_PWR_PVD_IRQHandler
                0x0800a60c                HAL_PWR_EnableSleepOnExit
                0x0800a61c                HAL_PWR_DisableSleepOnExit
                0x0800a62c                HAL_PWR_EnableSEVOnPend
                0x0800a63c                HAL_PWR_DisableSEVOnPend
 .text          0x0800a64c      0x298 build/stm32f4_HAL/stm32f4xx_hal_pwr_ex.o
                0x0800a64c                HAL_PWREx_EnableBkUpReg
                0x0800a680                HAL_PWREx_DisableBkUpReg
                0x0800a6b4                HAL_PWREx_EnableFlashPowerDown
                0x0800a6c0                HAL_PWREx_DisableFlashPowerDown
                0x0800a6cc                HAL_PWREx_GetVoltageRange
                0x0800a6dc                HAL_PWREx_ControlVoltageScaling
                0x0800a78c                HAL_PWREx_EnableOverDrive
                0x0800a804                HAL_PWREx_DisableOverDrive
                0x0800a87c                HAL_PWREx_EnterUnderDriveSTOPMode
 .text          0x0800a8e4      0x2c8 build/stm32f4_HAL/stm32f4xx_hal_cortex.o
                0x0800a8e4                HAL_NVIC_SetPriorityGrouping
                0x0800a908                HAL_NVIC_SetPriority
                0x0800a96c                HAL_NVIC_EnableIRQ
                0x0800a988                HAL_NVIC_DisableIRQ
                0x0800a9b0                HAL_NVIC_SystemReset
                0x0800a9d4                HAL_SYSTICK_Config
                0x0800aa00                HAL_MPU_Disable
                0x0800aa20                HAL_MPU_Enable
                0x0800aa44                HAL_MPU_ConfigRegion
                0x0800aa94                HAL_NVIC_GetPriorityGrouping
                0x0800aaa4                HAL_NVIC_GetPriority
                0x0800ab00                HAL_NVIC_SetPendingIRQ
                0x0800ab20                HAL_NVIC_GetPendingIRQ
                0x0800ab44                HAL_NVIC_ClearPendingIRQ
                0x0800ab64                HAL_NVIC_GetActive
                0x0800ab88                HAL_SYSTICK_CLKSourceConfig
                0x0800aba0                HAL_SYSTICK_Callback
                0x0800aba2                HAL_SYSTICK_IRQHandler
 .text          0x0800abac     0x1820 build/stm32f4_HAL/stm32f4xx_hal_spi.o
                0x0800ad50                HAL_SPI_MspInit
                0x0800ad52                HAL_SPI_Init
                0x0800add6                HAL_SPI_MspDeInit
                0x0800add8                HAL_SPI_DeInit
                0x0800ae04                HAL_SPI_Transmit
                0x0800af7e                HAL_SPI_TransmitReceive
                0x0800b1fe                HAL_SPI_Receive
                0x0800b3be                HAL_SPI_Transmit_IT
                0x0800b464                HAL_SPI_TransmitReceive_IT
                0x0800b52c                HAL_SPI_Receive_IT
                0x0800b5f4                HAL_SPI_Transmit_DMA
                0x0800b6cc                HAL_SPI_TransmitReceive_DMA
                0x0800b7f0                HAL_SPI_Receive_DMA
                0x0800b8ec                HAL_SPI_Abort
                0x0800ba14                HAL_SPI_DMAPause
                0x0800ba34                HAL_SPI_DMAResume
                0x0800ba54                HAL_SPI_DMAStop
                0x0800ba9a                HAL_SPI_TxCpltCallback
                0x0800ba9c                HAL_SPI_RxCpltCallback
                0x0800ba9e                HAL_SPI_TxRxCpltCallback
                0x0800baa0                HAL_SPI_TxHalfCpltCallback
                0x0800baac                HAL_SPI_RxHalfCpltCallback
                0x0800bab8                HAL_SPI_TxRxHalfCpltCallback
                0x0800bac4                HAL_SPI_ErrorCallback
                0x0800c086                HAL_SPI_IRQHandler
                0x0800c1a0                HAL_SPI_AbortCpltCallback
                0x0800c1a2                HAL_SPI_Abort_IT
                0x0800c3c0                HAL_SPI_GetState
                0x0800c3c6                HAL_SPI_GetError
 .text          0x0800c3cc        0x0 build/stm32f4_HAL/stm32f4xx_hal_dac.o
 .text          0x0800c3cc        0x0 build/stm32f4_HAL/stm32f4xx_hal_dac_ex.o
 .text          0x0800c3cc        0x0 build/stm32f4_HAL/stm32f4xx_hal_can.o
 .text          0x0800c3cc        0x0 build/FreeRTOS/croutine.o
 .text          0x0800c3cc      0x274 build/FreeRTOS/event_groups.o
                0x0800c3cc                xEventGroupCreateStatic
                0x0800c3e4                xEventGroupCreate
                0x0800c400                xEventGroupWaitBits
                0x0800c4b8                xEventGroupClearBits
                0x0800c4d2                vEventGroupClearBitsCallback
                0x0800c4d6                xEventGroupClearBitsFromISR
                0x0800c4e8                xEventGroupGetBitsFromISR
                0x0800c504                xEventGroupSetBits
                0x0800c560                xEventGroupSync
                0x0800c5f4                vEventGroupSetBitsCallback
                0x0800c5f8                vEventGroupDelete
                0x0800c622                xEventGroupSetBitsFromISR
                0x0800c634                uxEventGroupGetNumber
                0x0800c63a                vEventGroupSetNumber
 .text          0x0800c640       0x82 build/FreeRTOS/list.o
                0x0800c640                vListInitialise
                0x0800c656                vListInitialiseItem
                0x0800c65c                vListInsertEnd
                0x0800c674                vListInsert
                0x0800c6a2                uxListRemove
 *fill*         0x0800c6c2        0x2 
 .text          0x0800c6c4      0x8fc build/FreeRTOS/queue.o
                0x0800c7e0                xQueueGenericReset
                0x0800c84c                xQueueGenericCreateStatic
                0x0800c878                xQueueGenericCreate
                0x0800c8b2                xQueueGetMutexHolder
                0x0800c8cc                xQueueGetMutexHolderFromISR
                0x0800c8d8                xQueueCreateCountingSemaphoreStatic
                0x0800c8f2                xQueueCreateCountingSemaphore
                0x0800c904                xQueueGenericSend
                0x0800ca08                xQueueCreateMutexStatic
                0x0800ca32                xQueueGiveMutexRecursive
                0x0800ca5a                xQueueCreateMutex
                0x0800ca7e                xQueueGenericSendFromISR
                0x0800cae8                xQueueGiveFromISR
                0x0800cb44                xQueueReceive
                0x0800cc34                xQueueSemaphoreTake
                0x0800cd5c                xQueueTakeMutexRecursive
                0x0800cd8c                xQueuePeek
                0x0800ce7c                xQueueReceiveFromISR
                0x0800cee4                xQueuePeekFromISR
                0x0800cf14                uxQueueMessagesWaiting
                0x0800cf2a                uxQueueSpacesAvailable
                0x0800cf44                uxQueueMessagesWaitingFromISR
                0x0800cf48                vQueueDelete
                0x0800cf54                uxQueueGetQueueNumber
                0x0800cf58                vQueueSetQueueNumber
                0x0800cf5c                ucQueueGetQueueType
                0x0800cf62                xQueueIsQueueEmptyFromISR
                0x0800cf6c                xQueueIsQueueFullFromISR
                0x0800cf78                vQueueWaitForMessageRestricted
 .text          0x0800cfc0     0x12d4 build/FreeRTOS/tasks.o
                0x0800d290                xTaskCreateStatic
                0x0800d2c4                xTaskCreate
                0x0800d320                vTaskDelete
                0x0800d3a4                eTaskGetState
                0x0800d40c                uxTaskPriorityGet
                0x0800d42c                uxTaskPriorityGetFromISR
                0x0800d454                vTaskPrioritySet
                0x0800d504                vTaskResume
                0x0800d588                xTaskResumeFromISR
                0x0800d610                vTaskStartScheduler
                0x0800d688                vTaskEndScheduler
                0x0800d6a8                vTaskSuspendAll
                0x0800d6bc                xTaskGetTickCount
                0x0800d6c8                xTaskGetTickCountFromISR
                0x0800d6d4                uxTaskGetNumberOfTasks
                0x0800d6e0                pcTaskGetName
                0x0800d6f0                xTaskIncrementTick
                0x0800d7d4                xTaskResumeAll
                0x0800d898                vTaskDelayUntil
                0x0800d8e8                vTaskDelay
                0x0800d918                xTaskCatchUpTicks
                0x0800d938                vTaskSwitchContext
                0x0800d99c                vTaskSuspend
                0x0800da2c                vTaskPlaceOnEventList
                0x0800da4c                vTaskPlaceOnUnorderedEventList
                0x0800da74                vTaskPlaceOnEventListRestricted
                0x0800da9c                xTaskRemoveFromEventList
                0x0800db04                vTaskRemoveFromUnorderedEventList
                0x0800db58                vTaskSetTimeOutState
                0x0800db7c                vTaskInternalSetTimeOutState
                0x0800db90                xTaskCheckForTimeOut
                0x0800dbe0                vTaskMissedYield
                0x0800dbf0                uxTaskGetTaskNumber
                0x0800dbf6                vTaskSetTaskNumber
                0x0800dbfc                vTaskGetInfo
                0x0800dcd6                uxTaskGetSystemState
                0x0800dd6c                uxTaskGetStackHighWaterMark
                0x0800dd8c                xTaskGetCurrentTaskHandle
                0x0800dd98                xTaskGetSchedulerState
                0x0800ddb8                xTaskPriorityInherit
                0x0800de38                xTaskPriorityDisinherit
                0x0800de94                vTaskPriorityDisinheritAfterTimeout
                0x0800df04                uxTaskResetEventItemValue
                0x0800df1c                pvTaskIncrementMutexHeldCount
                0x0800df34                ulTaskNotifyTake
                0x0800dfa0                xTaskNotifyWait
                0x0800e034                xTaskGenericNotify
                0x0800e0e4                xTaskGenericNotifyFromISR
                0x0800e1a4                vTaskNotifyGiveFromISR
                0x0800e234                xTaskNotifyStateClear
                0x0800e260                ulTaskNotifyValueClear
 .text          0x0800e294      0x49c build/FreeRTOS/timers.o
                0x0800e310                xTimerCreateTimerTask
                0x0800e360                xTimerCreate
                0x0800e3a6                xTimerCreateStatic
                0x0800e3e6                xTimerGenericCommand
                0x0800e638                xTimerGetTimerDaemonTaskHandle
                0x0800e644                xTimerGetPeriod
                0x0800e648                vTimerSetReloadMode
                0x0800e66e                uxTimerGetReloadMode
                0x0800e68a                xTimerGetExpiryTime
                0x0800e68e                pcTimerGetName
                0x0800e692                xTimerIsTimerActive
                0x0800e6ae                pvTimerGetTimerID
                0x0800e6c4                vTimerSetTimerID
                0x0800e6d8                xTimerPendFunctionCallFromISR
                0x0800e700                xTimerPendFunctionCall
                0x0800e728                uxTimerGetTimerNumber
                0x0800e72c                vTimerSetTimerNumber
 .text          0x0800e730      0x532 build/FreeRTOS/stream_buffer.o
                0x0800e7d0                xStreamBufferGenericCreate
                0x0800e80c                xStreamBufferGenericCreateStatic
                0x0800e84c                vStreamBufferDelete
                0x0800e85e                xStreamBufferReset
                0x0800e8a4                xStreamBufferSetTriggerLevel
                0x0800e8b8                xStreamBufferSpacesAvailable
                0x0800e8cc                xStreamBufferBytesAvailable
                0x0800e8ce                xStreamBufferSend
                0x0800e9ac                xStreamBufferSendFromISR
                0x0800ea40                xStreamBufferReceive
                0x0800eaf8                xStreamBufferNextMessageLengthBytes
                0x0800eb26                xStreamBufferReceiveFromISR
                0x0800ebba                xStreamBufferIsEmpty
                0x0800ebc6                xStreamBufferIsFull
                0x0800ebe2                xStreamBufferSendCompletedFromISR
                0x0800ec1a                xStreamBufferReceiveCompletedFromISR
                0x0800ec52                uxStreamBufferGetStreamBufferNumber
                0x0800ec56                vStreamBufferSetStreamBufferNumber
                0x0800ec5a                ucStreamBufferGetStreamBufferType
 *fill*         0x0800ec62        0x2 
 .text          0x0800ec64     0x1160 build/FreeRTOS/cmsis_os2.o
                0x0800eca2                SysTick_Handler
                0x0800ecc0                osKernelInitialize
                0x0800ecec                osKernelGetInfo
                0x0800ed18                osKernelGetState
                0x0800ed38                osKernelStart
                0x0800ed78                osKernelLock
                0x0800eda4                osKernelUnlock
                0x0800eddc                osKernelRestoreLock
                0x0800ee20                osKernelGetTickCount
                0x0800ee38                osKernelGetTickFreq
                0x0800ee3e                osKernelGetSysTimerCount
                0x0800ee7e                osKernelGetSysTimerFreq
                0x0800ee88                osThreadNew
                0x0800ef26                osThreadGetName
                0x0800ef40                osThreadGetId
                0x0800ef44                osThreadGetState
                0x0800ef6c                osThreadGetStackSpace
                0x0800ef86                osThreadSetPriority
                0x0800efb4                osThreadGetPriority
                0x0800efd0                osThreadYield
                0x0800eff4                osThreadSuspend
                0x0800f018                osThreadResume
                0x0800f03c                osThreadExit
                0x0800f046                osThreadTerminate
                0x0800f07a                osThreadGetCount
                0x0800f08e                osThreadEnumerate
                0x0800f0f8                osThreadFlagsSet
                0x0800f178                osThreadFlagsClear
                0x0800f1c8                osThreadFlagsGet
                0x0800f1f6                osThreadFlagsWait
                0x0800f290                osDelay
                0x0800f2ae                osDelayUntil
                0x0800f2de                osTimerNew
                0x0800f35c                osTimerGetName
                0x0800f376                osTimerStart
                0x0800f3ac                osTimerStop
                0x0800f3ee                osTimerIsRunning
                0x0800f408                osTimerDelete
                0x0800f44e                osEventFlagsNew
                0x0800f47a                osEventFlagsSet
                0x0800f4d4                osEventFlagsClear
                0x0800f51a                osEventFlagsGet
                0x0800f53c                osEventFlagsWait
                0x0800f5a0                osEventFlagsDelete
                0x0800f5c4                osMutexNew
                0x0800f61e                osMutexAcquire
                0x0800f664                osMutexRelease
                0x0800f6a4                osMutexGetOwner
                0x0800f6c0                osMutexDelete
                0x0800f6e6                osSemaphoreNew
                0x0800f774                osSemaphoreAcquire
                0x0800f7d8                osSemaphoreRelease
                0x0800f830                osSemaphoreGetCount
                0x0800f852                osSemaphoreDelete
                0x0800f876                osMessageQueueNew
                0x0800f8da                osMessageQueuePut
                0x0800f948                osMessageQueueGet
                0x0800f9b4                osMessageQueueGetCapacity
                0x0800f9ba                osMessageQueueGetMsgSize
                0x0800f9c0                osMessageQueueGetCount
                0x0800f9c4                osMessageQueueGetSpace
                0x0800f9fa                osMessageQueueReset
                0x0800fa20                osMessageQueueDelete
                0x0800fa24                osMemoryPoolNew
                0x0800fb18                osMemoryPoolGetName
                0x0800fb2e                osMemoryPoolAlloc
                0x0800fbe4                osMemoryPoolFree
                0x0800fca0                osMemoryPoolGetCapacity
                0x0800fcb8                osMemoryPoolGetBlockSize
                0x0800fcd0                osMemoryPoolGetCount
                0x0800fd00                osMemoryPoolGetSpace
                0x0800fd30                osMemoryPoolDelete
                0x0800fd8c                vApplicationGetIdleTaskMemory
                0x0800fda8                vApplicationGetTimerTaskMemory
 .text          0x0800fdc4        0x2 build/FreeRTOS/clib_arm.o
                0x0800fdc4                software_init_hook
 *fill*         0x0800fdc6        0x2 
 .text          0x0800fdc8       0xe0 build/FreeRTOS/os_systick.o
                0x0800fdc8                OS_Tick_Setup
                0x0800fe08                OS_Tick_Enable
                0x0800fe34                OS_Tick_Disable
                0x0800fe60                OS_Tick_AcknowledgeIRQ
                0x0800fe6c                OS_Tick_GetIRQn
                0x0800fe72                OS_Tick_GetClock
                0x0800fe7c                OS_Tick_GetInterval
                0x0800fe88                OS_Tick_GetCount
                0x0800fe98                OS_Tick_GetOverflow
 .text          0x0800fea8       0x8c build/FreeRTOS/heap_useNewlib.o
                0x0800fea8                sbrk
                0x0800fef8                _sbrk
                0x0800fefc                __malloc_lock
                0x0800ff00                __malloc_unlock
                0x0800ff04                __env_lock
                0x0800ff08                __env_unlock
                0x0800ff0c                pvPortMalloc
                0x0800ff10                vPortFree
                0x0800ff14                xPortGetFreeHeapSize
                0x0800ff30                vPortInitialiseBlocks
 *fill*         0x0800ff34        0xc 
 .text          0x0800ff40      0x1f8 build/FreeRTOS/port.o
                0x0800ff90                pxPortInitialiseStack
                0x0800ffbc                SVC_Handler
                0x0800ffe4                vPortEndScheduler
                0x0800ffe6                vPortEnterCritical
                0x08010004                vPortExitCritical
                0x08010018                PendSV_Handler
                0x08010084                xPortSysTickHandler
                0x080100b4                vPortSetupTimerInterrupt
                0x080100e8                xPortStartScheduler
 .text          0x08010138      0x254 d:/mcha3500_windows_toolchain/toolchain/gcc-arm-none-eabi/bin/../lib/gcc/arm-none-eabi/9.2.1/thumb/v7e-m+fp/hard\libgcc.a(_arm_muldf3.o)
 .text          0x0801038c      0x378 d:/mcha3500_windows_toolchain/toolchain/gcc-arm-none-eabi/bin/../lib/gcc/arm-none-eabi/9.2.1/thumb/v7e-m+fp/hard\libgcc.a(_arm_addsubdf3.o)
                0x0801038c                __aeabi_drsub
                0x08010394                __aeabi_dsub
                0x08010394                __subdf3
                0x08010398                __aeabi_dadd
                0x08010398                __adddf3
                0x08010610                __floatunsidf
                0x08010610                __aeabi_ui2d
                0x08010630                __floatsidf
                0x08010630                __aeabi_i2d
                0x08010654                __aeabi_f2d
                0x08010654                __extendsfdf2
                0x08010698                __floatundidf
                0x08010698                __aeabi_ul2d
                0x080106a8                __floatdidf
                0x080106a8                __aeabi_l2d
 .text          0x08010704       0xa0 d:/mcha3500_windows_toolchain/toolchain/gcc-arm-none-eabi/bin/../lib/gcc/arm-none-eabi/9.2.1/thumb/v7e-m+fp/hard\libgcc.a(_arm_truncdfsf2.o)
                0x08010704                __truncdfsf2
                0x08010704                __aeabi_d2f
 .text          0x080107a4       0xa0 d:/mcha3500_windows_toolchain/toolchain/gcc-arm-none-eabi/bin/../lib/gcc/arm-none-eabi/9.2.1/thumb/v7e-m+fp/hard\libgcc.a(_aeabi_ldivmod.o)
                0x080107a4                __aeabi_ldivmod
 .text          0x08010844       0x30 d:/mcha3500_windows_toolchain/toolchain/gcc-arm-none-eabi/bin/../lib/gcc/arm-none-eabi/9.2.1/thumb/v7e-m+fp/hard\libgcc.a(_aeabi_uldivmod.o)
                0x08010844                __aeabi_uldivmod
 .text          0x08010874      0x2c4 d:/mcha3500_windows_toolchain/toolchain/gcc-arm-none-eabi/bin/../lib/gcc/arm-none-eabi/9.2.1/thumb/v7e-m+fp/hard\libgcc.a(_udivmoddi4.o)
                0x08010874                __udivmoddi4
 .text          0x08010b38        0x4 d:/mcha3500_windows_toolchain/toolchain/gcc-arm-none-eabi/bin/../lib/gcc/arm-none-eabi/9.2.1/thumb/v7e-m+fp/hard\libgcc.a(_dvmd_tls.o)
                0x08010b38                __aeabi_idiv0
                0x08010b38                __aeabi_ldiv0
 .text          0x08010b3c        0x0 d:/mcha3500_windows_toolchain/toolchain/gcc-arm-none-eabi/bin/../lib/gcc/arm-none-eabi/9.2.1/../../../../arm-none-eabi/lib/thumb/v7e-m+fp/hard\libc_nano.a(lib_a-ctype_.o)
 .text          0x08010b3c        0x0 d:/mcha3500_windows_toolchain/toolchain/gcc-arm-none-eabi/bin/../lib/gcc/arm-none-eabi/9.2.1/../../../../arm-none-eabi/lib/thumb/v7e-m+fp/hard\libc_nano.a(lib_a-exit.o)
 .text          0x08010b3c        0x0 d:/mcha3500_windows_toolchain/toolchain/gcc-arm-none-eabi/bin/../lib/gcc/arm-none-eabi/9.2.1/../../../../arm-none-eabi/lib/thumb/v7e-m+fp/hard\libc_nano.a(lib_a-getchar.o)
 .text          0x08010b3c        0x0 d:/mcha3500_windows_toolchain/toolchain/gcc-arm-none-eabi/bin/../lib/gcc/arm-none-eabi/9.2.1/../../../../arm-none-eabi/lib/thumb/v7e-m+fp/hard\libc_nano.a(lib_a-impure.o)
 .text          0x08010b3c        0x0 d:/mcha3500_windows_toolchain/toolchain/gcc-arm-none-eabi/bin/../lib/gcc/arm-none-eabi/9.2.1/../../../../arm-none-eabi/lib/thumb/v7e-m+fp/hard\libc_nano.a(lib_a-init.o)
 .text          0x08010b3c        0x0 d:/mcha3500_windows_toolchain/toolchain/gcc-arm-none-eabi/bin/../lib/gcc/arm-none-eabi/9.2.1/../../../../arm-none-eabi/lib/thumb/v7e-m+fp/hard\libc_nano.a(lib_a-malloc.o)
 .text          0x08010b3c        0x0 d:/mcha3500_windows_toolchain/toolchain/gcc-arm-none-eabi/bin/../lib/gcc/arm-none-eabi/9.2.1/../../../../arm-none-eabi/lib/thumb/v7e-m+fp/hard\libc_nano.a(lib_a-memcpy-stub.o)
 .text          0x08010b3c        0x0 d:/mcha3500_windows_toolchain/toolchain/gcc-arm-none-eabi/bin/../lib/gcc/arm-none-eabi/9.2.1/../../../../arm-none-eabi/lib/thumb/v7e-m+fp/hard\libc_nano.a(lib_a-memset.o)
 .text          0x08010b3c        0x0 d:/mcha3500_windows_toolchain/toolchain/gcc-arm-none-eabi/bin/../lib/gcc/arm-none-eabi/9.2.1/../../../../arm-none-eabi/lib/thumb/v7e-m+fp/hard\libc_nano.a(lib_a-mstats.o)
 .text          0x08010b3c        0x0 d:/mcha3500_windows_toolchain/toolchain/gcc-arm-none-eabi/bin/../lib/gcc/arm-none-eabi/9.2.1/../../../../arm-none-eabi/lib/thumb/v7e-m+fp/hard\libc_nano.a(lib_a-nano-freer.o)
 .text          0x08010b3c        0x0 d:/mcha3500_windows_toolchain/toolchain/gcc-arm-none-eabi/bin/../lib/gcc/arm-none-eabi/9.2.1/../../../../arm-none-eabi/lib/thumb/v7e-m+fp/hard\libc_nano.a(lib_a-nano-mallinfor.o)
 .text          0x08010b3c        0x0 d:/mcha3500_windows_toolchain/toolchain/gcc-arm-none-eabi/bin/../lib/gcc/arm-none-eabi/9.2.1/../../../../arm-none-eabi/lib/thumb/v7e-m+fp/hard\libc_nano.a(lib_a-nano-mallocr.o)
 .text          0x08010b3c        0x0 d:/mcha3500_windows_toolchain/toolchain/gcc-arm-none-eabi/bin/../lib/gcc/arm-none-eabi/9.2.1/../../../../arm-none-eabi/lib/thumb/v7e-m+fp/hard\libc_nano.a(lib_a-nano-malloptr.o)
 .text          0x08010b3c        0x0 d:/mcha3500_windows_toolchain/toolchain/gcc-arm-none-eabi/bin/../lib/gcc/arm-none-eabi/9.2.1/../../../../arm-none-eabi/lib/thumb/v7e-m+fp/hard\libc_nano.a(lib_a-nano-mallstatsr.o)
 .text          0x08010b3c        0x0 d:/mcha3500_windows_toolchain/toolchain/gcc-arm-none-eabi/bin/../lib/gcc/arm-none-eabi/9.2.1/../../../../arm-none-eabi/lib/thumb/v7e-m+fp/hard\libc_nano.a(lib_a-nano-vfprintf_float.o)
 .text          0x08010b3c        0x0 d:/mcha3500_windows_toolchain/toolchain/gcc-arm-none-eabi/bin/../lib/gcc/arm-none-eabi/9.2.1/../../../../arm-none-eabi/lib/thumb/v7e-m+fp/hard\libc_nano.a(lib_a-nano-vfprintf_i.o)
 .text          0x08010b3c        0x0 d:/mcha3500_windows_toolchain/toolchain/gcc-arm-none-eabi/bin/../lib/gcc/arm-none-eabi/9.2.1/../../../../arm-none-eabi/lib/thumb/v7e-m+fp/hard\libc_nano.a(lib_a-nano-vfscanf_float.o)
 .text          0x08010b3c        0x0 d:/mcha3500_windows_toolchain/toolchain/gcc-arm-none-eabi/bin/../lib/gcc/arm-none-eabi/9.2.1/../../../../arm-none-eabi/lib/thumb/v7e-m+fp/hard\libc_nano.a(lib_a-printf.o)
 .text          0x08010b3c        0x0 d:/mcha3500_windows_toolchain/toolchain/gcc-arm-none-eabi/bin/../lib/gcc/arm-none-eabi/9.2.1/../../../../arm-none-eabi/lib/thumb/v7e-m+fp/hard\libc_nano.a(lib_a-reent.o)
 .text          0x08010b3c        0x0 d:/mcha3500_windows_toolchain/toolchain/gcc-arm-none-eabi/bin/../lib/gcc/arm-none-eabi/9.2.1/../../../../arm-none-eabi/lib/thumb/v7e-m+fp/hard\libc_nano.a(lib_a-sbrkr.o)
 .text          0x08010b3c        0x0 d:/mcha3500_windows_toolchain/toolchain/gcc-arm-none-eabi/bin/../lib/gcc/arm-none-eabi/9.2.1/../../../../arm-none-eabi/lib/thumb/v7e-m+fp/hard\libc_nano.a(lib_a-setvbuf.o)
 .text          0x08010b3c        0x0 d:/mcha3500_windows_toolchain/toolchain/gcc-arm-none-eabi/bin/../lib/gcc/arm-none-eabi/9.2.1/../../../../arm-none-eabi/lib/thumb/v7e-m+fp/hard\libc_nano.a(lib_a-sf_nan.o)
 .text          0x08010b3c        0x0 d:/mcha3500_windows_toolchain/toolchain/gcc-arm-none-eabi/bin/../lib/gcc/arm-none-eabi/9.2.1/../../../../arm-none-eabi/lib/thumb/v7e-m+fp/hard\libc_nano.a(lib_a-sprintf.o)
 .text          0x08010b3c       0x14 d:/mcha3500_windows_toolchain/toolchain/gcc-arm-none-eabi/bin/../lib/gcc/arm-none-eabi/9.2.1/../../../../arm-none-eabi/lib/thumb/v7e-m+fp/hard\libc_nano.a(lib_a-strcmp.o)
                0x08010b3c                strcmp
 .text          0x08010b50       0x10 d:/mcha3500_windows_toolchain/toolchain/gcc-arm-none-eabi/bin/../lib/gcc/arm-none-eabi/9.2.1/../../../../arm-none-eabi/lib/thumb/v7e-m+fp/hard\libc_nano.a(lib_a-strlen.o)
                0x08010b50                strlen
 .text          0x08010b60        0x0 d:/mcha3500_windows_toolchain/toolchain/gcc-arm-none-eabi/bin/../lib/gcc/arm-none-eabi/9.2.1/../../../../arm-none-eabi/lib/thumb/v7e-m+fp/hard\libc_nano.a(lib_a-strtod.o)
 .text          0x08010b60        0x0 d:/mcha3500_windows_toolchain/toolchain/gcc-arm-none-eabi/bin/../lib/gcc/arm-none-eabi/9.2.1/../../../../arm-none-eabi/lib/thumb/v7e-m+fp/hard\libc_nano.a(lib_a-strtol.o)
 .text          0x08010b60        0x0 d:/mcha3500_windows_toolchain/toolchain/gcc-arm-none-eabi/bin/../lib/gcc/arm-none-eabi/9.2.1/../../../../arm-none-eabi/lib/thumb/v7e-m+fp/hard\libc_nano.a(lib_a-vprintf.o)
 .text          0x08010b60        0x0 d:/mcha3500_windows_toolchain/toolchain/gcc-arm-none-eabi/bin/../lib/gcc/arm-none-eabi/9.2.1/../../../../arm-none-eabi/lib/thumb/v7e-m+fp/hard\libc_nano.a(lib_a-dtoa.o)
 .text          0x08010b60        0x0 d:/mcha3500_windows_toolchain/toolchain/gcc-arm-none-eabi/bin/../lib/gcc/arm-none-eabi/9.2.1/../../../../arm-none-eabi/lib/thumb/v7e-m+fp/hard\libc_nano.a(lib_a-fflush.o)
 .text          0x08010b60        0x0 d:/mcha3500_windows_toolchain/toolchain/gcc-arm-none-eabi/bin/../lib/gcc/arm-none-eabi/9.2.1/../../../../arm-none-eabi/lib/thumb/v7e-m+fp/hard\libc_nano.a(lib_a-findfp.o)
 .text          0x08010b60        0x0 d:/mcha3500_windows_toolchain/toolchain/gcc-arm-none-eabi/bin/../lib/gcc/arm-none-eabi/9.2.1/../../../../arm-none-eabi/lib/thumb/v7e-m+fp/hard\libc_nano.a(lib_a-fprintf.o)
 .text          0x08010b60        0x0 d:/mcha3500_windows_toolchain/toolchain/gcc-arm-none-eabi/bin/../lib/gcc/arm-none-eabi/9.2.1/../../../../arm-none-eabi/lib/thumb/v7e-m+fp/hard\libc_nano.a(lib_a-fwalk.o)
 .text          0x08010b60        0x0 d:/mcha3500_windows_toolchain/toolchain/gcc-arm-none-eabi/bin/../lib/gcc/arm-none-eabi/9.2.1/../../../../arm-none-eabi/lib/thumb/v7e-m+fp/hard\libc_nano.a(lib_a-gdtoa-gethex.o)
 .text          0x08010b60        0x0 d:/mcha3500_windows_toolchain/toolchain/gcc-arm-none-eabi/bin/../lib/gcc/arm-none-eabi/9.2.1/../../../../arm-none-eabi/lib/thumb/v7e-m+fp/hard\libc_nano.a(lib_a-gdtoa-hexnan.o)
 .text          0x08010b60        0x0 d:/mcha3500_windows_toolchain/toolchain/gcc-arm-none-eabi/bin/../lib/gcc/arm-none-eabi/9.2.1/../../../../arm-none-eabi/lib/thumb/v7e-m+fp/hard\libc_nano.a(lib_a-getc.o)
 .text          0x08010b60        0x0 d:/mcha3500_windows_toolchain/toolchain/gcc-arm-none-eabi/bin/../lib/gcc/arm-none-eabi/9.2.1/../../../../arm-none-eabi/lib/thumb/v7e-m+fp/hard\libc_nano.a(lib_a-lnumeric.o)
 .text          0x08010b60        0x0 d:/mcha3500_windows_toolchain/toolchain/gcc-arm-none-eabi/bin/../lib/gcc/arm-none-eabi/9.2.1/../../../../arm-none-eabi/lib/thumb/v7e-m+fp/hard\libc_nano.a(lib_a-locale.o)
 .text          0x08010b60        0x0 d:/mcha3500_windows_toolchain/toolchain/gcc-arm-none-eabi/bin/../lib/gcc/arm-none-eabi/9.2.1/../../../../arm-none-eabi/lib/thumb/v7e-m+fp/hard\libc_nano.a(lib_a-localeconv.o)
 .text          0x08010b60        0x0 d:/mcha3500_windows_toolchain/toolchain/gcc-arm-none-eabi/bin/../lib/gcc/arm-none-eabi/9.2.1/../../../../arm-none-eabi/lib/thumb/v7e-m+fp/hard\libc_nano.a(lib_a-lock.o)
 .text          0x08010b60        0x0 d:/mcha3500_windows_toolchain/toolchain/gcc-arm-none-eabi/bin/../lib/gcc/arm-none-eabi/9.2.1/../../../../arm-none-eabi/lib/thumb/v7e-m+fp/hard\libc_nano.a(lib_a-makebuf.o)
 .text          0x08010b60        0x0 d:/mcha3500_windows_toolchain/toolchain/gcc-arm-none-eabi/bin/../lib/gcc/arm-none-eabi/9.2.1/../../../../arm-none-eabi/lib/thumb/v7e-m+fp/hard\libc_nano.a(lib_a-mbtowc_r.o)
 .text          0x08010b60       0xa0 d:/mcha3500_windows_toolchain/toolchain/gcc-arm-none-eabi/bin/../lib/gcc/arm-none-eabi/9.2.1/../../../../arm-none-eabi/lib/thumb/v7e-m+fp/hard\libc_nano.a(lib_a-memchr.o)
                0x08010b60                memchr
 .text          0x08010c00        0x0 d:/mcha3500_windows_toolchain/toolchain/gcc-arm-none-eabi/bin/../lib/gcc/arm-none-eabi/9.2.1/../../../../arm-none-eabi/lib/thumb/v7e-m+fp/hard\libc_nano.a(lib_a-mprec.o)
 .text          0x08010c00        0x0 d:/mcha3500_windows_toolchain/toolchain/gcc-arm-none-eabi/bin/../lib/gcc/arm-none-eabi/9.2.1/../../../../arm-none-eabi/lib/thumb/v7e-m+fp/hard\libc_nano.a(lib_a-nano-callocr.o)
 .text          0x08010c00        0x0 d:/mcha3500_windows_toolchain/toolchain/gcc-arm-none-eabi/bin/../lib/gcc/arm-none-eabi/9.2.1/../../../../arm-none-eabi/lib/thumb/v7e-m+fp/hard\libc_nano.a(lib_a-nano-svfprintf.o)
 .text          0x08010c00        0x0 d:/mcha3500_windows_toolchain/toolchain/gcc-arm-none-eabi/bin/../lib/gcc/arm-none-eabi/9.2.1/../../../../arm-none-eabi/lib/thumb/v7e-m+fp/hard\libc_nano.a(lib_a-nano-vfprintf.o)
 .text          0x08010c00        0x0 d:/mcha3500_windows_toolchain/toolchain/gcc-arm-none-eabi/bin/../lib/gcc/arm-none-eabi/9.2.1/../../../../arm-none-eabi/lib/thumb/v7e-m+fp/hard\libc_nano.a(lib_a-rget.o)
 .text          0x08010c00        0x0 d:/mcha3500_windows_toolchain/toolchain/gcc-arm-none-eabi/bin/../lib/gcc/arm-none-eabi/9.2.1/../../../../arm-none-eabi/lib/thumb/v7e-m+fp/hard\libc_nano.a(lib_a-s_nan.o)
 .text          0x08010c00        0x0 d:/mcha3500_windows_toolchain/toolchain/gcc-arm-none-eabi/bin/../lib/gcc/arm-none-eabi/9.2.1/../../../../arm-none-eabi/lib/thumb/v7e-m+fp/hard\libc_nano.a(lib_a-stdio.o)
 .text          0x08010c00        0x0 d:/mcha3500_windows_toolchain/toolchain/gcc-arm-none-eabi/bin/../lib/gcc/arm-none-eabi/9.2.1/../../../../arm-none-eabi/lib/thumb/v7e-m+fp/hard\libc_nano.a(lib_a-strncmp.o)
 .text          0x08010c00        0x0 d:/mcha3500_windows_toolchain/toolchain/gcc-arm-none-eabi/bin/../lib/gcc/arm-none-eabi/9.2.1/../../../../arm-none-eabi/lib/thumb/v7e-m+fp/hard\libc_nano.a(lib_a-wbuf.o)
 .text          0x08010c00        0x0 d:/mcha3500_windows_toolchain/toolchain/gcc-arm-none-eabi/bin/../lib/gcc/arm-none-eabi/9.2.1/../../../../arm-none-eabi/lib/thumb/v7e-m+fp/hard\libc_nano.a(lib_a-wctomb_r.o)
 .text          0x08010c00        0x0 d:/mcha3500_windows_toolchain/toolchain/gcc-arm-none-eabi/bin/../lib/gcc/arm-none-eabi/9.2.1/../../../../arm-none-eabi/lib/thumb/v7e-m+fp/hard\libc_nano.a(lib_a-writer.o)
 .text          0x08010c00        0x0 d:/mcha3500_windows_toolchain/toolchain/gcc-arm-none-eabi/bin/../lib/gcc/arm-none-eabi/9.2.1/../../../../arm-none-eabi/lib/thumb/v7e-m+fp/hard\libc_nano.a(lib_a-wsetup.o)
 .text          0x08010c00        0x0 d:/mcha3500_windows_toolchain/toolchain/gcc-arm-none-eabi/bin/../lib/gcc/arm-none-eabi/9.2.1/../../../../arm-none-eabi/lib/thumb/v7e-m+fp/hard\libc_nano.a(lib_a-closer.o)
 .text          0x08010c00        0x0 d:/mcha3500_windows_toolchain/toolchain/gcc-arm-none-eabi/bin/../lib/gcc/arm-none-eabi/9.2.1/../../../../arm-none-eabi/lib/thumb/v7e-m+fp/hard\libc_nano.a(lib_a-fstatr.o)
 .text          0x08010c00        0x0 d:/mcha3500_windows_toolchain/toolchain/gcc-arm-none-eabi/bin/../lib/gcc/arm-none-eabi/9.2.1/../../../../arm-none-eabi/lib/thumb/v7e-m+fp/hard\libc_nano.a(lib_a-fvwrite.o)
 .text          0x08010c00        0x0 d:/mcha3500_windows_toolchain/toolchain/gcc-arm-none-eabi/bin/../lib/gcc/arm-none-eabi/9.2.1/../../../../arm-none-eabi/lib/thumb/v7e-m+fp/hard\libc_nano.a(lib_a-isattyr.o)
 .text          0x08010c00        0x0 d:/mcha3500_windows_toolchain/toolchain/gcc-arm-none-eabi/bin/../lib/gcc/arm-none-eabi/9.2.1/../../../../arm-none-eabi/lib/thumb/v7e-m+fp/hard\libc_nano.a(lib_a-lseekr.o)
 .text          0x08010c00        0x0 d:/mcha3500_windows_toolchain/toolchain/gcc-arm-none-eabi/bin/../lib/gcc/arm-none-eabi/9.2.1/../../../../arm-none-eabi/lib/thumb/v7e-m+fp/hard\libc_nano.a(lib_a-memmove.o)
 .text          0x08010c00        0x0 d:/mcha3500_windows_toolchain/toolchain/gcc-arm-none-eabi/bin/../lib/gcc/arm-none-eabi/9.2.1/../../../../arm-none-eabi/lib/thumb/v7e-m+fp/hard\libc_nano.a(lib_a-nano-reallocr.o)
 .text          0x08010c00        0x0 d:/mcha3500_windows_toolchain/toolchain/gcc-arm-none-eabi/bin/../lib/gcc/arm-none-eabi/9.2.1/../../../../arm-none-eabi/lib/thumb/v7e-m+fp/hard\libc_nano.a(lib_a-readr.o)
 .text          0x08010c00        0x0 d:/mcha3500_windows_toolchain/toolchain/gcc-arm-none-eabi/bin/../lib/gcc/arm-none-eabi/9.2.1/../../../../arm-none-eabi/lib/thumb/v7e-m+fp/hard\libc_nano.a(lib_a-refill.o)
 .text          0x08010c00        0x0 d:/mcha3500_windows_toolchain/toolchain/gcc-arm-none-eabi/bin/../lib/gcc/arm-none-eabi/9.2.1/../../../../arm-none-eabi/lib/thumb/v7e-m+fp/hard\libc_nano.a(lib_a-nano-msizer.o)
 .text          0x08010c00      0x424 d:/mcha3500_windows_toolchain/toolchain/gcc-arm-none-eabi/bin/../lib/gcc/arm-none-eabi/9.2.1/thumb/v7e-m+fp/hard\libgcc.a(_arm_muldivdf3.o)
                0x08010c00                __aeabi_dmul
                0x08010c00                __muldf3
                0x08010e54                __divdf3
                0x08010e54                __aeabi_ddiv
 .text          0x08011024      0x110 d:/mcha3500_windows_toolchain/toolchain/gcc-arm-none-eabi/bin/../lib/gcc/arm-none-eabi/9.2.1/thumb/v7e-m+fp/hard\libgcc.a(_arm_cmpdf2.o)
                0x08011024                __gtdf2
                0x08011024                __gedf2
                0x0801102c                __ltdf2
                0x0801102c                __ledf2
                0x08011034                __nedf2
                0x08011034                __eqdf2
                0x08011034                __cmpdf2
                0x080110b0                __aeabi_cdrcmple
                0x080110c0                __aeabi_cdcmpeq
                0x080110c0                __aeabi_cdcmple
                0x080110d0                __aeabi_dcmpeq
                0x080110e4                __aeabi_dcmplt
                0x080110f8                __aeabi_dcmple
                0x0801110c                __aeabi_dcmpge
                0x08011120                __aeabi_dcmpgt
 .text          0x08011134       0x2c d:/mcha3500_windows_toolchain/toolchain/gcc-arm-none-eabi/bin/../lib/gcc/arm-none-eabi/9.2.1/thumb/v7e-m+fp/hard\libgcc.a(_arm_unorddf2.o)
                0x08011134                __unorddf2
                0x08011134                __aeabi_dcmpun
 .text          0x08011160       0x50 d:/mcha3500_windows_toolchain/toolchain/gcc-arm-none-eabi/bin/../lib/gcc/arm-none-eabi/9.2.1/thumb/v7e-m+fp/hard\libgcc.a(_arm_fixdfsi.o)
                0x08011160                __aeabi_d2iz
                0x08011160                __fixdfsi
 .text          0x080111b0       0x40 d:/mcha3500_windows_toolchain/toolchain/gcc-arm-none-eabi/bin/../lib/gcc/arm-none-eabi/9.2.1/thumb/v7e-m+fp/hard\libgcc.a(_arm_fixunsdfsi.o)
                0x080111b0                __aeabi_d2uiz
                0x080111b0                __fixunsdfsi
 .text          0x080111f0       0x30 d:/mcha3500_windows_toolchain/toolchain/gcc-arm-none-eabi/bin/../lib/gcc/arm-none-eabi/9.2.1/thumb/v7e-m+fp/hard\libgcc.a(_fixdfdi.o)
                0x080111f0                __fixdfdi
                0x080111f0                __aeabi_d2lz
 .text          0x08011220       0x3c d:/mcha3500_windows_toolchain/toolchain/gcc-arm-none-eabi/bin/../lib/gcc/arm-none-eabi/9.2.1/thumb/v7e-m+fp/hard\libgcc.a(_fixunsdfdi.o)
                0x08011220                __fixunsdfdi
                0x08011220                __aeabi_d2ulz
 .text          0x0801125c        0x0 d:/mcha3500_windows_toolchain/toolchain/gcc-arm-none-eabi/bin/../lib/gcc/arm-none-eabi/9.2.1/../../../../arm-none-eabi/lib/thumb/v7e-m+fp/hard\libnosys.a(close.o)
 .text          0x0801125c        0x0 d:/mcha3500_windows_toolchain/toolchain/gcc-arm-none-eabi/bin/../lib/gcc/arm-none-eabi/9.2.1/../../../../arm-none-eabi/lib/thumb/v7e-m+fp/hard\libnosys.a(fstat.o)
 .text          0x0801125c        0x0 d:/mcha3500_windows_toolchain/toolchain/gcc-arm-none-eabi/bin/../lib/gcc/arm-none-eabi/9.2.1/../../../../arm-none-eabi/lib/thumb/v7e-m+fp/hard\libnosys.a(isatty.o)
 .text          0x0801125c        0x0 d:/mcha3500_windows_toolchain/toolchain/gcc-arm-none-eabi/bin/../lib/gcc/arm-none-eabi/9.2.1/../../../../arm-none-eabi/lib/thumb/v7e-m+fp/hard\libnosys.a(lseek.o)
 .text          0x0801125c        0x0 d:/mcha3500_windows_toolchain/toolchain/gcc-arm-none-eabi/bin/../lib/gcc/arm-none-eabi/9.2.1/../../../../arm-none-eabi/lib/thumb/v7e-m+fp/hard\libnosys.a(_exit.o)
 .text          0x0801125c        0x0 d:/mcha3500_windows_toolchain/toolchain/gcc-arm-none-eabi/bin/../lib/gcc/arm-none-eabi/9.2.1/thumb/v7e-m+fp/hard/crtend.o
 .text          0x0801125c        0x0 d:/mcha3500_windows_toolchain/toolchain/gcc-arm-none-eabi/bin/../lib/gcc/arm-none-eabi/9.2.1/thumb/v7e-m+fp/hard/crtn.o
 *(.text*)
 .text.startup  0x0801125c       0xb4 build/main.o
                0x0801125c                main
 .text.Reset_Handler
                0x08011310       0x50 build/startup_stm32f446xx.o
                0x08011310                Reset_Handler
 .text.Default_Handler
                0x08011360        0x2 build/startup_stm32f446xx.o
                0x08011360                RTC_Alarm_IRQHandler
                0x08011360                EXTI2_IRQHandler
                0x08011360                TIM8_CC_IRQHandler
                0x08011360                SPI4_IRQHandler
                0x08011360                TIM1_CC_IRQHandler
                0x08011360                DMA2_Stream5_IRQHandler
                0x08011360                DMA1_Stream5_IRQHandler
                0x08011360                PVD_IRQHandler
                0x08011360                SDIO_IRQHandler
                0x08011360                TAMP_STAMP_IRQHandler
                0x08011360                CAN2_RX1_IRQHandler
                0x08011360                EXTI3_IRQHandler
                0x08011360                TIM8_TRG_COM_TIM14_IRQHandler
                0x08011360                TIM1_UP_TIM10_IRQHandler
                0x08011360                TIM8_UP_TIM13_IRQHandler
                0x08011360                I2C3_ER_IRQHandler
                0x08011360                FMPI2C1_Event_IRQHandler
                0x08011360                I2C2_EV_IRQHandler
                0x08011360                DMA1_Stream2_IRQHandler
                0x08011360                CAN1_RX0_IRQHandler
                0x08011360                FPU_IRQHandler
                0x08011360                OTG_HS_WKUP_IRQHandler
                0x08011360                CAN2_SCE_IRQHandler
                0x08011360                DMA2_Stream2_IRQHandler
                0x08011360                SPI1_IRQHandler
                0x08011360                TIM6_DAC_IRQHandler
                0x08011360                TIM1_BRK_TIM9_IRQHandler
                0x08011360                DCMI_IRQHandler
                0x08011360                CAN2_RX0_IRQHandler
                0x08011360                DMA2_Stream3_IRQHandler
                0x08011360                SAI2_IRQHandler
                0x08011360                USART6_IRQHandler
                0x08011360                USART3_IRQHandler
                0x08011360                CAN1_RX1_IRQHandler
                0x08011360                UART5_IRQHandler
                0x08011360                DMA2_Stream0_IRQHandler
                0x08011360                TIM4_IRQHandler
                0x08011360                QUADSPI_IRQHandler
                0x08011360                I2C1_EV_IRQHandler
                0x08011360                DMA1_Stream6_IRQHandler
                0x08011360                DMA1_Stream1_IRQHandler
                0x08011360                UART4_IRQHandler
                0x08011360                TIM3_IRQHandler
                0x08011360                RCC_IRQHandler
                0x08011360                TIM8_BRK_TIM12_IRQHandler
                0x08011360                Default_Handler
                0x08011360                CEC_IRQHandler
                0x08011360                EXTI15_10_IRQHandler
                0x08011360                ADC_IRQHandler
                0x08011360                DMA1_Stream7_IRQHandler
                0x08011360                TIM7_IRQHandler
                0x08011360                CAN2_TX_IRQHandler
                0x08011360                TIM5_IRQHandler
                0x08011360                DMA2_Stream7_IRQHandler
                0x08011360                I2C3_EV_IRQHandler
                0x08011360                EXTI9_5_IRQHandler
                0x08011360                RTC_WKUP_IRQHandler
                0x08011360                SPDIF_RX_IRQHandler
                0x08011360                SPI2_IRQHandler
                0x08011360                OTG_HS_EP1_IN_IRQHandler
                0x08011360                DMA1_Stream0_IRQHandler
                0x08011360                CAN1_TX_IRQHandler
                0x08011360                EXTI4_IRQHandler
                0x08011360                OTG_HS_EP1_OUT_IRQHandler
                0x08011360                WWDG_IRQHandler
                0x08011360                TIM2_IRQHandler
                0x08011360                OTG_FS_WKUP_IRQHandler
                0x08011360                TIM1_TRG_COM_TIM11_IRQHandler
                0x08011360                OTG_HS_IRQHandler
                0x08011360                I2C2_ER_IRQHandler
                0x08011360                DMA2_Stream1_IRQHandler
                0x08011360                CAN1_SCE_IRQHandler
                0x08011360                FLASH_IRQHandler
                0x08011360                DMA2_Stream4_IRQHandler
                0x08011360                USART1_IRQHandler
                0x08011360                OTG_FS_IRQHandler
                0x08011360                SPI3_IRQHandler
                0x08011360                DMA1_Stream4_IRQHandler
                0x08011360                I2C1_ER_IRQHandler
                0x08011360                FMC_IRQHandler
                0x08011360                DMA2_Stream6_IRQHandler
                0x08011360                SAI1_IRQHandler
                0x08011360                DMA1_Stream3_IRQHandler
                0x08011360                FMPI2C1_Error_IRQHandler
 *fill*         0x08011362        0x2 
 .text.exit     0x08011364       0x28 d:/mcha3500_windows_toolchain/toolchain/gcc-arm-none-eabi/bin/../lib/gcc/arm-none-eabi/9.2.1/../../../../arm-none-eabi/lib/thumb/v7e-m+fp/hard\libc_nano.a(lib_a-exit.o)
                0x08011364                exit
 .text._getchar_r
                0x0801138c       0x1a d:/mcha3500_windows_toolchain/toolchain/gcc-arm-none-eabi/bin/../lib/gcc/arm-none-eabi/9.2.1/../../../../arm-none-eabi/lib/thumb/v7e-m+fp/hard\libc_nano.a(lib_a-getchar.o)
                0x0801138c                _getchar_r
 *fill*         0x080113a6        0x2 
 .text.getchar  0x080113a8       0x24 d:/mcha3500_windows_toolchain/toolchain/gcc-arm-none-eabi/bin/../lib/gcc/arm-none-eabi/9.2.1/../../../../arm-none-eabi/lib/thumb/v7e-m+fp/hard\libc_nano.a(lib_a-getchar.o)
                0x080113a8                getchar
 .text.__libc_init_array
                0x080113cc       0x48 d:/mcha3500_windows_toolchain/toolchain/gcc-arm-none-eabi/bin/../lib/gcc/arm-none-eabi/9.2.1/../../../../arm-none-eabi/lib/thumb/v7e-m+fp/hard\libc_nano.a(lib_a-init.o)
                0x080113cc                __libc_init_array
 .text.malloc   0x08011414       0x10 d:/mcha3500_windows_toolchain/toolchain/gcc-arm-none-eabi/bin/../lib/gcc/arm-none-eabi/9.2.1/../../../../arm-none-eabi/lib/thumb/v7e-m+fp/hard\libc_nano.a(lib_a-malloc.o)
                0x08011414                malloc
 .text.free     0x08011424       0x10 d:/mcha3500_windows_toolchain/toolchain/gcc-arm-none-eabi/bin/../lib/gcc/arm-none-eabi/9.2.1/../../../../arm-none-eabi/lib/thumb/v7e-m+fp/hard\libc_nano.a(lib_a-malloc.o)
                0x08011424                free
 .text.memcpy   0x08011434       0x1c d:/mcha3500_windows_toolchain/toolchain/gcc-arm-none-eabi/bin/../lib/gcc/arm-none-eabi/9.2.1/../../../../arm-none-eabi/lib/thumb/v7e-m+fp/hard\libc_nano.a(lib_a-memcpy-stub.o)
                0x08011434                memcpy
 .text.memset   0x08011450       0x10 d:/mcha3500_windows_toolchain/toolchain/gcc-arm-none-eabi/bin/../lib/gcc/arm-none-eabi/9.2.1/../../../../arm-none-eabi/lib/thumb/v7e-m+fp/hard\libc_nano.a(lib_a-memset.o)
                0x08011450                memset
 .text.mallinfo
                0x08011460       0x14 d:/mcha3500_windows_toolchain/toolchain/gcc-arm-none-eabi/bin/../lib/gcc/arm-none-eabi/9.2.1/../../../../arm-none-eabi/lib/thumb/v7e-m+fp/hard\libc_nano.a(lib_a-mstats.o)
                0x08011460                mallinfo
 .text.malloc_stats
                0x08011474        0xc d:/mcha3500_windows_toolchain/toolchain/gcc-arm-none-eabi/bin/../lib/gcc/arm-none-eabi/9.2.1/../../../../arm-none-eabi/lib/thumb/v7e-m+fp/hard\libc_nano.a(lib_a-mstats.o)
                0x08011474                malloc_stats
 .text.mallopt  0x08011480       0x10 d:/mcha3500_windows_toolchain/toolchain/gcc-arm-none-eabi/bin/../lib/gcc/arm-none-eabi/9.2.1/../../../../arm-none-eabi/lib/thumb/v7e-m+fp/hard\libc_nano.a(lib_a-mstats.o)
                0x08011480                mallopt
 .text._mstats_r
                0x08011490       0x2c d:/mcha3500_windows_toolchain/toolchain/gcc-arm-none-eabi/bin/../lib/gcc/arm-none-eabi/9.2.1/../../../../arm-none-eabi/lib/thumb/v7e-m+fp/hard\libc_nano.a(lib_a-mstats.o)
                0x08011490                _mstats_r
 .text.mstats   0x080114bc       0x10 d:/mcha3500_windows_toolchain/toolchain/gcc-arm-none-eabi/bin/../lib/gcc/arm-none-eabi/9.2.1/../../../../arm-none-eabi/lib/thumb/v7e-m+fp/hard\libc_nano.a(lib_a-mstats.o)
                0x080114bc                mstats
 .text._free_r  0x080114cc       0xa0 d:/mcha3500_windows_toolchain/toolchain/gcc-arm-none-eabi/bin/../lib/gcc/arm-none-eabi/9.2.1/../../../../arm-none-eabi/lib/thumb/v7e-m+fp/hard\libc_nano.a(lib_a-nano-freer.o)
                0x080114cc                _free_r
 .text._mallinfo_r
                0x0801156c       0x68 d:/mcha3500_windows_toolchain/toolchain/gcc-arm-none-eabi/bin/../lib/gcc/arm-none-eabi/9.2.1/../../../../arm-none-eabi/lib/thumb/v7e-m+fp/hard\libc_nano.a(lib_a-nano-mallinfor.o)
                0x0801156c                _mallinfo_r
 .text._malloc_r
                0x080115d4       0xb4 d:/mcha3500_windows_toolchain/toolchain/gcc-arm-none-eabi/bin/../lib/gcc/arm-none-eabi/9.2.1/../../../../arm-none-eabi/lib/thumb/v7e-m+fp/hard\libc_nano.a(lib_a-nano-mallocr.o)
                0x080115d4                _malloc_r
 .text._mallopt_r
                0x08011688        0x4 d:/mcha3500_windows_toolchain/toolchain/gcc-arm-none-eabi/bin/../lib/gcc/arm-none-eabi/9.2.1/../../../../arm-none-eabi/lib/thumb/v7e-m+fp/hard\libc_nano.a(lib_a-nano-malloptr.o)
                0x08011688                _mallopt_r
 .text._malloc_stats_r
                0x0801168c       0x50 d:/mcha3500_windows_toolchain/toolchain/gcc-arm-none-eabi/bin/../lib/gcc/arm-none-eabi/9.2.1/../../../../arm-none-eabi/lib/thumb/v7e-m+fp/hard\libc_nano.a(lib_a-nano-mallstatsr.o)
                0x0801168c                _malloc_stats_r
 .text.__cvt    0x080116dc       0xc4 d:/mcha3500_windows_toolchain/toolchain/gcc-arm-none-eabi/bin/../lib/gcc/arm-none-eabi/9.2.1/../../../../arm-none-eabi/lib/thumb/v7e-m+fp/hard\libc_nano.a(lib_a-nano-vfprintf_float.o)
                0x080116dc                __cvt
 .text.__exponent
                0x080117a0       0x7c d:/mcha3500_windows_toolchain/toolchain/gcc-arm-none-eabi/bin/../lib/gcc/arm-none-eabi/9.2.1/../../../../arm-none-eabi/lib/thumb/v7e-m+fp/hard\libc_nano.a(lib_a-nano-vfprintf_float.o)
                0x080117a0                __exponent
 .text._printf_float
                0x0801181c      0x46c d:/mcha3500_windows_toolchain/toolchain/gcc-arm-none-eabi/bin/../lib/gcc/arm-none-eabi/9.2.1/../../../../arm-none-eabi/lib/thumb/v7e-m+fp/hard\libc_nano.a(lib_a-nano-vfprintf_float.o)
                0x0801181c                _printf_float
 .text._printf_common
                0x08011c88       0xda d:/mcha3500_windows_toolchain/toolchain/gcc-arm-none-eabi/bin/../lib/gcc/arm-none-eabi/9.2.1/../../../../arm-none-eabi/lib/thumb/v7e-m+fp/hard\libc_nano.a(lib_a-nano-vfprintf_i.o)
                0x08011c88                _printf_common
 *fill*         0x08011d62        0x2 
 .text._printf_i
                0x08011d64      0x24c d:/mcha3500_windows_toolchain/toolchain/gcc-arm-none-eabi/bin/../lib/gcc/arm-none-eabi/9.2.1/../../../../arm-none-eabi/lib/thumb/v7e-m+fp/hard\libc_nano.a(lib_a-nano-vfprintf_i.o)
                0x08011d64                _printf_i
 .text._scanf_float
                0x08011fb0      0x420 d:/mcha3500_windows_toolchain/toolchain/gcc-arm-none-eabi/bin/../lib/gcc/arm-none-eabi/9.2.1/../../../../arm-none-eabi/lib/thumb/v7e-m+fp/hard\libc_nano.a(lib_a-nano-vfscanf_float.o)
                0x08011fb0                _scanf_float
 .text._printf_r
                0x080123d0       0x28 d:/mcha3500_windows_toolchain/toolchain/gcc-arm-none-eabi/bin/../lib/gcc/arm-none-eabi/9.2.1/../../../../arm-none-eabi/lib/thumb/v7e-m+fp/hard\libc_nano.a(lib_a-printf.o)
                0x080123d0                _iprintf_r
                0x080123d0                _printf_r
 .text.printf   0x080123f8       0x30 d:/mcha3500_windows_toolchain/toolchain/gcc-arm-none-eabi/bin/../lib/gcc/arm-none-eabi/9.2.1/../../../../arm-none-eabi/lib/thumb/v7e-m+fp/hard\libc_nano.a(lib_a-printf.o)
                0x080123f8                iprintf
                0x080123f8                printf
 .text.cleanup_glue
                0x08012428       0x1a d:/mcha3500_windows_toolchain/toolchain/gcc-arm-none-eabi/bin/../lib/gcc/arm-none-eabi/9.2.1/../../../../arm-none-eabi/lib/thumb/v7e-m+fp/hard\libc_nano.a(lib_a-reent.o)
                0x08012428                cleanup_glue
 *fill*         0x08012442        0x2 
 .text._reclaim_reent
                0x08012444       0xb8 d:/mcha3500_windows_toolchain/toolchain/gcc-arm-none-eabi/bin/../lib/gcc/arm-none-eabi/9.2.1/../../../../arm-none-eabi/lib/thumb/v7e-m+fp/hard\libc_nano.a(lib_a-reent.o)
                0x08012444                _reclaim_reent
 .text._sbrk_r  0x080124fc       0x20 d:/mcha3500_windows_toolchain/toolchain/gcc-arm-none-eabi/bin/../lib/gcc/arm-none-eabi/9.2.1/../../../../arm-none-eabi/lib/thumb/v7e-m+fp/hard\libc_nano.a(lib_a-sbrkr.o)
                0x080124fc                _sbrk_r
 .text.setvbuf  0x0801251c      0x18c d:/mcha3500_windows_toolchain/toolchain/gcc-arm-none-eabi/bin/../lib/gcc/arm-none-eabi/9.2.1/../../../../arm-none-eabi/lib/thumb/v7e-m+fp/hard\libc_nano.a(lib_a-setvbuf.o)
                0x0801251c                setvbuf
 .text.nanf     0x080126a8        0xc d:/mcha3500_windows_toolchain/toolchain/gcc-arm-none-eabi/bin/../lib/gcc/arm-none-eabi/9.2.1/../../../../arm-none-eabi/lib/thumb/v7e-m+fp/hard\libc_nano.a(lib_a-sf_nan.o)
                0x080126a8                nanf
 .text._sprintf_r
                0x080126b4       0x38 d:/mcha3500_windows_toolchain/toolchain/gcc-arm-none-eabi/bin/../lib/gcc/arm-none-eabi/9.2.1/../../../../arm-none-eabi/lib/thumb/v7e-m+fp/hard\libc_nano.a(lib_a-sprintf.o)
                0x080126b4                _sprintf_r
                0x080126b4                _siprintf_r
 .text.sprintf  0x080126ec       0x40 d:/mcha3500_windows_toolchain/toolchain/gcc-arm-none-eabi/bin/../lib/gcc/arm-none-eabi/9.2.1/../../../../arm-none-eabi/lib/thumb/v7e-m+fp/hard\libc_nano.a(lib_a-sprintf.o)
                0x080126ec                siprintf
                0x080126ec                sprintf
 .text.sulp     0x0801272c       0x38 d:/mcha3500_windows_toolchain/toolchain/gcc-arm-none-eabi/bin/../lib/gcc/arm-none-eabi/9.2.1/../../../../arm-none-eabi/lib/thumb/v7e-m+fp/hard\libc_nano.a(lib_a-strtod.o)
 *fill*         0x08012764        0x4 
 .text._strtod_l
                0x08012768      0xc14 d:/mcha3500_windows_toolchain/toolchain/gcc-arm-none-eabi/bin/../lib/gcc/arm-none-eabi/9.2.1/../../../../arm-none-eabi/lib/thumb/v7e-m+fp/hard\libc_nano.a(lib_a-strtod.o)
                0x08012768                _strtod_l
 .text._strtod_r
                0x0801337c        0xc d:/mcha3500_windows_toolchain/toolchain/gcc-arm-none-eabi/bin/../lib/gcc/arm-none-eabi/9.2.1/../../../../arm-none-eabi/lib/thumb/v7e-m+fp/hard\libc_nano.a(lib_a-strtod.o)
                0x0801337c                _strtod_r
 .text.strtod_l
                0x08013388       0x14 d:/mcha3500_windows_toolchain/toolchain/gcc-arm-none-eabi/bin/../lib/gcc/arm-none-eabi/9.2.1/../../../../arm-none-eabi/lib/thumb/v7e-m+fp/hard\libc_nano.a(lib_a-strtod.o)
                0x08013388                strtod_l
 .text.strtod   0x0801339c       0x18 d:/mcha3500_windows_toolchain/toolchain/gcc-arm-none-eabi/bin/../lib/gcc/arm-none-eabi/9.2.1/../../../../arm-none-eabi/lib/thumb/v7e-m+fp/hard\libc_nano.a(lib_a-strtod.o)
                0x0801339c                strtod
 .text.strtof_l
                0x080133b4       0xb0 d:/mcha3500_windows_toolchain/toolchain/gcc-arm-none-eabi/bin/../lib/gcc/arm-none-eabi/9.2.1/../../../../arm-none-eabi/lib/thumb/v7e-m+fp/hard\libc_nano.a(lib_a-strtod.o)
                0x080133b4                strtof_l
 .text.strtof   0x08013464       0xb4 d:/mcha3500_windows_toolchain/toolchain/gcc-arm-none-eabi/bin/../lib/gcc/arm-none-eabi/9.2.1/../../../../arm-none-eabi/lib/thumb/v7e-m+fp/hard\libc_nano.a(lib_a-strtod.o)
                0x08013464                strtof
 .text._strtol_l.isra.0
                0x08013518       0xf4 d:/mcha3500_windows_toolchain/toolchain/gcc-arm-none-eabi/bin/../lib/gcc/arm-none-eabi/9.2.1/../../../../arm-none-eabi/lib/thumb/v7e-m+fp/hard\libc_nano.a(lib_a-strtol.o)
 .text._strtol_r
                0x0801360c        0x4 d:/mcha3500_windows_toolchain/toolchain/gcc-arm-none-eabi/bin/../lib/gcc/arm-none-eabi/9.2.1/../../../../arm-none-eabi/lib/thumb/v7e-m+fp/hard\libc_nano.a(lib_a-strtol.o)
                0x0801360c                _strtol_r
 .text.strtol_l
                0x08013610       0x14 d:/mcha3500_windows_toolchain/toolchain/gcc-arm-none-eabi/bin/../lib/gcc/arm-none-eabi/9.2.1/../../../../arm-none-eabi/lib/thumb/v7e-m+fp/hard\libc_nano.a(lib_a-strtol.o)
                0x08013610                strtol_l
 .text.strtol   0x08013624       0x14 d:/mcha3500_windows_toolchain/toolchain/gcc-arm-none-eabi/bin/../lib/gcc/arm-none-eabi/9.2.1/../../../../arm-none-eabi/lib/thumb/v7e-m+fp/hard\libc_nano.a(lib_a-strtol.o)
                0x08013624                strtol
 .text.vprintf  0x08013638       0x30 d:/mcha3500_windows_toolchain/toolchain/gcc-arm-none-eabi/bin/../lib/gcc/arm-none-eabi/9.2.1/../../../../arm-none-eabi/lib/thumb/v7e-m+fp/hard\libc_nano.a(lib_a-vprintf.o)
                0x08013638                viprintf
                0x08013638                vprintf
 .text._vprintf_r
                0x08013668       0x26 d:/mcha3500_windows_toolchain/toolchain/gcc-arm-none-eabi/bin/../lib/gcc/arm-none-eabi/9.2.1/../../../../arm-none-eabi/lib/thumb/v7e-m+fp/hard\libc_nano.a(lib_a-vprintf.o)
                0x08013668                _vprintf_r
                0x08013668                _viprintf_r
 .text.quorem   0x0801368e      0x116 d:/mcha3500_windows_toolchain/toolchain/gcc-arm-none-eabi/bin/../lib/gcc/arm-none-eabi/9.2.1/../../../../arm-none-eabi/lib/thumb/v7e-m+fp/hard\libc_nano.a(lib_a-dtoa.o)
 *fill*         0x080137a4        0x4 
 .text._dtoa_r  0x080137a8      0xbbc d:/mcha3500_windows_toolchain/toolchain/gcc-arm-none-eabi/bin/../lib/gcc/arm-none-eabi/9.2.1/../../../../arm-none-eabi/lib/thumb/v7e-m+fp/hard\libc_nano.a(lib_a-dtoa.o)
                0x080137a8                _dtoa_r
 .text.__sflush_r
                0x08014364      0x10c d:/mcha3500_windows_toolchain/toolchain/gcc-arm-none-eabi/bin/../lib/gcc/arm-none-eabi/9.2.1/../../../../arm-none-eabi/lib/thumb/v7e-m+fp/hard\libc_nano.a(lib_a-fflush.o)
                0x08014364                __sflush_r
 .text._fflush_r
                0x08014470       0x78 d:/mcha3500_windows_toolchain/toolchain/gcc-arm-none-eabi/bin/../lib/gcc/arm-none-eabi/9.2.1/../../../../arm-none-eabi/lib/thumb/v7e-m+fp/hard\libc_nano.a(lib_a-fflush.o)
                0x08014470                _fflush_r
 .text.fflush   0x080144e8       0x24 d:/mcha3500_windows_toolchain/toolchain/gcc-arm-none-eabi/bin/../lib/gcc/arm-none-eabi/9.2.1/../../../../arm-none-eabi/lib/thumb/v7e-m+fp/hard\libc_nano.a(lib_a-fflush.o)
                0x080144e8                fflush
 .text.std      0x0801450c       0x48 d:/mcha3500_windows_toolchain/toolchain/gcc-arm-none-eabi/bin/../lib/gcc/arm-none-eabi/9.2.1/../../../../arm-none-eabi/lib/thumb/v7e-m+fp/hard\libc_nano.a(lib_a-findfp.o)
 .text._cleanup_r
                0x08014554        0xc d:/mcha3500_windows_toolchain/toolchain/gcc-arm-none-eabi/bin/../lib/gcc/arm-none-eabi/9.2.1/../../../../arm-none-eabi/lib/thumb/v7e-m+fp/hard\libc_nano.a(lib_a-findfp.o)
                0x08014554                _cleanup_r
 .text.__fp_lock
                0x08014560       0x18 d:/mcha3500_windows_toolchain/toolchain/gcc-arm-none-eabi/bin/../lib/gcc/arm-none-eabi/9.2.1/../../../../arm-none-eabi/lib/thumb/v7e-m+fp/hard\libc_nano.a(lib_a-findfp.o)
 .text.__fp_unlock
                0x08014578       0x18 d:/mcha3500_windows_toolchain/toolchain/gcc-arm-none-eabi/bin/../lib/gcc/arm-none-eabi/9.2.1/../../../../arm-none-eabi/lib/thumb/v7e-m+fp/hard\libc_nano.a(lib_a-findfp.o)
 .text.__sfmoreglue
                0x08014590       0x2c d:/mcha3500_windows_toolchain/toolchain/gcc-arm-none-eabi/bin/../lib/gcc/arm-none-eabi/9.2.1/../../../../arm-none-eabi/lib/thumb/v7e-m+fp/hard\libc_nano.a(lib_a-findfp.o)
                0x08014590                __sfmoreglue
 .text._cleanup
                0x080145bc        0xc d:/mcha3500_windows_toolchain/toolchain/gcc-arm-none-eabi/bin/../lib/gcc/arm-none-eabi/9.2.1/../../../../arm-none-eabi/lib/thumb/v7e-m+fp/hard\libc_nano.a(lib_a-findfp.o)
                0x080145bc                _cleanup
 .text.__sfp_lock_acquire
                0x080145c8        0xc d:/mcha3500_windows_toolchain/toolchain/gcc-arm-none-eabi/bin/../lib/gcc/arm-none-eabi/9.2.1/../../../../arm-none-eabi/lib/thumb/v7e-m+fp/hard\libc_nano.a(lib_a-findfp.o)
                0x080145c8                __sfp_lock_acquire
 .text.__sfp_lock_release
                0x080145d4        0xc d:/mcha3500_windows_toolchain/toolchain/gcc-arm-none-eabi/bin/../lib/gcc/arm-none-eabi/9.2.1/../../../../arm-none-eabi/lib/thumb/v7e-m+fp/hard\libc_nano.a(lib_a-findfp.o)
                0x080145d4                __sfp_lock_release
 .text.__sinit_lock_acquire
                0x080145e0        0xc d:/mcha3500_windows_toolchain/toolchain/gcc-arm-none-eabi/bin/../lib/gcc/arm-none-eabi/9.2.1/../../../../arm-none-eabi/lib/thumb/v7e-m+fp/hard\libc_nano.a(lib_a-findfp.o)
                0x080145e0                __sinit_lock_acquire
 .text.__sinit_lock_release
                0x080145ec        0xc d:/mcha3500_windows_toolchain/toolchain/gcc-arm-none-eabi/bin/../lib/gcc/arm-none-eabi/9.2.1/../../../../arm-none-eabi/lib/thumb/v7e-m+fp/hard\libc_nano.a(lib_a-findfp.o)
                0x080145ec                __sinit_lock_release
 .text.__sinit  0x080145f8       0x70 d:/mcha3500_windows_toolchain/toolchain/gcc-arm-none-eabi/bin/../lib/gcc/arm-none-eabi/9.2.1/../../../../arm-none-eabi/lib/thumb/v7e-m+fp/hard\libc_nano.a(lib_a-findfp.o)
                0x080145f8                __sinit
 .text.__sfp    0x08014668       0x8c d:/mcha3500_windows_toolchain/toolchain/gcc-arm-none-eabi/bin/../lib/gcc/arm-none-eabi/9.2.1/../../../../arm-none-eabi/lib/thumb/v7e-m+fp/hard\libc_nano.a(lib_a-findfp.o)
                0x08014668                __sfp
 .text.__fp_lock_all
                0x080146f4       0x1c d:/mcha3500_windows_toolchain/toolchain/gcc-arm-none-eabi/bin/../lib/gcc/arm-none-eabi/9.2.1/../../../../arm-none-eabi/lib/thumb/v7e-m+fp/hard\libc_nano.a(lib_a-findfp.o)
                0x080146f4                __fp_lock_all
 .text.__fp_unlock_all
                0x08014710       0x1c d:/mcha3500_windows_toolchain/toolchain/gcc-arm-none-eabi/bin/../lib/gcc/arm-none-eabi/9.2.1/../../../../arm-none-eabi/lib/thumb/v7e-m+fp/hard\libc_nano.a(lib_a-findfp.o)
                0x08014710                __fp_unlock_all
 .text._fprintf_r
                0x0801472c       0x1a d:/mcha3500_windows_toolchain/toolchain/gcc-arm-none-eabi/bin/../lib/gcc/arm-none-eabi/9.2.1/../../../../arm-none-eabi/lib/thumb/v7e-m+fp/hard\libc_nano.a(lib_a-fprintf.o)
                0x0801472c                _fiprintf_r
                0x0801472c                _fprintf_r
 *fill*         0x08014746        0x2 
 .text.fprintf  0x08014748       0x24 d:/mcha3500_windows_toolchain/toolchain/gcc-arm-none-eabi/bin/../lib/gcc/arm-none-eabi/9.2.1/../../../../arm-none-eabi/lib/thumb/v7e-m+fp/hard\libc_nano.a(lib_a-fprintf.o)
                0x08014748                fiprintf
                0x08014748                fprintf
 .text._fwalk   0x0801476c       0x3a d:/mcha3500_windows_toolchain/toolchain/gcc-arm-none-eabi/bin/../lib/gcc/arm-none-eabi/9.2.1/../../../../arm-none-eabi/lib/thumb/v7e-m+fp/hard\libc_nano.a(lib_a-fwalk.o)
                0x0801476c                _fwalk
 .text._fwalk_reent
                0x080147a6       0x3e d:/mcha3500_windows_toolchain/toolchain/gcc-arm-none-eabi/bin/../lib/gcc/arm-none-eabi/9.2.1/../../../../arm-none-eabi/lib/thumb/v7e-m+fp/hard\libc_nano.a(lib_a-fwalk.o)
                0x080147a6                _fwalk_reent
 .text.rshift   0x080147e4       0xa4 d:/mcha3500_windows_toolchain/toolchain/gcc-arm-none-eabi/bin/../lib/gcc/arm-none-eabi/9.2.1/../../../../arm-none-eabi/lib/thumb/v7e-m+fp/hard\libc_nano.a(lib_a-gdtoa-gethex.o)
 .text.__hexdig_fun
                0x08014888       0x2a d:/mcha3500_windows_toolchain/toolchain/gcc-arm-none-eabi/bin/../lib/gcc/arm-none-eabi/9.2.1/../../../../arm-none-eabi/lib/thumb/v7e-m+fp/hard\libc_nano.a(lib_a-gdtoa-gethex.o)
                0x08014888                __hexdig_fun
 *fill*         0x080148b2        0x2 
 .text.__gethex
                0x080148b4      0x468 d:/mcha3500_windows_toolchain/toolchain/gcc-arm-none-eabi/bin/../lib/gcc/arm-none-eabi/9.2.1/../../../../arm-none-eabi/lib/thumb/v7e-m+fp/hard\libc_nano.a(lib_a-gdtoa-gethex.o)
                0x080148b4                __gethex
 .text.L_shift  0x08014d1c       0x24 d:/mcha3500_windows_toolchain/toolchain/gcc-arm-none-eabi/bin/../lib/gcc/arm-none-eabi/9.2.1/../../../../arm-none-eabi/lib/thumb/v7e-m+fp/hard\libc_nano.a(lib_a-gdtoa-hexnan.o)
 .text.__match  0x08014d40       0x28 d:/mcha3500_windows_toolchain/toolchain/gcc-arm-none-eabi/bin/../lib/gcc/arm-none-eabi/9.2.1/../../../../arm-none-eabi/lib/thumb/v7e-m+fp/hard\libc_nano.a(lib_a-gdtoa-hexnan.o)
                0x08014d40                __match
 .text.__hexnan
                0x08014d68      0x138 d:/mcha3500_windows_toolchain/toolchain/gcc-arm-none-eabi/bin/../lib/gcc/arm-none-eabi/9.2.1/../../../../arm-none-eabi/lib/thumb/v7e-m+fp/hard\libc_nano.a(lib_a-gdtoa-hexnan.o)
                0x08014d68                __hexnan
 .text._getc_r  0x08014ea0       0x80 d:/mcha3500_windows_toolchain/toolchain/gcc-arm-none-eabi/bin/../lib/gcc/arm-none-eabi/9.2.1/../../../../arm-none-eabi/lib/thumb/v7e-m+fp/hard\libc_nano.a(lib_a-getc.o)
                0x08014ea0                _getc_r
 .text.getc     0x08014f20       0x88 d:/mcha3500_windows_toolchain/toolchain/gcc-arm-none-eabi/bin/../lib/gcc/arm-none-eabi/9.2.1/../../../../arm-none-eabi/lib/thumb/v7e-m+fp/hard\libc_nano.a(lib_a-getc.o)
                0x08014f20                getc
 .text.__numeric_load_locale
                0x08014fa8        0x4 d:/mcha3500_windows_toolchain/toolchain/gcc-arm-none-eabi/bin/../lib/gcc/arm-none-eabi/9.2.1/../../../../arm-none-eabi/lib/thumb/v7e-m+fp/hard\libc_nano.a(lib_a-lnumeric.o)
                0x08014fa8                __numeric_load_locale
 .text._setlocale_r
                0x08014fac       0x40 d:/mcha3500_windows_toolchain/toolchain/gcc-arm-none-eabi/bin/../lib/gcc/arm-none-eabi/9.2.1/../../../../arm-none-eabi/lib/thumb/v7e-m+fp/hard\libc_nano.a(lib_a-locale.o)
                0x08014fac                _setlocale_r
 .text.__locale_mb_cur_max
                0x08014fec        0xc d:/mcha3500_windows_toolchain/toolchain/gcc-arm-none-eabi/bin/../lib/gcc/arm-none-eabi/9.2.1/../../../../arm-none-eabi/lib/thumb/v7e-m+fp/hard\libc_nano.a(lib_a-locale.o)
                0x08014fec                __locale_mb_cur_max
 .text.setlocale
                0x08014ff8       0x10 d:/mcha3500_windows_toolchain/toolchain/gcc-arm-none-eabi/bin/../lib/gcc/arm-none-eabi/9.2.1/../../../../arm-none-eabi/lib/thumb/v7e-m+fp/hard\libc_nano.a(lib_a-locale.o)
                0x08014ff8                setlocale
 .text.__localeconv_l
                0x08015008        0x4 d:/mcha3500_windows_toolchain/toolchain/gcc-arm-none-eabi/bin/../lib/gcc/arm-none-eabi/9.2.1/../../../../arm-none-eabi/lib/thumb/v7e-m+fp/hard\libc_nano.a(lib_a-localeconv.o)
                0x08015008                __localeconv_l
 .text._localeconv_r
                0x0801500c        0x8 d:/mcha3500_windows_toolchain/toolchain/gcc-arm-none-eabi/bin/../lib/gcc/arm-none-eabi/9.2.1/../../../../arm-none-eabi/lib/thumb/v7e-m+fp/hard\libc_nano.a(lib_a-localeconv.o)
                0x0801500c                _localeconv_r
 .text.localeconv
                0x08015014        0x8 d:/mcha3500_windows_toolchain/toolchain/gcc-arm-none-eabi/bin/../lib/gcc/arm-none-eabi/9.2.1/../../../../arm-none-eabi/lib/thumb/v7e-m+fp/hard\libc_nano.a(lib_a-localeconv.o)
                0x08015014                localeconv
 .text.__retarget_lock_init
                0x0801501c        0x2 d:/mcha3500_windows_toolchain/toolchain/gcc-arm-none-eabi/bin/../lib/gcc/arm-none-eabi/9.2.1/../../../../arm-none-eabi/lib/thumb/v7e-m+fp/hard\libc_nano.a(lib_a-lock.o)
                0x0801501c                __retarget_lock_init
 .text.__retarget_lock_init_recursive
                0x0801501e        0x2 d:/mcha3500_windows_toolchain/toolchain/gcc-arm-none-eabi/bin/../lib/gcc/arm-none-eabi/9.2.1/../../../../arm-none-eabi/lib/thumb/v7e-m+fp/hard\libc_nano.a(lib_a-lock.o)
                0x0801501e                __retarget_lock_init_recursive
 .text.__retarget_lock_close
                0x08015020        0x2 d:/mcha3500_windows_toolchain/toolchain/gcc-arm-none-eabi/bin/../lib/gcc/arm-none-eabi/9.2.1/../../../../arm-none-eabi/lib/thumb/v7e-m+fp/hard\libc_nano.a(lib_a-lock.o)
                0x08015020                __retarget_lock_close
 .text.__retarget_lock_close_recursive
                0x08015022        0x2 d:/mcha3500_windows_toolchain/toolchain/gcc-arm-none-eabi/bin/../lib/gcc/arm-none-eabi/9.2.1/../../../../arm-none-eabi/lib/thumb/v7e-m+fp/hard\libc_nano.a(lib_a-lock.o)
                0x08015022                __retarget_lock_close_recursive
 .text.__retarget_lock_acquire
                0x08015024        0x2 d:/mcha3500_windows_toolchain/toolchain/gcc-arm-none-eabi/bin/../lib/gcc/arm-none-eabi/9.2.1/../../../../arm-none-eabi/lib/thumb/v7e-m+fp/hard\libc_nano.a(lib_a-lock.o)
                0x08015024                __retarget_lock_acquire
 .text.__retarget_lock_acquire_recursive
                0x08015026        0x2 d:/mcha3500_windows_toolchain/toolchain/gcc-arm-none-eabi/bin/../lib/gcc/arm-none-eabi/9.2.1/../../../../arm-none-eabi/lib/thumb/v7e-m+fp/hard\libc_nano.a(lib_a-lock.o)
                0x08015026                __retarget_lock_acquire_recursive
 .text.__retarget_lock_try_acquire
                0x08015028        0x4 d:/mcha3500_windows_toolchain/toolchain/gcc-arm-none-eabi/bin/../lib/gcc/arm-none-eabi/9.2.1/../../../../arm-none-eabi/lib/thumb/v7e-m+fp/hard\libc_nano.a(lib_a-lock.o)
                0x08015028                __retarget_lock_try_acquire
 .text.__retarget_lock_try_acquire_recursive
                0x0801502c        0x4 d:/mcha3500_windows_toolchain/toolchain/gcc-arm-none-eabi/bin/../lib/gcc/arm-none-eabi/9.2.1/../../../../arm-none-eabi/lib/thumb/v7e-m+fp/hard\libc_nano.a(lib_a-lock.o)
                0x0801502c                __retarget_lock_try_acquire_recursive
 .text.__retarget_lock_release
                0x08015030        0x2 d:/mcha3500_windows_toolchain/toolchain/gcc-arm-none-eabi/bin/../lib/gcc/arm-none-eabi/9.2.1/../../../../arm-none-eabi/lib/thumb/v7e-m+fp/hard\libc_nano.a(lib_a-lock.o)
                0x08015030                __retarget_lock_release
 .text.__retarget_lock_release_recursive
                0x08015032        0x2 d:/mcha3500_windows_toolchain/toolchain/gcc-arm-none-eabi/bin/../lib/gcc/arm-none-eabi/9.2.1/../../../../arm-none-eabi/lib/thumb/v7e-m+fp/hard\libc_nano.a(lib_a-lock.o)
                0x08015032                __retarget_lock_release_recursive
 .text.__swhatbuf_r
                0x08015034       0x48 d:/mcha3500_windows_toolchain/toolchain/gcc-arm-none-eabi/bin/../lib/gcc/arm-none-eabi/9.2.1/../../../../arm-none-eabi/lib/thumb/v7e-m+fp/hard\libc_nano.a(lib_a-makebuf.o)
                0x08015034                __swhatbuf_r
 .text.__smakebuf_r
                0x0801507c       0x80 d:/mcha3500_windows_toolchain/toolchain/gcc-arm-none-eabi/bin/../lib/gcc/arm-none-eabi/9.2.1/../../../../arm-none-eabi/lib/thumb/v7e-m+fp/hard\libc_nano.a(lib_a-makebuf.o)
                0x0801507c                __smakebuf_r
 .text._mbtowc_r
                0x080150fc       0x14 d:/mcha3500_windows_toolchain/toolchain/gcc-arm-none-eabi/bin/../lib/gcc/arm-none-eabi/9.2.1/../../../../arm-none-eabi/lib/thumb/v7e-m+fp/hard\libc_nano.a(lib_a-mbtowc_r.o)
                0x080150fc                _mbtowc_r
 .text.__ascii_mbtowc
                0x08015110       0x24 d:/mcha3500_windows_toolchain/toolchain/gcc-arm-none-eabi/bin/../lib/gcc/arm-none-eabi/9.2.1/../../../../arm-none-eabi/lib/thumb/v7e-m+fp/hard\libc_nano.a(lib_a-mbtowc_r.o)
                0x08015110                __ascii_mbtowc
 .text._Balloc  0x08015134       0x68 d:/mcha3500_windows_toolchain/toolchain/gcc-arm-none-eabi/bin/../lib/gcc/arm-none-eabi/9.2.1/../../../../arm-none-eabi/lib/thumb/v7e-m+fp/hard\libc_nano.a(lib_a-mprec.o)
                0x08015134                _Balloc
 .text._Bfree   0x0801519c       0x2e d:/mcha3500_windows_toolchain/toolchain/gcc-arm-none-eabi/bin/../lib/gcc/arm-none-eabi/9.2.1/../../../../arm-none-eabi/lib/thumb/v7e-m+fp/hard\libc_nano.a(lib_a-mprec.o)
                0x0801519c                _Bfree
 .text.__multadd
                0x080151ca       0x7c d:/mcha3500_windows_toolchain/toolchain/gcc-arm-none-eabi/bin/../lib/gcc/arm-none-eabi/9.2.1/../../../../arm-none-eabi/lib/thumb/v7e-m+fp/hard\libc_nano.a(lib_a-mprec.o)
                0x080151ca                __multadd
 .text.__s2b    0x08015246       0x7c d:/mcha3500_windows_toolchain/toolchain/gcc-arm-none-eabi/bin/../lib/gcc/arm-none-eabi/9.2.1/../../../../arm-none-eabi/lib/thumb/v7e-m+fp/hard\libc_nano.a(lib_a-mprec.o)
                0x08015246                __s2b
 .text.__hi0bits
                0x080152c2       0x40 d:/mcha3500_windows_toolchain/toolchain/gcc-arm-none-eabi/bin/../lib/gcc/arm-none-eabi/9.2.1/../../../../arm-none-eabi/lib/thumb/v7e-m+fp/hard\libc_nano.a(lib_a-mprec.o)
                0x080152c2                __hi0bits
 .text.__lo0bits
                0x08015302       0x60 d:/mcha3500_windows_toolchain/toolchain/gcc-arm-none-eabi/bin/../lib/gcc/arm-none-eabi/9.2.1/../../../../arm-none-eabi/lib/thumb/v7e-m+fp/hard\libc_nano.a(lib_a-mprec.o)
                0x08015302                __lo0bits
 .text.__i2b    0x08015362       0x12 d:/mcha3500_windows_toolchain/toolchain/gcc-arm-none-eabi/bin/../lib/gcc/arm-none-eabi/9.2.1/../../../../arm-none-eabi/lib/thumb/v7e-m+fp/hard\libc_nano.a(lib_a-mprec.o)
                0x08015362                __i2b
 .text.__multiply
                0x08015374      0x138 d:/mcha3500_windows_toolchain/toolchain/gcc-arm-none-eabi/bin/../lib/gcc/arm-none-eabi/9.2.1/../../../../arm-none-eabi/lib/thumb/v7e-m+fp/hard\libc_nano.a(lib_a-mprec.o)
                0x08015374                __multiply
 .text.__pow5mult
                0x080154ac       0x9c d:/mcha3500_windows_toolchain/toolchain/gcc-arm-none-eabi/bin/../lib/gcc/arm-none-eabi/9.2.1/../../../../arm-none-eabi/lib/thumb/v7e-m+fp/hard\libc_nano.a(lib_a-mprec.o)
                0x080154ac                __pow5mult
 .text.__lshift
                0x08015548       0xbe d:/mcha3500_windows_toolchain/toolchain/gcc-arm-none-eabi/bin/../lib/gcc/arm-none-eabi/9.2.1/../../../../arm-none-eabi/lib/thumb/v7e-m+fp/hard\libc_nano.a(lib_a-mprec.o)
                0x08015548                __lshift
 .text.__mcmp   0x08015606       0x38 d:/mcha3500_windows_toolchain/toolchain/gcc-arm-none-eabi/bin/../lib/gcc/arm-none-eabi/9.2.1/../../../../arm-none-eabi/lib/thumb/v7e-m+fp/hard\libc_nano.a(lib_a-mprec.o)
                0x08015606                __mcmp
 .text.__mdiff  0x0801563e       0xec d:/mcha3500_windows_toolchain/toolchain/gcc-arm-none-eabi/bin/../lib/gcc/arm-none-eabi/9.2.1/../../../../arm-none-eabi/lib/thumb/v7e-m+fp/hard\libc_nano.a(lib_a-mprec.o)
                0x0801563e                __mdiff
 *fill*         0x0801572a        0x2 
 .text.__ulp    0x0801572c       0x58 d:/mcha3500_windows_toolchain/toolchain/gcc-arm-none-eabi/bin/../lib/gcc/arm-none-eabi/9.2.1/../../../../arm-none-eabi/lib/thumb/v7e-m+fp/hard\libc_nano.a(lib_a-mprec.o)
                0x0801572c                __ulp
 .text.__b2d    0x08015784       0xa0 d:/mcha3500_windows_toolchain/toolchain/gcc-arm-none-eabi/bin/../lib/gcc/arm-none-eabi/9.2.1/../../../../arm-none-eabi/lib/thumb/v7e-m+fp/hard\libc_nano.a(lib_a-mprec.o)
                0x08015784                __b2d
 .text.__d2b    0x08015824       0xa0 d:/mcha3500_windows_toolchain/toolchain/gcc-arm-none-eabi/bin/../lib/gcc/arm-none-eabi/9.2.1/../../../../arm-none-eabi/lib/thumb/v7e-m+fp/hard\libc_nano.a(lib_a-mprec.o)
                0x08015824                __d2b
 .text.__ratio  0x080158c4       0x66 d:/mcha3500_windows_toolchain/toolchain/gcc-arm-none-eabi/bin/../lib/gcc/arm-none-eabi/9.2.1/../../../../arm-none-eabi/lib/thumb/v7e-m+fp/hard\libc_nano.a(lib_a-mprec.o)
                0x080158c4                __ratio
 *fill*         0x0801592a        0x2 
 .text._mprec_log10
                0x0801592c       0x3c d:/mcha3500_windows_toolchain/toolchain/gcc-arm-none-eabi/bin/../lib/gcc/arm-none-eabi/9.2.1/../../../../arm-none-eabi/lib/thumb/v7e-m+fp/hard\libc_nano.a(lib_a-mprec.o)
                0x0801592c                _mprec_log10
 .text.__copybits
                0x08015968       0x46 d:/mcha3500_windows_toolchain/toolchain/gcc-arm-none-eabi/bin/../lib/gcc/arm-none-eabi/9.2.1/../../../../arm-none-eabi/lib/thumb/v7e-m+fp/hard\libc_nano.a(lib_a-mprec.o)
                0x08015968                __copybits
 .text.__any_on
                0x080159ae       0x42 d:/mcha3500_windows_toolchain/toolchain/gcc-arm-none-eabi/bin/../lib/gcc/arm-none-eabi/9.2.1/../../../../arm-none-eabi/lib/thumb/v7e-m+fp/hard\libc_nano.a(lib_a-mprec.o)
                0x080159ae                __any_on
 .text._calloc_r
                0x080159f0       0x1e d:/mcha3500_windows_toolchain/toolchain/gcc-arm-none-eabi/bin/../lib/gcc/arm-none-eabi/9.2.1/../../../../arm-none-eabi/lib/thumb/v7e-m+fp/hard\libc_nano.a(lib_a-nano-callocr.o)
                0x080159f0                _calloc_r
 .text.__ssputs_r
                0x08015a0e       0xb6 d:/mcha3500_windows_toolchain/toolchain/gcc-arm-none-eabi/bin/../lib/gcc/arm-none-eabi/9.2.1/../../../../arm-none-eabi/lib/thumb/v7e-m+fp/hard\libc_nano.a(lib_a-nano-svfprintf.o)
                0x08015a0e                __ssputs_r
 .text.__ssprint_r
                0x08015ac4       0xf6 d:/mcha3500_windows_toolchain/toolchain/gcc-arm-none-eabi/bin/../lib/gcc/arm-none-eabi/9.2.1/../../../../arm-none-eabi/lib/thumb/v7e-m+fp/hard\libc_nano.a(lib_a-nano-svfprintf.o)
                0x08015ac4                __ssprint_r
 *fill*         0x08015bba        0x2 
 .text._svfprintf_r
                0x08015bbc      0x200 d:/mcha3500_windows_toolchain/toolchain/gcc-arm-none-eabi/bin/../lib/gcc/arm-none-eabi/9.2.1/../../../../arm-none-eabi/lib/thumb/v7e-m+fp/hard\libc_nano.a(lib_a-nano-svfprintf.o)
                0x08015bbc                _svfiprintf_r
                0x08015bbc                _svfprintf_r
 .text.__sfputc_r
                0x08015dbc       0x2e d:/mcha3500_windows_toolchain/toolchain/gcc-arm-none-eabi/bin/../lib/gcc/arm-none-eabi/9.2.1/../../../../arm-none-eabi/lib/thumb/v7e-m+fp/hard\libc_nano.a(lib_a-nano-vfprintf.o)
 .text.__sfputs_r
                0x08015dea       0x24 d:/mcha3500_windows_toolchain/toolchain/gcc-arm-none-eabi/bin/../lib/gcc/arm-none-eabi/9.2.1/../../../../arm-none-eabi/lib/thumb/v7e-m+fp/hard\libc_nano.a(lib_a-nano-vfprintf.o)
                0x08015dea                __sfputs_r
 .text.__sprint_r
                0x08015e0e       0x1a d:/mcha3500_windows_toolchain/toolchain/gcc-arm-none-eabi/bin/../lib/gcc/arm-none-eabi/9.2.1/../../../../arm-none-eabi/lib/thumb/v7e-m+fp/hard\libc_nano.a(lib_a-nano-vfprintf.o)
                0x08015e0e                __sprint_r
 .text._vfprintf_r
                0x08015e28      0x260 d:/mcha3500_windows_toolchain/toolchain/gcc-arm-none-eabi/bin/../lib/gcc/arm-none-eabi/9.2.1/../../../../arm-none-eabi/lib/thumb/v7e-m+fp/hard\libc_nano.a(lib_a-nano-vfprintf.o)
                0x08015e28                _vfprintf_r
                0x08015e28                _vfiprintf_r
 .text.vfprintf
                0x08016088       0x14 d:/mcha3500_windows_toolchain/toolchain/gcc-arm-none-eabi/bin/../lib/gcc/arm-none-eabi/9.2.1/../../../../arm-none-eabi/lib/thumb/v7e-m+fp/hard\libc_nano.a(lib_a-nano-vfprintf.o)
                0x08016088                vfprintf
                0x08016088                vfiprintf
 .text.__srget_r
                0x0801609c       0x58 d:/mcha3500_windows_toolchain/toolchain/gcc-arm-none-eabi/bin/../lib/gcc/arm-none-eabi/9.2.1/../../../../arm-none-eabi/lib/thumb/v7e-m+fp/hard\libc_nano.a(lib_a-rget.o)
                0x0801609c                __srget_r
 .text.__srget  0x080160f4       0x10 d:/mcha3500_windows_toolchain/toolchain/gcc-arm-none-eabi/bin/../lib/gcc/arm-none-eabi/9.2.1/../../../../arm-none-eabi/lib/thumb/v7e-m+fp/hard\libc_nano.a(lib_a-rget.o)
                0x080160f4                __srget
 *fill*         0x08016104        0x4 
 .text.nan      0x08016108       0x10 d:/mcha3500_windows_toolchain/toolchain/gcc-arm-none-eabi/bin/../lib/gcc/arm-none-eabi/9.2.1/../../../../arm-none-eabi/lib/thumb/v7e-m+fp/hard\libc_nano.a(lib_a-s_nan.o)
                0x08016108                nan
 .text.__sread  0x08016118       0x22 d:/mcha3500_windows_toolchain/toolchain/gcc-arm-none-eabi/bin/../lib/gcc/arm-none-eabi/9.2.1/../../../../arm-none-eabi/lib/thumb/v7e-m+fp/hard\libc_nano.a(lib_a-stdio.o)
                0x08016118                __sread
 .text.__seofread
                0x0801613a        0x4 d:/mcha3500_windows_toolchain/toolchain/gcc-arm-none-eabi/bin/../lib/gcc/arm-none-eabi/9.2.1/../../../../arm-none-eabi/lib/thumb/v7e-m+fp/hard\libc_nano.a(lib_a-stdio.o)
                0x0801613a                __seofread
 .text.__swrite
                0x0801613e       0x38 d:/mcha3500_windows_toolchain/toolchain/gcc-arm-none-eabi/bin/../lib/gcc/arm-none-eabi/9.2.1/../../../../arm-none-eabi/lib/thumb/v7e-m+fp/hard\libc_nano.a(lib_a-stdio.o)
                0x0801613e                __swrite
 .text.__sseek  0x08016176       0x24 d:/mcha3500_windows_toolchain/toolchain/gcc-arm-none-eabi/bin/../lib/gcc/arm-none-eabi/9.2.1/../../../../arm-none-eabi/lib/thumb/v7e-m+fp/hard\libc_nano.a(lib_a-stdio.o)
                0x08016176                __sseek
 .text.__sclose
                0x0801619a        0x8 d:/mcha3500_windows_toolchain/toolchain/gcc-arm-none-eabi/bin/../lib/gcc/arm-none-eabi/9.2.1/../../../../arm-none-eabi/lib/thumb/v7e-m+fp/hard\libc_nano.a(lib_a-stdio.o)
                0x0801619a                __sclose
 .text.strncmp  0x080161a2       0x24 d:/mcha3500_windows_toolchain/toolchain/gcc-arm-none-eabi/bin/../lib/gcc/arm-none-eabi/9.2.1/../../../../arm-none-eabi/lib/thumb/v7e-m+fp/hard\libc_nano.a(lib_a-strncmp.o)
                0x080161a2                strncmp
 *fill*         0x080161c6        0x2 
 .text.__swbuf_r
                0x080161c8       0xa4 d:/mcha3500_windows_toolchain/toolchain/gcc-arm-none-eabi/bin/../lib/gcc/arm-none-eabi/9.2.1/../../../../arm-none-eabi/lib/thumb/v7e-m+fp/hard\libc_nano.a(lib_a-wbuf.o)
                0x080161c8                __swbuf_r
 .text.__swbuf  0x0801626c       0x10 d:/mcha3500_windows_toolchain/toolchain/gcc-arm-none-eabi/bin/../lib/gcc/arm-none-eabi/9.2.1/../../../../arm-none-eabi/lib/thumb/v7e-m+fp/hard\libc_nano.a(lib_a-wbuf.o)
                0x0801626c                __swbuf
 .text._wctomb_r
                0x0801627c       0x14 d:/mcha3500_windows_toolchain/toolchain/gcc-arm-none-eabi/bin/../lib/gcc/arm-none-eabi/9.2.1/../../../../arm-none-eabi/lib/thumb/v7e-m+fp/hard\libc_nano.a(lib_a-wctomb_r.o)
                0x0801627c                _wctomb_r
 .text.__ascii_wctomb
                0x08016290       0x1a d:/mcha3500_windows_toolchain/toolchain/gcc-arm-none-eabi/bin/../lib/gcc/arm-none-eabi/9.2.1/../../../../arm-none-eabi/lib/thumb/v7e-m+fp/hard\libc_nano.a(lib_a-wctomb_r.o)
                0x08016290                __ascii_wctomb
 *fill*         0x080162aa        0x2 
 .text._write_r
                0x080162ac       0x24 d:/mcha3500_windows_toolchain/toolchain/gcc-arm-none-eabi/bin/../lib/gcc/arm-none-eabi/9.2.1/../../../../arm-none-eabi/lib/thumb/v7e-m+fp/hard\libc_nano.a(lib_a-writer.o)
                0x080162ac                _write_r
 .text.__swsetup_r
                0x080162d0       0xdc d:/mcha3500_windows_toolchain/toolchain/gcc-arm-none-eabi/bin/../lib/gcc/arm-none-eabi/9.2.1/../../../../arm-none-eabi/lib/thumb/v7e-m+fp/hard\libc_nano.a(lib_a-wsetup.o)
                0x080162d0                __swsetup_r
 .text._close_r
                0x080163ac       0x20 d:/mcha3500_windows_toolchain/toolchain/gcc-arm-none-eabi/bin/../lib/gcc/arm-none-eabi/9.2.1/../../../../arm-none-eabi/lib/thumb/v7e-m+fp/hard\libc_nano.a(lib_a-closer.o)
                0x080163ac                _close_r
 .text._fstat_r
                0x080163cc       0x24 d:/mcha3500_windows_toolchain/toolchain/gcc-arm-none-eabi/bin/../lib/gcc/arm-none-eabi/9.2.1/../../../../arm-none-eabi/lib/thumb/v7e-m+fp/hard\libc_nano.a(lib_a-fstatr.o)
                0x080163cc                _fstat_r
 .text.__sfvwrite_r
                0x080163f0      0x294 d:/mcha3500_windows_toolchain/toolchain/gcc-arm-none-eabi/bin/../lib/gcc/arm-none-eabi/9.2.1/../../../../arm-none-eabi/lib/thumb/v7e-m+fp/hard\libc_nano.a(lib_a-fvwrite.o)
                0x080163f0                __sfvwrite_r
 .text._isatty_r
                0x08016684       0x20 d:/mcha3500_windows_toolchain/toolchain/gcc-arm-none-eabi/bin/../lib/gcc/arm-none-eabi/9.2.1/../../../../arm-none-eabi/lib/thumb/v7e-m+fp/hard\libc_nano.a(lib_a-isattyr.o)
                0x08016684                _isatty_r
 .text._lseek_r
                0x080166a4       0x24 d:/mcha3500_windows_toolchain/toolchain/gcc-arm-none-eabi/bin/../lib/gcc/arm-none-eabi/9.2.1/../../../../arm-none-eabi/lib/thumb/v7e-m+fp/hard\libc_nano.a(lib_a-lseekr.o)
                0x080166a4                _lseek_r
 .text.memmove  0x080166c8       0x34 d:/mcha3500_windows_toolchain/toolchain/gcc-arm-none-eabi/bin/../lib/gcc/arm-none-eabi/9.2.1/../../../../arm-none-eabi/lib/thumb/v7e-m+fp/hard\libc_nano.a(lib_a-memmove.o)
                0x080166c8                memmove
 .text._realloc_r
                0x080166fc       0x4c d:/mcha3500_windows_toolchain/toolchain/gcc-arm-none-eabi/bin/../lib/gcc/arm-none-eabi/9.2.1/../../../../arm-none-eabi/lib/thumb/v7e-m+fp/hard\libc_nano.a(lib_a-nano-reallocr.o)
                0x080166fc                _realloc_r
 .text._read_r  0x08016748       0x24 d:/mcha3500_windows_toolchain/toolchain/gcc-arm-none-eabi/bin/../lib/gcc/arm-none-eabi/9.2.1/../../../../arm-none-eabi/lib/thumb/v7e-m+fp/hard\libc_nano.a(lib_a-readr.o)
                0x08016748                _read_r
 .text.lflush   0x0801676c       0x12 d:/mcha3500_windows_toolchain/toolchain/gcc-arm-none-eabi/bin/../lib/gcc/arm-none-eabi/9.2.1/../../../../arm-none-eabi/lib/thumb/v7e-m+fp/hard\libc_nano.a(lib_a-refill.o)
 *fill*         0x0801677e        0x2 
 .text.__srefill_r
                0x08016780      0x114 d:/mcha3500_windows_toolchain/toolchain/gcc-arm-none-eabi/bin/../lib/gcc/arm-none-eabi/9.2.1/../../../../arm-none-eabi/lib/thumb/v7e-m+fp/hard\libc_nano.a(lib_a-refill.o)
                0x08016780                __srefill_r
 .text._malloc_usable_size_r
                0x08016894       0x10 d:/mcha3500_windows_toolchain/toolchain/gcc-arm-none-eabi/bin/../lib/gcc/arm-none-eabi/9.2.1/../../../../arm-none-eabi/lib/thumb/v7e-m+fp/hard\libc_nano.a(lib_a-nano-msizer.o)
                0x08016894                _malloc_usable_size_r
 .text._close   0x080168a4       0x10 d:/mcha3500_windows_toolchain/toolchain/gcc-arm-none-eabi/bin/../lib/gcc/arm-none-eabi/9.2.1/../../../../arm-none-eabi/lib/thumb/v7e-m+fp/hard\libnosys.a(close.o)
                0x080168a4                _close
 .text._fstat   0x080168b4       0x10 d:/mcha3500_windows_toolchain/toolchain/gcc-arm-none-eabi/bin/../lib/gcc/arm-none-eabi/9.2.1/../../../../arm-none-eabi/lib/thumb/v7e-m+fp/hard\libnosys.a(fstat.o)
                0x080168b4                _fstat
 .text._isatty  0x080168c4       0x10 d:/mcha3500_windows_toolchain/toolchain/gcc-arm-none-eabi/bin/../lib/gcc/arm-none-eabi/9.2.1/../../../../arm-none-eabi/lib/thumb/v7e-m+fp/hard\libnosys.a(isatty.o)
                0x080168c4                _isatty
 .text._lseek   0x080168d4       0x10 d:/mcha3500_windows_toolchain/toolchain/gcc-arm-none-eabi/bin/../lib/gcc/arm-none-eabi/9.2.1/../../../../arm-none-eabi/lib/thumb/v7e-m+fp/hard\libnosys.a(lseek.o)
                0x080168d4                _lseek
 .text._exit    0x080168e4        0x4 d:/mcha3500_windows_toolchain/toolchain/gcc-arm-none-eabi/bin/../lib/gcc/arm-none-eabi/9.2.1/../../../../arm-none-eabi/lib/thumb/v7e-m+fp/hard\libnosys.a(_exit.o)
                0x080168e4                _exit
 *(.glue_7)
 .glue_7        0x080168e8        0x0 linker stubs
 *(.glue_7t)
 .glue_7t       0x080168e8        0x0 linker stubs
 *(.eh_frame)
 .eh_frame      0x080168e8        0x0 d:/mcha3500_windows_toolchain/toolchain/gcc-arm-none-eabi/bin/../lib/gcc/arm-none-eabi/9.2.1/thumb/v7e-m+fp/hard/crtbegin.o
 .eh_frame      0x080168e8        0x4 d:/mcha3500_windows_toolchain/toolchain/gcc-arm-none-eabi/bin/../lib/gcc/arm-none-eabi/9.2.1/thumb/v7e-m+fp/hard/crtend.o
 *(.init)
 .init          0x080168ec        0x4 d:/mcha3500_windows_toolchain/toolchain/gcc-arm-none-eabi/bin/../lib/gcc/arm-none-eabi/9.2.1/thumb/v7e-m+fp/hard/crti.o
                0x080168ec                _init
 .init          0x080168f0        0x8 d:/mcha3500_windows_toolchain/toolchain/gcc-arm-none-eabi/bin/../lib/gcc/arm-none-eabi/9.2.1/thumb/v7e-m+fp/hard/crtn.o
 *(.fini)
 .fini          0x080168f8        0x4 d:/mcha3500_windows_toolchain/toolchain/gcc-arm-none-eabi/bin/../lib/gcc/arm-none-eabi/9.2.1/thumb/v7e-m+fp/hard/crti.o
                0x080168f8                _fini
 .fini          0x080168fc        0x8 d:/mcha3500_windows_toolchain/toolchain/gcc-arm-none-eabi/bin/../lib/gcc/arm-none-eabi/9.2.1/thumb/v7e-m+fp/hard/crtn.o
                0x08016904                . = ALIGN (0x4)
                0x08016904                _etext = .

.vfp11_veneer   0x08016904        0x0
 .vfp11_veneer  0x08016904        0x0 linker stubs

.v4_bx          0x08016904        0x0
 .v4_bx         0x08016904        0x0 linker stubs

.iplt           0x08016904        0x0
 .iplt          0x08016904        0x0 d:/mcha3500_windows_toolchain/toolchain/gcc-arm-none-eabi/bin/../lib/gcc/arm-none-eabi/9.2.1/thumb/v7e-m+fp/hard/crtbegin.o

.rodata         0x08016908      0xc40
                0x08016908                . = ALIGN (0x4)
 *(.rodata)
 .rodata        0x08016908       0x18 build/system_stm32f4xx.o
                0x08016908                AHBPrescTable
                0x08016918                APBPrescTable
 .rodata        0x08016920       0x50 build/cmd_parser.o
 .rodata        0x08016970       0x24 build/cmd_task.o
                0x08016970                cmdTask_attr
 .rodata        0x08016994        0x8 build/stm32f4_HAL/stm32f4xx_hal_dma.o
 .rodata        0x0801699c        0x8 build/stm32f4_HAL/stm32f4xx_ll_dma.o
 .rodata        0x080169a4        0x5 build/FreeRTOS/cmsis_os2.o
 *(.rodata*)
 .rodata.str1.1
                0x080169a9       0x25 build/cmd_line_buffer.o
 .rodata.str1.1
                0x080169ce      0x652 build/cmd_parser.o
                                0x65c (size before relaxing)
 .rodata.str1.1
                0x08017020        0xe build/cmd_task.o
 .rodata.str1.1
                0x0801702e       0x7e build/uart.o
 .rodata.str1.1
                0x080170ac        0xa build/heartbeat_task.o
 .rodata.str1.1
                0x080170ac       0xb4 build/heartbeat_cmd.o
 .rodata.str1.1
                0x08017160        0xa build/dummy_task.o
 .rodata.str1.1
                0x08017160        0x7 build/data_logging.o
 .rodata.str1.1
                0x08017167        0x5 build/FreeRTOS/tasks.o
 .rodata.str1.1
                0x0801716c        0x8 build/FreeRTOS/timers.o
 .rodata.str1.1
                0x08017174       0x11 build/FreeRTOS/cmsis_os2.o
 .rodata._ctype_
                0x08017185      0x101 d:/mcha3500_windows_toolchain/toolchain/gcc-arm-none-eabi/bin/../lib/gcc/arm-none-eabi/9.2.1/../../../../arm-none-eabi/lib/thumb/v7e-m+fp/hard\libc_nano.a(lib_a-ctype_.o)
                0x08017185                _ctype_
 *fill*         0x08017286        0x2 
 .rodata._global_impure_ptr
                0x08017288        0x4 d:/mcha3500_windows_toolchain/toolchain/gcc-arm-none-eabi/bin/../lib/gcc/arm-none-eabi/9.2.1/../../../../arm-none-eabi/lib/thumb/v7e-m+fp/hard\libc_nano.a(lib_a-impure.o)
                0x08017288                _global_impure_ptr
 .rodata._mstats_r.str1.1
                0x0801728c       0x21 d:/mcha3500_windows_toolchain/toolchain/gcc-arm-none-eabi/bin/../lib/gcc/arm-none-eabi/9.2.1/../../../../arm-none-eabi/lib/thumb/v7e-m+fp/hard\libc_nano.a(lib_a-mstats.o)
 .rodata._malloc_stats_r.str1.1
                0x080172ad       0x4b d:/mcha3500_windows_toolchain/toolchain/gcc-arm-none-eabi/bin/../lib/gcc/arm-none-eabi/9.2.1/../../../../arm-none-eabi/lib/thumb/v7e-m+fp/hard\libc_nano.a(lib_a-nano-mallstatsr.o)
 .rodata._printf_float.str1.1
                0x080172f8       0x12 d:/mcha3500_windows_toolchain/toolchain/gcc-arm-none-eabi/bin/../lib/gcc/arm-none-eabi/9.2.1/../../../../arm-none-eabi/lib/thumb/v7e-m+fp/hard\libc_nano.a(lib_a-nano-vfprintf_float.o)
 .rodata._printf_i.str1.1
                0x0801730a       0x22 d:/mcha3500_windows_toolchain/toolchain/gcc-arm-none-eabi/bin/../lib/gcc/arm-none-eabi/9.2.1/../../../../arm-none-eabi/lib/thumb/v7e-m+fp/hard\libc_nano.a(lib_a-nano-vfprintf_i.o)
 .rodata._scanf_float.str1.1
                0x0801732c        0x5 d:/mcha3500_windows_toolchain/toolchain/gcc-arm-none-eabi/bin/../lib/gcc/arm-none-eabi/9.2.1/../../../../arm-none-eabi/lib/thumb/v7e-m+fp/hard\libc_nano.a(lib_a-nano-vfscanf_float.o)
                                  0x6 (size before relaxing)
 .rodata._strtod_l.str1.1
                0x08017331        0x5 d:/mcha3500_windows_toolchain/toolchain/gcc-arm-none-eabi/bin/../lib/gcc/arm-none-eabi/9.2.1/../../../../arm-none-eabi/lib/thumb/v7e-m+fp/hard\libc_nano.a(lib_a-strtod.o)
                                  0xd (size before relaxing)
 *fill*         0x08017331        0x3 
 .rodata.fpi.7566
                0x08017334       0x14 d:/mcha3500_windows_toolchain/toolchain/gcc-arm-none-eabi/bin/../lib/gcc/arm-none-eabi/9.2.1/../../../../arm-none-eabi/lib/thumb/v7e-m+fp/hard\libc_nano.a(lib_a-strtod.o)
 .rodata.fpinan.7602
                0x08017348       0x14 d:/mcha3500_windows_toolchain/toolchain/gcc-arm-none-eabi/bin/../lib/gcc/arm-none-eabi/9.2.1/../../../../arm-none-eabi/lib/thumb/v7e-m+fp/hard\libc_nano.a(lib_a-strtod.o)
 *fill*         0x0801735c        0x4 
 .rodata.tinytens
                0x08017360       0x28 d:/mcha3500_windows_toolchain/toolchain/gcc-arm-none-eabi/bin/../lib/gcc/arm-none-eabi/9.2.1/../../../../arm-none-eabi/lib/thumb/v7e-m+fp/hard\libc_nano.a(lib_a-strtod.o)
 .rodata._dtoa_r.str1.1
                0x08017388        0xd d:/mcha3500_windows_toolchain/toolchain/gcc-arm-none-eabi/bin/../lib/gcc/arm-none-eabi/9.2.1/../../../../arm-none-eabi/lib/thumb/v7e-m+fp/hard\libc_nano.a(lib_a-dtoa.o)
                                  0xf (size before relaxing)
 *fill*         0x08017395        0x3 
 .rodata.__sf_fake_stderr
                0x08017398       0x20 d:/mcha3500_windows_toolchain/toolchain/gcc-arm-none-eabi/bin/../lib/gcc/arm-none-eabi/9.2.1/../../../../arm-none-eabi/lib/thumb/v7e-m+fp/hard\libc_nano.a(lib_a-findfp.o)
                0x08017398                __sf_fake_stderr
 .rodata.__sf_fake_stdin
                0x080173b8       0x20 d:/mcha3500_windows_toolchain/toolchain/gcc-arm-none-eabi/bin/../lib/gcc/arm-none-eabi/9.2.1/../../../../arm-none-eabi/lib/thumb/v7e-m+fp/hard\libc_nano.a(lib_a-findfp.o)
                0x080173b8                __sf_fake_stdin
 .rodata.__sf_fake_stdout
                0x080173d8       0x20 d:/mcha3500_windows_toolchain/toolchain/gcc-arm-none-eabi/bin/../lib/gcc/arm-none-eabi/9.2.1/../../../../arm-none-eabi/lib/thumb/v7e-m+fp/hard\libc_nano.a(lib_a-findfp.o)
                0x080173d8                __sf_fake_stdout
 .rodata.str1.1
                0x080173f8        0xd d:/mcha3500_windows_toolchain/toolchain/gcc-arm-none-eabi/bin/../lib/gcc/arm-none-eabi/9.2.1/../../../../arm-none-eabi/lib/thumb/v7e-m+fp/hard\libc_nano.a(lib_a-lnumeric.o)
                                  0x3 (size before relaxing)
 .rodata._C_numeric_locale
                0x080173f8        0xc d:/mcha3500_windows_toolchain/toolchain/gcc-arm-none-eabi/bin/../lib/gcc/arm-none-eabi/9.2.1/../../../../arm-none-eabi/lib/thumb/v7e-m+fp/hard\libc_nano.a(lib_a-lnumeric.o)
                0x080173f8                _C_numeric_locale
 .rodata._setlocale_r.str1.1
                0x08017404        0x8 d:/mcha3500_windows_toolchain/toolchain/gcc-arm-none-eabi/bin/../lib/gcc/arm-none-eabi/9.2.1/../../../../arm-none-eabi/lib/thumb/v7e-m+fp/hard\libc_nano.a(lib_a-locale.o)
                                  0x9 (size before relaxing)
 .rodata.str1.1
                0x0801740c        0x2 d:/mcha3500_windows_toolchain/toolchain/gcc-arm-none-eabi/bin/../lib/gcc/arm-none-eabi/9.2.1/../../../../arm-none-eabi/lib/thumb/v7e-m+fp/hard\libc_nano.a(lib_a-locale.o)
 *fill*         0x0801740c        0x4 
 .rodata.__mprec_bigtens
                0x08017410       0x28 d:/mcha3500_windows_toolchain/toolchain/gcc-arm-none-eabi/bin/../lib/gcc/arm-none-eabi/9.2.1/../../../../arm-none-eabi/lib/thumb/v7e-m+fp/hard\libc_nano.a(lib_a-mprec.o)
                0x08017410                __mprec_bigtens
 .rodata.__mprec_tens
                0x08017438       0xc8 d:/mcha3500_windows_toolchain/toolchain/gcc-arm-none-eabi/bin/../lib/gcc/arm-none-eabi/9.2.1/../../../../arm-none-eabi/lib/thumb/v7e-m+fp/hard\libc_nano.a(lib_a-mprec.o)
                0x08017438                __mprec_tens
 .rodata.__mprec_tinytens
                0x08017500       0x28 d:/mcha3500_windows_toolchain/toolchain/gcc-arm-none-eabi/bin/../lib/gcc/arm-none-eabi/9.2.1/../../../../arm-none-eabi/lib/thumb/v7e-m+fp/hard\libc_nano.a(lib_a-mprec.o)
                0x08017500                __mprec_tinytens
 .rodata.p05.7490
                0x08017528        0xc d:/mcha3500_windows_toolchain/toolchain/gcc-arm-none-eabi/bin/../lib/gcc/arm-none-eabi/9.2.1/../../../../arm-none-eabi/lib/thumb/v7e-m+fp/hard\libc_nano.a(lib_a-mprec.o)
 .rodata._svfprintf_r.str1.1
                0x08017534       0x11 d:/mcha3500_windows_toolchain/toolchain/gcc-arm-none-eabi/bin/../lib/gcc/arm-none-eabi/9.2.1/../../../../arm-none-eabi/lib/thumb/v7e-m+fp/hard\libc_nano.a(lib_a-nano-svfprintf.o)
 .rodata._vfprintf_r.str1.1
                0x08017545       0x11 d:/mcha3500_windows_toolchain/toolchain/gcc-arm-none-eabi/bin/../lib/gcc/arm-none-eabi/9.2.1/../../../../arm-none-eabi/lib/thumb/v7e-m+fp/hard\libc_nano.a(lib_a-nano-vfprintf.o)
                0x08017558                . = ALIGN (0x4)
 *fill*         0x08017545        0x3 

.ARM.extab      0x08017548        0x0
 *(.ARM.extab* .gnu.linkonce.armextab.*)
 .ARM.extab     0x08017548        0x0 d:/mcha3500_windows_toolchain/toolchain/gcc-arm-none-eabi/bin/../lib/gcc/arm-none-eabi/9.2.1/../../../../arm-none-eabi/lib/thumb/v7e-m+fp/hard/crt0.o
 .ARM.extab     0x08017548        0x0 d:/mcha3500_windows_toolchain/toolchain/gcc-arm-none-eabi/bin/../lib/gcc/arm-none-eabi/9.2.1/thumb/v7e-m+fp/hard\libgcc.a(_udivmoddi4.o)

.ARM            0x08017548        0x8
                0x08017548                __exidx_start = .
 *(.ARM.exidx*)
 .ARM.exidx     0x08017548        0x8 d:/mcha3500_windows_toolchain/toolchain/gcc-arm-none-eabi/bin/../lib/gcc/arm-none-eabi/9.2.1/../../../../arm-none-eabi/lib/thumb/v7e-m+fp/hard/crt0.o
 .ARM.exidx     0x08017550        0x0 d:/mcha3500_windows_toolchain/toolchain/gcc-arm-none-eabi/bin/../lib/gcc/arm-none-eabi/9.2.1/thumb/v7e-m+fp/hard\libgcc.a(_udivmoddi4.o)
                                  0x8 (size before relaxing)
                0x08017550                __exidx_end = .

.rel.dyn        0x08017550        0x0
 .rel.iplt      0x08017550        0x0 d:/mcha3500_windows_toolchain/toolchain/gcc-arm-none-eabi/bin/../lib/gcc/arm-none-eabi/9.2.1/thumb/v7e-m+fp/hard/crtbegin.o

.preinit_array  0x08017550        0x0
                0x08017550                PROVIDE (__preinit_array_start = .)
 *(.preinit_array*)
                0x08017550                PROVIDE (__preinit_array_end = .)

.init_array     0x08017550        0x4
                0x08017550                PROVIDE (__init_array_start = .)
 *(SORT_BY_NAME(.init_array.*))
 *(.init_array*)
 .init_array    0x08017550        0x4 d:/mcha3500_windows_toolchain/toolchain/gcc-arm-none-eabi/bin/../lib/gcc/arm-none-eabi/9.2.1/thumb/v7e-m+fp/hard/crtbegin.o
                0x08017554                PROVIDE (__init_array_end = .)

.fini_array     0x08017554        0x4
                [!provide]                PROVIDE (__fini_array_start = .)
 *(SORT_BY_NAME(.fini_array.*))
 *(.fini_array*)
 .fini_array    0x08017554        0x4 d:/mcha3500_windows_toolchain/toolchain/gcc-arm-none-eabi/bin/../lib/gcc/arm-none-eabi/9.2.1/thumb/v7e-m+fp/hard/crtbegin.o
                [!provide]                PROVIDE (__fini_array_end = .)
                0x08017558                _sidata = LOADADDR (.data)

.data           0x20000000      0x250 load address 0x08017558
                0x20000000                . = ALIGN (0x4)
                0x20000000                _sdata = .
 *(.data)
 .data          0x20000000        0x0 d:/mcha3500_windows_toolchain/toolchain/gcc-arm-none-eabi/bin/../lib/gcc/arm-none-eabi/9.2.1/thumb/v7e-m+fp/hard/crti.o
 .data          0x20000000        0x4 d:/mcha3500_windows_toolchain/toolchain/gcc-arm-none-eabi/bin/../lib/gcc/arm-none-eabi/9.2.1/thumb/v7e-m+fp/hard/crtbegin.o
                0x20000000                __dso_handle
 .data          0x20000004        0x0 d:/mcha3500_windows_toolchain/toolchain/gcc-arm-none-eabi/bin/../lib/gcc/arm-none-eabi/9.2.1/../../../../arm-none-eabi/lib/thumb/v7e-m+fp/hard/crt0.o
 .data          0x20000004        0x0 build/stm32f4xx_it.o
 .data          0x20000004        0x4 build/system_stm32f4xx.o
                0x20000004                SystemCoreClock
 .data          0x20000008        0x0 build/cmd_line_buffer.o
 .data          0x20000008        0x0 build/cmd_parser.o
 .data          0x20000008        0x8 build/cmd_task.o
 .data          0x20000010        0x0 build/main.o
 .data          0x20000010       0x10 build/uart.o
 .data          0x20000020       0x24 build/heartbeat_task.o
 .data          0x20000044        0x0 build/heartbeat_cmd.o
 .data          0x20000044       0x24 build/dummy_task.o
 .data          0x20000068        0x0 build/pendulum.o
 .data          0x20000068        0x0 build/motor.o
 .data          0x20000068        0x0 build/data_logging.o
 .data          0x20000068        0x0 build/startup_stm32f446xx.o
 .data          0x20000068        0x8 build/stm32f4_HAL/stm32f4xx_hal.o
                0x20000068                uwTickFreq
                0x2000006c                uwTickPrio
 .data          0x20000070        0x0 build/stm32f4_HAL/stm32f4xx_hal_dma.o
 .data          0x20000070        0x0 build/stm32f4_HAL/stm32f4xx_hal_adc.o
 .data          0x20000070        0x0 build/stm32f4_HAL/stm32f4xx_hal_adc_ex.o
 .data          0x20000070        0x0 build/stm32f4_HAL/stm32f4xx_hal_gpio.o
 .data          0x20000070        0x0 build/stm32f4_HAL/stm32f4xx_ll_gpio.o
 .data          0x20000070        0x0 build/stm32f4_HAL/stm32f4xx_ll_usart.o
 .data          0x20000070        0x0 build/stm32f4_HAL/stm32f4xx_ll_dma.o
 .data          0x20000070        0x0 build/stm32f4_HAL/stm32f4xx_ll_rcc.o
 .data          0x20000070        0x0 build/stm32f4_HAL/stm32f4xx_hal_i2c.o
 .data          0x20000070        0x0 build/stm32f4_HAL/stm32f4xx_hal_i2c_ex.o
 .data          0x20000070        0x0 build/stm32f4_HAL/stm32f4xx_hal_tim.o
 .data          0x20000070        0x0 build/stm32f4_HAL/stm32f4xx_hal_tim_ex.o
 .data          0x20000070        0x0 build/stm32f4_HAL/stm32f4xx_hal_rtc.o
 .data          0x20000070        0x0 build/stm32f4_HAL/stm32f4xx_hal_rcc.o
 .data          0x20000070        0x0 build/stm32f4_HAL/stm32f4xx_hal_rcc_ex.o
 .data          0x20000070        0x0 build/stm32f4_HAL/stm32f4xx_hal_pwr.o
 .data          0x20000070        0x0 build/stm32f4_HAL/stm32f4xx_hal_pwr_ex.o
 .data          0x20000070        0x0 build/stm32f4_HAL/stm32f4xx_hal_cortex.o
 .data          0x20000070        0x0 build/stm32f4_HAL/stm32f4xx_hal_spi.o
 .data          0x20000070        0x0 build/stm32f4_HAL/stm32f4xx_hal_dac.o
 .data          0x20000070        0x0 build/stm32f4_HAL/stm32f4xx_hal_dac_ex.o
 .data          0x20000070        0x0 build/stm32f4_HAL/stm32f4xx_hal_can.o
 .data          0x20000070        0x0 build/FreeRTOS/croutine.o
 .data          0x20000070        0x0 build/FreeRTOS/event_groups.o
 .data          0x20000070        0x0 build/FreeRTOS/list.o
 .data          0x20000070        0x0 build/FreeRTOS/queue.o
 .data          0x20000070        0x0 build/FreeRTOS/tasks.o
 .data          0x20000070        0x0 build/FreeRTOS/timers.o
 .data          0x20000070        0x0 build/FreeRTOS/stream_buffer.o
 .data          0x20000070        0x0 build/FreeRTOS/cmsis_os2.o
 .data          0x20000070        0x0 build/FreeRTOS/clib_arm.o
 .data          0x20000070        0x0 build/FreeRTOS/os_systick.o
 .data          0x20000070        0x8 build/FreeRTOS/heap_useNewlib.o
 .data          0x20000078        0x4 build/FreeRTOS/port.o
 .data          0x2000007c        0x0 d:/mcha3500_windows_toolchain/toolchain/gcc-arm-none-eabi/bin/../lib/gcc/arm-none-eabi/9.2.1/thumb/v7e-m+fp/hard\libgcc.a(_arm_muldf3.o)
 .data          0x2000007c        0x0 d:/mcha3500_windows_toolchain/toolchain/gcc-arm-none-eabi/bin/../lib/gcc/arm-none-eabi/9.2.1/thumb/v7e-m+fp/hard\libgcc.a(_arm_addsubdf3.o)
 .data          0x2000007c        0x0 d:/mcha3500_windows_toolchain/toolchain/gcc-arm-none-eabi/bin/../lib/gcc/arm-none-eabi/9.2.1/thumb/v7e-m+fp/hard\libgcc.a(_arm_truncdfsf2.o)
 .data          0x2000007c        0x0 d:/mcha3500_windows_toolchain/toolchain/gcc-arm-none-eabi/bin/../lib/gcc/arm-none-eabi/9.2.1/thumb/v7e-m+fp/hard\libgcc.a(_aeabi_ldivmod.o)
 .data          0x2000007c        0x0 d:/mcha3500_windows_toolchain/toolchain/gcc-arm-none-eabi/bin/../lib/gcc/arm-none-eabi/9.2.1/thumb/v7e-m+fp/hard\libgcc.a(_aeabi_uldivmod.o)
 .data          0x2000007c        0x0 d:/mcha3500_windows_toolchain/toolchain/gcc-arm-none-eabi/bin/../lib/gcc/arm-none-eabi/9.2.1/thumb/v7e-m+fp/hard\libgcc.a(_udivmoddi4.o)
 .data          0x2000007c        0x0 d:/mcha3500_windows_toolchain/toolchain/gcc-arm-none-eabi/bin/../lib/gcc/arm-none-eabi/9.2.1/thumb/v7e-m+fp/hard\libgcc.a(_dvmd_tls.o)
 .data          0x2000007c        0x0 d:/mcha3500_windows_toolchain/toolchain/gcc-arm-none-eabi/bin/../lib/gcc/arm-none-eabi/9.2.1/../../../../arm-none-eabi/lib/thumb/v7e-m+fp/hard\libc_nano.a(lib_a-ctype_.o)
 .data          0x2000007c        0x0 d:/mcha3500_windows_toolchain/toolchain/gcc-arm-none-eabi/bin/../lib/gcc/arm-none-eabi/9.2.1/../../../../arm-none-eabi/lib/thumb/v7e-m+fp/hard\libc_nano.a(lib_a-exit.o)
 .data          0x2000007c        0x0 d:/mcha3500_windows_toolchain/toolchain/gcc-arm-none-eabi/bin/../lib/gcc/arm-none-eabi/9.2.1/../../../../arm-none-eabi/lib/thumb/v7e-m+fp/hard\libc_nano.a(lib_a-getchar.o)
 .data          0x2000007c        0x0 d:/mcha3500_windows_toolchain/toolchain/gcc-arm-none-eabi/bin/../lib/gcc/arm-none-eabi/9.2.1/../../../../arm-none-eabi/lib/thumb/v7e-m+fp/hard\libc_nano.a(lib_a-impure.o)
 .data          0x2000007c        0x0 d:/mcha3500_windows_toolchain/toolchain/gcc-arm-none-eabi/bin/../lib/gcc/arm-none-eabi/9.2.1/../../../../arm-none-eabi/lib/thumb/v7e-m+fp/hard\libc_nano.a(lib_a-init.o)
 .data          0x2000007c        0x0 d:/mcha3500_windows_toolchain/toolchain/gcc-arm-none-eabi/bin/../lib/gcc/arm-none-eabi/9.2.1/../../../../arm-none-eabi/lib/thumb/v7e-m+fp/hard\libc_nano.a(lib_a-malloc.o)
 .data          0x2000007c        0x0 d:/mcha3500_windows_toolchain/toolchain/gcc-arm-none-eabi/bin/../lib/gcc/arm-none-eabi/9.2.1/../../../../arm-none-eabi/lib/thumb/v7e-m+fp/hard\libc_nano.a(lib_a-memcpy-stub.o)
 .data          0x2000007c        0x0 d:/mcha3500_windows_toolchain/toolchain/gcc-arm-none-eabi/bin/../lib/gcc/arm-none-eabi/9.2.1/../../../../arm-none-eabi/lib/thumb/v7e-m+fp/hard\libc_nano.a(lib_a-memset.o)
 .data          0x2000007c        0x0 d:/mcha3500_windows_toolchain/toolchain/gcc-arm-none-eabi/bin/../lib/gcc/arm-none-eabi/9.2.1/../../../../arm-none-eabi/lib/thumb/v7e-m+fp/hard\libc_nano.a(lib_a-mstats.o)
 .data          0x2000007c        0x0 d:/mcha3500_windows_toolchain/toolchain/gcc-arm-none-eabi/bin/../lib/gcc/arm-none-eabi/9.2.1/../../../../arm-none-eabi/lib/thumb/v7e-m+fp/hard\libc_nano.a(lib_a-nano-freer.o)
 .data          0x2000007c        0x0 d:/mcha3500_windows_toolchain/toolchain/gcc-arm-none-eabi/bin/../lib/gcc/arm-none-eabi/9.2.1/../../../../arm-none-eabi/lib/thumb/v7e-m+fp/hard\libc_nano.a(lib_a-nano-mallinfor.o)
 .data          0x2000007c        0x0 d:/mcha3500_windows_toolchain/toolchain/gcc-arm-none-eabi/bin/../lib/gcc/arm-none-eabi/9.2.1/../../../../arm-none-eabi/lib/thumb/v7e-m+fp/hard\libc_nano.a(lib_a-nano-mallocr.o)
 .data          0x2000007c        0x0 d:/mcha3500_windows_toolchain/toolchain/gcc-arm-none-eabi/bin/../lib/gcc/arm-none-eabi/9.2.1/../../../../arm-none-eabi/lib/thumb/v7e-m+fp/hard\libc_nano.a(lib_a-nano-malloptr.o)
 .data          0x2000007c        0x0 d:/mcha3500_windows_toolchain/toolchain/gcc-arm-none-eabi/bin/../lib/gcc/arm-none-eabi/9.2.1/../../../../arm-none-eabi/lib/thumb/v7e-m+fp/hard\libc_nano.a(lib_a-nano-mallstatsr.o)
 .data          0x2000007c        0x0 d:/mcha3500_windows_toolchain/toolchain/gcc-arm-none-eabi/bin/../lib/gcc/arm-none-eabi/9.2.1/../../../../arm-none-eabi/lib/thumb/v7e-m+fp/hard\libc_nano.a(lib_a-nano-vfprintf_float.o)
 .data          0x2000007c        0x0 d:/mcha3500_windows_toolchain/toolchain/gcc-arm-none-eabi/bin/../lib/gcc/arm-none-eabi/9.2.1/../../../../arm-none-eabi/lib/thumb/v7e-m+fp/hard\libc_nano.a(lib_a-nano-vfprintf_i.o)
 .data          0x2000007c        0x0 d:/mcha3500_windows_toolchain/toolchain/gcc-arm-none-eabi/bin/../lib/gcc/arm-none-eabi/9.2.1/../../../../arm-none-eabi/lib/thumb/v7e-m+fp/hard\libc_nano.a(lib_a-nano-vfscanf_float.o)
 .data          0x2000007c        0x0 d:/mcha3500_windows_toolchain/toolchain/gcc-arm-none-eabi/bin/../lib/gcc/arm-none-eabi/9.2.1/../../../../arm-none-eabi/lib/thumb/v7e-m+fp/hard\libc_nano.a(lib_a-printf.o)
 .data          0x2000007c        0x0 d:/mcha3500_windows_toolchain/toolchain/gcc-arm-none-eabi/bin/../lib/gcc/arm-none-eabi/9.2.1/../../../../arm-none-eabi/lib/thumb/v7e-m+fp/hard\libc_nano.a(lib_a-reent.o)
 .data          0x2000007c        0x0 d:/mcha3500_windows_toolchain/toolchain/gcc-arm-none-eabi/bin/../lib/gcc/arm-none-eabi/9.2.1/../../../../arm-none-eabi/lib/thumb/v7e-m+fp/hard\libc_nano.a(lib_a-sbrkr.o)
 .data          0x2000007c        0x0 d:/mcha3500_windows_toolchain/toolchain/gcc-arm-none-eabi/bin/../lib/gcc/arm-none-eabi/9.2.1/../../../../arm-none-eabi/lib/thumb/v7e-m+fp/hard\libc_nano.a(lib_a-setvbuf.o)
 .data          0x2000007c        0x0 d:/mcha3500_windows_toolchain/toolchain/gcc-arm-none-eabi/bin/../lib/gcc/arm-none-eabi/9.2.1/../../../../arm-none-eabi/lib/thumb/v7e-m+fp/hard\libc_nano.a(lib_a-sf_nan.o)
 .data          0x2000007c        0x0 d:/mcha3500_windows_toolchain/toolchain/gcc-arm-none-eabi/bin/../lib/gcc/arm-none-eabi/9.2.1/../../../../arm-none-eabi/lib/thumb/v7e-m+fp/hard\libc_nano.a(lib_a-sprintf.o)
 .data          0x2000007c        0x0 d:/mcha3500_windows_toolchain/toolchain/gcc-arm-none-eabi/bin/../lib/gcc/arm-none-eabi/9.2.1/../../../../arm-none-eabi/lib/thumb/v7e-m+fp/hard\libc_nano.a(lib_a-strcmp.o)
 .data          0x2000007c        0x0 d:/mcha3500_windows_toolchain/toolchain/gcc-arm-none-eabi/bin/../lib/gcc/arm-none-eabi/9.2.1/../../../../arm-none-eabi/lib/thumb/v7e-m+fp/hard\libc_nano.a(lib_a-strlen.o)
 .data          0x2000007c        0x0 d:/mcha3500_windows_toolchain/toolchain/gcc-arm-none-eabi/bin/../lib/gcc/arm-none-eabi/9.2.1/../../../../arm-none-eabi/lib/thumb/v7e-m+fp/hard\libc_nano.a(lib_a-strtod.o)
 .data          0x2000007c        0x0 d:/mcha3500_windows_toolchain/toolchain/gcc-arm-none-eabi/bin/../lib/gcc/arm-none-eabi/9.2.1/../../../../arm-none-eabi/lib/thumb/v7e-m+fp/hard\libc_nano.a(lib_a-strtol.o)
 .data          0x2000007c        0x0 d:/mcha3500_windows_toolchain/toolchain/gcc-arm-none-eabi/bin/../lib/gcc/arm-none-eabi/9.2.1/../../../../arm-none-eabi/lib/thumb/v7e-m+fp/hard\libc_nano.a(lib_a-vprintf.o)
 .data          0x2000007c        0x0 d:/mcha3500_windows_toolchain/toolchain/gcc-arm-none-eabi/bin/../lib/gcc/arm-none-eabi/9.2.1/../../../../arm-none-eabi/lib/thumb/v7e-m+fp/hard\libc_nano.a(lib_a-dtoa.o)
 .data          0x2000007c        0x0 d:/mcha3500_windows_toolchain/toolchain/gcc-arm-none-eabi/bin/../lib/gcc/arm-none-eabi/9.2.1/../../../../arm-none-eabi/lib/thumb/v7e-m+fp/hard\libc_nano.a(lib_a-fflush.o)
 .data          0x2000007c        0x0 d:/mcha3500_windows_toolchain/toolchain/gcc-arm-none-eabi/bin/../lib/gcc/arm-none-eabi/9.2.1/../../../../arm-none-eabi/lib/thumb/v7e-m+fp/hard\libc_nano.a(lib_a-findfp.o)
 .data          0x2000007c        0x0 d:/mcha3500_windows_toolchain/toolchain/gcc-arm-none-eabi/bin/../lib/gcc/arm-none-eabi/9.2.1/../../../../arm-none-eabi/lib/thumb/v7e-m+fp/hard\libc_nano.a(lib_a-fprintf.o)
 .data          0x2000007c        0x0 d:/mcha3500_windows_toolchain/toolchain/gcc-arm-none-eabi/bin/../lib/gcc/arm-none-eabi/9.2.1/../../../../arm-none-eabi/lib/thumb/v7e-m+fp/hard\libc_nano.a(lib_a-fwalk.o)
 .data          0x2000007c        0x0 d:/mcha3500_windows_toolchain/toolchain/gcc-arm-none-eabi/bin/../lib/gcc/arm-none-eabi/9.2.1/../../../../arm-none-eabi/lib/thumb/v7e-m+fp/hard\libc_nano.a(lib_a-gdtoa-gethex.o)
 .data          0x2000007c        0x0 d:/mcha3500_windows_toolchain/toolchain/gcc-arm-none-eabi/bin/../lib/gcc/arm-none-eabi/9.2.1/../../../../arm-none-eabi/lib/thumb/v7e-m+fp/hard\libc_nano.a(lib_a-gdtoa-hexnan.o)
 .data          0x2000007c        0x0 d:/mcha3500_windows_toolchain/toolchain/gcc-arm-none-eabi/bin/../lib/gcc/arm-none-eabi/9.2.1/../../../../arm-none-eabi/lib/thumb/v7e-m+fp/hard\libc_nano.a(lib_a-getc.o)
 .data          0x2000007c        0x0 d:/mcha3500_windows_toolchain/toolchain/gcc-arm-none-eabi/bin/../lib/gcc/arm-none-eabi/9.2.1/../../../../arm-none-eabi/lib/thumb/v7e-m+fp/hard\libc_nano.a(lib_a-lnumeric.o)
 .data          0x2000007c        0x0 d:/mcha3500_windows_toolchain/toolchain/gcc-arm-none-eabi/bin/../lib/gcc/arm-none-eabi/9.2.1/../../../../arm-none-eabi/lib/thumb/v7e-m+fp/hard\libc_nano.a(lib_a-locale.o)
 .data          0x2000007c        0x0 d:/mcha3500_windows_toolchain/toolchain/gcc-arm-none-eabi/bin/../lib/gcc/arm-none-eabi/9.2.1/../../../../arm-none-eabi/lib/thumb/v7e-m+fp/hard\libc_nano.a(lib_a-localeconv.o)
 .data          0x2000007c        0x0 d:/mcha3500_windows_toolchain/toolchain/gcc-arm-none-eabi/bin/../lib/gcc/arm-none-eabi/9.2.1/../../../../arm-none-eabi/lib/thumb/v7e-m+fp/hard\libc_nano.a(lib_a-lock.o)
 .data          0x2000007c        0x0 d:/mcha3500_windows_toolchain/toolchain/gcc-arm-none-eabi/bin/../lib/gcc/arm-none-eabi/9.2.1/../../../../arm-none-eabi/lib/thumb/v7e-m+fp/hard\libc_nano.a(lib_a-makebuf.o)
 .data          0x2000007c        0x0 d:/mcha3500_windows_toolchain/toolchain/gcc-arm-none-eabi/bin/../lib/gcc/arm-none-eabi/9.2.1/../../../../arm-none-eabi/lib/thumb/v7e-m+fp/hard\libc_nano.a(lib_a-mbtowc_r.o)
 .data          0x2000007c        0x0 d:/mcha3500_windows_toolchain/toolchain/gcc-arm-none-eabi/bin/../lib/gcc/arm-none-eabi/9.2.1/../../../../arm-none-eabi/lib/thumb/v7e-m+fp/hard\libc_nano.a(lib_a-memchr.o)
 .data          0x2000007c        0x0 d:/mcha3500_windows_toolchain/toolchain/gcc-arm-none-eabi/bin/../lib/gcc/arm-none-eabi/9.2.1/../../../../arm-none-eabi/lib/thumb/v7e-m+fp/hard\libc_nano.a(lib_a-mprec.o)
 .data          0x2000007c        0x0 d:/mcha3500_windows_toolchain/toolchain/gcc-arm-none-eabi/bin/../lib/gcc/arm-none-eabi/9.2.1/../../../../arm-none-eabi/lib/thumb/v7e-m+fp/hard\libc_nano.a(lib_a-nano-callocr.o)
 .data          0x2000007c        0x0 d:/mcha3500_windows_toolchain/toolchain/gcc-arm-none-eabi/bin/../lib/gcc/arm-none-eabi/9.2.1/../../../../arm-none-eabi/lib/thumb/v7e-m+fp/hard\libc_nano.a(lib_a-nano-svfprintf.o)
 .data          0x2000007c        0x0 d:/mcha3500_windows_toolchain/toolchain/gcc-arm-none-eabi/bin/../lib/gcc/arm-none-eabi/9.2.1/../../../../arm-none-eabi/lib/thumb/v7e-m+fp/hard\libc_nano.a(lib_a-nano-vfprintf.o)
 .data          0x2000007c        0x0 d:/mcha3500_windows_toolchain/toolchain/gcc-arm-none-eabi/bin/../lib/gcc/arm-none-eabi/9.2.1/../../../../arm-none-eabi/lib/thumb/v7e-m+fp/hard\libc_nano.a(lib_a-rget.o)
 .data          0x2000007c        0x0 d:/mcha3500_windows_toolchain/toolchain/gcc-arm-none-eabi/bin/../lib/gcc/arm-none-eabi/9.2.1/../../../../arm-none-eabi/lib/thumb/v7e-m+fp/hard\libc_nano.a(lib_a-s_nan.o)
 .data          0x2000007c        0x0 d:/mcha3500_windows_toolchain/toolchain/gcc-arm-none-eabi/bin/../lib/gcc/arm-none-eabi/9.2.1/../../../../arm-none-eabi/lib/thumb/v7e-m+fp/hard\libc_nano.a(lib_a-stdio.o)
 .data          0x2000007c        0x0 d:/mcha3500_windows_toolchain/toolchain/gcc-arm-none-eabi/bin/../lib/gcc/arm-none-eabi/9.2.1/../../../../arm-none-eabi/lib/thumb/v7e-m+fp/hard\libc_nano.a(lib_a-strncmp.o)
 .data          0x2000007c        0x0 d:/mcha3500_windows_toolchain/toolchain/gcc-arm-none-eabi/bin/../lib/gcc/arm-none-eabi/9.2.1/../../../../arm-none-eabi/lib/thumb/v7e-m+fp/hard\libc_nano.a(lib_a-wbuf.o)
 .data          0x2000007c        0x0 d:/mcha3500_windows_toolchain/toolchain/gcc-arm-none-eabi/bin/../lib/gcc/arm-none-eabi/9.2.1/../../../../arm-none-eabi/lib/thumb/v7e-m+fp/hard\libc_nano.a(lib_a-wctomb_r.o)
 .data          0x2000007c        0x0 d:/mcha3500_windows_toolchain/toolchain/gcc-arm-none-eabi/bin/../lib/gcc/arm-none-eabi/9.2.1/../../../../arm-none-eabi/lib/thumb/v7e-m+fp/hard\libc_nano.a(lib_a-writer.o)
 .data          0x2000007c        0x0 d:/mcha3500_windows_toolchain/toolchain/gcc-arm-none-eabi/bin/../lib/gcc/arm-none-eabi/9.2.1/../../../../arm-none-eabi/lib/thumb/v7e-m+fp/hard\libc_nano.a(lib_a-wsetup.o)
 .data          0x2000007c        0x0 d:/mcha3500_windows_toolchain/toolchain/gcc-arm-none-eabi/bin/../lib/gcc/arm-none-eabi/9.2.1/../../../../arm-none-eabi/lib/thumb/v7e-m+fp/hard\libc_nano.a(lib_a-closer.o)
 .data          0x2000007c        0x0 d:/mcha3500_windows_toolchain/toolchain/gcc-arm-none-eabi/bin/../lib/gcc/arm-none-eabi/9.2.1/../../../../arm-none-eabi/lib/thumb/v7e-m+fp/hard\libc_nano.a(lib_a-fstatr.o)
 .data          0x2000007c        0x0 d:/mcha3500_windows_toolchain/toolchain/gcc-arm-none-eabi/bin/../lib/gcc/arm-none-eabi/9.2.1/../../../../arm-none-eabi/lib/thumb/v7e-m+fp/hard\libc_nano.a(lib_a-fvwrite.o)
 .data          0x2000007c        0x0 d:/mcha3500_windows_toolchain/toolchain/gcc-arm-none-eabi/bin/../lib/gcc/arm-none-eabi/9.2.1/../../../../arm-none-eabi/lib/thumb/v7e-m+fp/hard\libc_nano.a(lib_a-isattyr.o)
 .data          0x2000007c        0x0 d:/mcha3500_windows_toolchain/toolchain/gcc-arm-none-eabi/bin/../lib/gcc/arm-none-eabi/9.2.1/../../../../arm-none-eabi/lib/thumb/v7e-m+fp/hard\libc_nano.a(lib_a-lseekr.o)
 .data          0x2000007c        0x0 d:/mcha3500_windows_toolchain/toolchain/gcc-arm-none-eabi/bin/../lib/gcc/arm-none-eabi/9.2.1/../../../../arm-none-eabi/lib/thumb/v7e-m+fp/hard\libc_nano.a(lib_a-memmove.o)
 .data          0x2000007c        0x0 d:/mcha3500_windows_toolchain/toolchain/gcc-arm-none-eabi/bin/../lib/gcc/arm-none-eabi/9.2.1/../../../../arm-none-eabi/lib/thumb/v7e-m+fp/hard\libc_nano.a(lib_a-nano-reallocr.o)
 .data          0x2000007c        0x0 d:/mcha3500_windows_toolchain/toolchain/gcc-arm-none-eabi/bin/../lib/gcc/arm-none-eabi/9.2.1/../../../../arm-none-eabi/lib/thumb/v7e-m+fp/hard\libc_nano.a(lib_a-readr.o)
 .data          0x2000007c        0x0 d:/mcha3500_windows_toolchain/toolchain/gcc-arm-none-eabi/bin/../lib/gcc/arm-none-eabi/9.2.1/../../../../arm-none-eabi/lib/thumb/v7e-m+fp/hard\libc_nano.a(lib_a-refill.o)
 .data          0x2000007c        0x0 d:/mcha3500_windows_toolchain/toolchain/gcc-arm-none-eabi/bin/../lib/gcc/arm-none-eabi/9.2.1/../../../../arm-none-eabi/lib/thumb/v7e-m+fp/hard\libc_nano.a(lib_a-nano-msizer.o)
 .data          0x2000007c        0x0 d:/mcha3500_windows_toolchain/toolchain/gcc-arm-none-eabi/bin/../lib/gcc/arm-none-eabi/9.2.1/thumb/v7e-m+fp/hard\libgcc.a(_arm_muldivdf3.o)
 .data          0x2000007c        0x0 d:/mcha3500_windows_toolchain/toolchain/gcc-arm-none-eabi/bin/../lib/gcc/arm-none-eabi/9.2.1/thumb/v7e-m+fp/hard\libgcc.a(_arm_cmpdf2.o)
 .data          0x2000007c        0x0 d:/mcha3500_windows_toolchain/toolchain/gcc-arm-none-eabi/bin/../lib/gcc/arm-none-eabi/9.2.1/thumb/v7e-m+fp/hard\libgcc.a(_arm_unorddf2.o)
 .data          0x2000007c        0x0 d:/mcha3500_windows_toolchain/toolchain/gcc-arm-none-eabi/bin/../lib/gcc/arm-none-eabi/9.2.1/thumb/v7e-m+fp/hard\libgcc.a(_arm_fixdfsi.o)
 .data          0x2000007c        0x0 d:/mcha3500_windows_toolchain/toolchain/gcc-arm-none-eabi/bin/../lib/gcc/arm-none-eabi/9.2.1/thumb/v7e-m+fp/hard\libgcc.a(_arm_fixunsdfsi.o)
 .data          0x2000007c        0x0 d:/mcha3500_windows_toolchain/toolchain/gcc-arm-none-eabi/bin/../lib/gcc/arm-none-eabi/9.2.1/thumb/v7e-m+fp/hard\libgcc.a(_fixdfdi.o)
 .data          0x2000007c        0x0 d:/mcha3500_windows_toolchain/toolchain/gcc-arm-none-eabi/bin/../lib/gcc/arm-none-eabi/9.2.1/thumb/v7e-m+fp/hard\libgcc.a(_fixunsdfdi.o)
 .data          0x2000007c        0x0 d:/mcha3500_windows_toolchain/toolchain/gcc-arm-none-eabi/bin/../lib/gcc/arm-none-eabi/9.2.1/../../../../arm-none-eabi/lib/thumb/v7e-m+fp/hard\libnosys.a(close.o)
 .data          0x2000007c        0x0 d:/mcha3500_windows_toolchain/toolchain/gcc-arm-none-eabi/bin/../lib/gcc/arm-none-eabi/9.2.1/../../../../arm-none-eabi/lib/thumb/v7e-m+fp/hard\libnosys.a(fstat.o)
 .data          0x2000007c        0x0 d:/mcha3500_windows_toolchain/toolchain/gcc-arm-none-eabi/bin/../lib/gcc/arm-none-eabi/9.2.1/../../../../arm-none-eabi/lib/thumb/v7e-m+fp/hard\libnosys.a(isatty.o)
 .data          0x2000007c        0x0 d:/mcha3500_windows_toolchain/toolchain/gcc-arm-none-eabi/bin/../lib/gcc/arm-none-eabi/9.2.1/../../../../arm-none-eabi/lib/thumb/v7e-m+fp/hard\libnosys.a(lseek.o)
 .data          0x2000007c        0x0 d:/mcha3500_windows_toolchain/toolchain/gcc-arm-none-eabi/bin/../lib/gcc/arm-none-eabi/9.2.1/../../../../arm-none-eabi/lib/thumb/v7e-m+fp/hard\libnosys.a(_exit.o)
 .data          0x2000007c        0x0 d:/mcha3500_windows_toolchain/toolchain/gcc-arm-none-eabi/bin/../lib/gcc/arm-none-eabi/9.2.1/thumb/v7e-m+fp/hard/crtend.o
 .data          0x2000007c        0x0 d:/mcha3500_windows_toolchain/toolchain/gcc-arm-none-eabi/bin/../lib/gcc/arm-none-eabi/9.2.1/thumb/v7e-m+fp/hard/crtn.o
 *(.data*)
 .data._impure_ptr
                0x2000007c        0x4 d:/mcha3500_windows_toolchain/toolchain/gcc-arm-none-eabi/bin/../lib/gcc/arm-none-eabi/9.2.1/../../../../arm-none-eabi/lib/thumb/v7e-m+fp/hard\libc_nano.a(lib_a-impure.o)
                0x2000007c                _impure_ptr
 .data.impure_data
                0x20000080       0x60 d:/mcha3500_windows_toolchain/toolchain/gcc-arm-none-eabi/bin/../lib/gcc/arm-none-eabi/9.2.1/../../../../arm-none-eabi/lib/thumb/v7e-m+fp/hard\libc_nano.a(lib_a-impure.o)
 .data.numempty
                0x200000e0        0x2 d:/mcha3500_windows_toolchain/toolchain/gcc-arm-none-eabi/bin/../lib/gcc/arm-none-eabi/9.2.1/../../../../arm-none-eabi/lib/thumb/v7e-m+fp/hard\libc_nano.a(lib_a-lnumeric.o)
 *fill*         0x200000e2        0x2 
 .data.__global_locale
                0x200000e4      0x16c d:/mcha3500_windows_toolchain/toolchain/gcc-arm-none-eabi/bin/../lib/gcc/arm-none-eabi/9.2.1/../../../../arm-none-eabi/lib/thumb/v7e-m+fp/hard\libc_nano.a(lib_a-locale.o)
                0x200000e4                __global_locale
                0x20000250                . = ALIGN (0x4)
                0x20000250                _edata = .

.igot.plt       0x20000250        0x0 load address 0x080177a8
 .igot.plt      0x20000250        0x0 d:/mcha3500_windows_toolchain/toolchain/gcc-arm-none-eabi/bin/../lib/gcc/arm-none-eabi/9.2.1/thumb/v7e-m+fp/hard/crtbegin.o
                0x20000250                . = ALIGN (0x4)

.bss            0x20000250     0x13e4 load address 0x080177a8
                0x20000250                _sbss = .
                0x20000250                __bss_start__ = _sbss
 *(.bss)
 .bss           0x20000250        0x0 d:/mcha3500_windows_toolchain/toolchain/gcc-arm-none-eabi/bin/../lib/gcc/arm-none-eabi/9.2.1/thumb/v7e-m+fp/hard/crti.o
 .bss           0x20000250       0x1c d:/mcha3500_windows_toolchain/toolchain/gcc-arm-none-eabi/bin/../lib/gcc/arm-none-eabi/9.2.1/thumb/v7e-m+fp/hard/crtbegin.o
 .bss           0x2000026c        0x0 d:/mcha3500_windows_toolchain/toolchain/gcc-arm-none-eabi/bin/../lib/gcc/arm-none-eabi/9.2.1/../../../../arm-none-eabi/lib/thumb/v7e-m+fp/hard/crt0.o
 .bss           0x2000026c        0x0 build/stm32f4xx_it.o
 .bss           0x2000026c        0x0 build/system_stm32f4xx.o
 .bss           0x2000026c        0x0 build/cmd_line_buffer.o
 .bss           0x2000026c        0x0 build/cmd_parser.o
 .bss           0x2000026c       0x51 build/cmd_task.o
 .bss           0x200002bd        0x0 build/main.o
 *fill*         0x200002bd        0x3 
 .bss           0x200002c0       0x12 build/uart.o
 *fill*         0x200002d2        0x2 
 .bss           0x200002d4        0x9 build/heartbeat_task.o
 .bss           0x200002dd        0x0 build/heartbeat_cmd.o
 *fill*         0x200002dd        0x3 
 .bss           0x200002e0        0x9 build/dummy_task.o
 .bss           0x200002e9        0x0 build/pendulum.o
 *fill*         0x200002e9        0x3 
 .bss           0x200002ec        0x4 build/motor.o
                0x200002ec                enc_count
 .bss           0x200002f0        0x2 build/data_logging.o
                0x200002f0                logCount
 .bss           0x200002f2        0x0 build/startup_stm32f446xx.o
 .bss           0x200002f2        0x0 build/stm32f4_HAL/stm32f4xx_hal.o
 .bss           0x200002f2        0x0 build/stm32f4_HAL/stm32f4xx_hal_dma.o
 .bss           0x200002f2        0x0 build/stm32f4_HAL/stm32f4xx_hal_adc.o
 .bss           0x200002f2        0x0 build/stm32f4_HAL/stm32f4xx_hal_adc_ex.o
 .bss           0x200002f2        0x0 build/stm32f4_HAL/stm32f4xx_hal_gpio.o
 .bss           0x200002f2        0x0 build/stm32f4_HAL/stm32f4xx_ll_gpio.o
 .bss           0x200002f2        0x0 build/stm32f4_HAL/stm32f4xx_ll_usart.o
 .bss           0x200002f2        0x0 build/stm32f4_HAL/stm32f4xx_ll_dma.o
 .bss           0x200002f2        0x0 build/stm32f4_HAL/stm32f4xx_ll_rcc.o
 .bss           0x200002f2        0x0 build/stm32f4_HAL/stm32f4xx_hal_i2c.o
 .bss           0x200002f2        0x0 build/stm32f4_HAL/stm32f4xx_hal_i2c_ex.o
 .bss           0x200002f2        0x0 build/stm32f4_HAL/stm32f4xx_hal_tim.o
 .bss           0x200002f2        0x0 build/stm32f4_HAL/stm32f4xx_hal_tim_ex.o
 .bss           0x200002f2        0x0 build/stm32f4_HAL/stm32f4xx_hal_rtc.o
 .bss           0x200002f2        0x0 build/stm32f4_HAL/stm32f4xx_hal_rcc.o
 .bss           0x200002f2        0x0 build/stm32f4_HAL/stm32f4xx_hal_rcc_ex.o
 .bss           0x200002f2        0x0 build/stm32f4_HAL/stm32f4xx_hal_pwr.o
 .bss           0x200002f2        0x0 build/stm32f4_HAL/stm32f4xx_hal_pwr_ex.o
 .bss           0x200002f2        0x0 build/stm32f4_HAL/stm32f4xx_hal_cortex.o
 .bss           0x200002f2        0x0 build/stm32f4_HAL/stm32f4xx_hal_spi.o
 .bss           0x200002f2        0x0 build/stm32f4_HAL/stm32f4xx_hal_dac.o
 .bss           0x200002f2        0x0 build/stm32f4_HAL/stm32f4xx_hal_dac_ex.o
 .bss           0x200002f2        0x0 build/stm32f4_HAL/stm32f4xx_hal_can.o
 .bss           0x200002f2        0x0 build/FreeRTOS/croutine.o
 .bss           0x200002f2        0x0 build/FreeRTOS/event_groups.o
 .bss           0x200002f2        0x0 build/FreeRTOS/list.o
 .bss           0x200002f2        0x0 build/FreeRTOS/queue.o
 *fill*         0x200002f2        0x2 
 .bss           0x200002f4      0x4fc build/FreeRTOS/tasks.o
                0x200002f8                pxCurrentTCB
 .bss           0x200007f0       0xdc build/FreeRTOS/timers.o
 .bss           0x200008cc        0x0 build/FreeRTOS/stream_buffer.o
 *fill*         0x200008cc        0x4 
 .bss           0x200008d0      0xc58 build/FreeRTOS/cmsis_os2.o
 .bss           0x20001528        0x0 build/FreeRTOS/clib_arm.o
 .bss           0x20001528        0x1 build/FreeRTOS/os_systick.o
 *fill*         0x20001529        0x3 
 .bss           0x2000152c        0x4 build/FreeRTOS/heap_useNewlib.o
 .bss           0x20001530        0x0 build/FreeRTOS/port.o
 .bss           0x20001530        0x0 d:/mcha3500_windows_toolchain/toolchain/gcc-arm-none-eabi/bin/../lib/gcc/arm-none-eabi/9.2.1/thumb/v7e-m+fp/hard\libgcc.a(_arm_muldf3.o)
 .bss           0x20001530        0x0 d:/mcha3500_windows_toolchain/toolchain/gcc-arm-none-eabi/bin/../lib/gcc/arm-none-eabi/9.2.1/thumb/v7e-m+fp/hard\libgcc.a(_arm_addsubdf3.o)
 .bss           0x20001530        0x0 d:/mcha3500_windows_toolchain/toolchain/gcc-arm-none-eabi/bin/../lib/gcc/arm-none-eabi/9.2.1/thumb/v7e-m+fp/hard\libgcc.a(_arm_truncdfsf2.o)
 .bss           0x20001530        0x0 d:/mcha3500_windows_toolchain/toolchain/gcc-arm-none-eabi/bin/../lib/gcc/arm-none-eabi/9.2.1/thumb/v7e-m+fp/hard\libgcc.a(_aeabi_ldivmod.o)
 .bss           0x20001530        0x0 d:/mcha3500_windows_toolchain/toolchain/gcc-arm-none-eabi/bin/../lib/gcc/arm-none-eabi/9.2.1/thumb/v7e-m+fp/hard\libgcc.a(_aeabi_uldivmod.o)
 .bss           0x20001530        0x0 d:/mcha3500_windows_toolchain/toolchain/gcc-arm-none-eabi/bin/../lib/gcc/arm-none-eabi/9.2.1/thumb/v7e-m+fp/hard\libgcc.a(_udivmoddi4.o)
 .bss           0x20001530        0x0 d:/mcha3500_windows_toolchain/toolchain/gcc-arm-none-eabi/bin/../lib/gcc/arm-none-eabi/9.2.1/thumb/v7e-m+fp/hard\libgcc.a(_dvmd_tls.o)
 .bss           0x20001530        0x0 d:/mcha3500_windows_toolchain/toolchain/gcc-arm-none-eabi/bin/../lib/gcc/arm-none-eabi/9.2.1/../../../../arm-none-eabi/lib/thumb/v7e-m+fp/hard\libc_nano.a(lib_a-ctype_.o)
 .bss           0x20001530        0x0 d:/mcha3500_windows_toolchain/toolchain/gcc-arm-none-eabi/bin/../lib/gcc/arm-none-eabi/9.2.1/../../../../arm-none-eabi/lib/thumb/v7e-m+fp/hard\libc_nano.a(lib_a-exit.o)
 .bss           0x20001530        0x0 d:/mcha3500_windows_toolchain/toolchain/gcc-arm-none-eabi/bin/../lib/gcc/arm-none-eabi/9.2.1/../../../../arm-none-eabi/lib/thumb/v7e-m+fp/hard\libc_nano.a(lib_a-getchar.o)
 .bss           0x20001530        0x0 d:/mcha3500_windows_toolchain/toolchain/gcc-arm-none-eabi/bin/../lib/gcc/arm-none-eabi/9.2.1/../../../../arm-none-eabi/lib/thumb/v7e-m+fp/hard\libc_nano.a(lib_a-impure.o)
 .bss           0x20001530        0x0 d:/mcha3500_windows_toolchain/toolchain/gcc-arm-none-eabi/bin/../lib/gcc/arm-none-eabi/9.2.1/../../../../arm-none-eabi/lib/thumb/v7e-m+fp/hard\libc_nano.a(lib_a-init.o)
 .bss           0x20001530        0x0 d:/mcha3500_windows_toolchain/toolchain/gcc-arm-none-eabi/bin/../lib/gcc/arm-none-eabi/9.2.1/../../../../arm-none-eabi/lib/thumb/v7e-m+fp/hard\libc_nano.a(lib_a-malloc.o)
 .bss           0x20001530        0x0 d:/mcha3500_windows_toolchain/toolchain/gcc-arm-none-eabi/bin/../lib/gcc/arm-none-eabi/9.2.1/../../../../arm-none-eabi/lib/thumb/v7e-m+fp/hard\libc_nano.a(lib_a-memcpy-stub.o)
 .bss           0x20001530        0x0 d:/mcha3500_windows_toolchain/toolchain/gcc-arm-none-eabi/bin/../lib/gcc/arm-none-eabi/9.2.1/../../../../arm-none-eabi/lib/thumb/v7e-m+fp/hard\libc_nano.a(lib_a-memset.o)
 .bss           0x20001530        0x0 d:/mcha3500_windows_toolchain/toolchain/gcc-arm-none-eabi/bin/../lib/gcc/arm-none-eabi/9.2.1/../../../../arm-none-eabi/lib/thumb/v7e-m+fp/hard\libc_nano.a(lib_a-mstats.o)
 .bss           0x20001530        0x0 d:/mcha3500_windows_toolchain/toolchain/gcc-arm-none-eabi/bin/../lib/gcc/arm-none-eabi/9.2.1/../../../../arm-none-eabi/lib/thumb/v7e-m+fp/hard\libc_nano.a(lib_a-nano-freer.o)
 .bss           0x20001530        0x0 d:/mcha3500_windows_toolchain/toolchain/gcc-arm-none-eabi/bin/../lib/gcc/arm-none-eabi/9.2.1/../../../../arm-none-eabi/lib/thumb/v7e-m+fp/hard\libc_nano.a(lib_a-nano-mallinfor.o)
 .bss           0x20001530        0x0 d:/mcha3500_windows_toolchain/toolchain/gcc-arm-none-eabi/bin/../lib/gcc/arm-none-eabi/9.2.1/../../../../arm-none-eabi/lib/thumb/v7e-m+fp/hard\libc_nano.a(lib_a-nano-mallocr.o)
 .bss           0x20001530        0x0 d:/mcha3500_windows_toolchain/toolchain/gcc-arm-none-eabi/bin/../lib/gcc/arm-none-eabi/9.2.1/../../../../arm-none-eabi/lib/thumb/v7e-m+fp/hard\libc_nano.a(lib_a-nano-malloptr.o)
 .bss           0x20001530        0x0 d:/mcha3500_windows_toolchain/toolchain/gcc-arm-none-eabi/bin/../lib/gcc/arm-none-eabi/9.2.1/../../../../arm-none-eabi/lib/thumb/v7e-m+fp/hard\libc_nano.a(lib_a-nano-mallstatsr.o)
 .bss           0x20001530        0x0 d:/mcha3500_windows_toolchain/toolchain/gcc-arm-none-eabi/bin/../lib/gcc/arm-none-eabi/9.2.1/../../../../arm-none-eabi/lib/thumb/v7e-m+fp/hard\libc_nano.a(lib_a-nano-vfprintf_float.o)
 .bss           0x20001530        0x0 d:/mcha3500_windows_toolchain/toolchain/gcc-arm-none-eabi/bin/../lib/gcc/arm-none-eabi/9.2.1/../../../../arm-none-eabi/lib/thumb/v7e-m+fp/hard\libc_nano.a(lib_a-nano-vfprintf_i.o)
 .bss           0x20001530        0x0 d:/mcha3500_windows_toolchain/toolchain/gcc-arm-none-eabi/bin/../lib/gcc/arm-none-eabi/9.2.1/../../../../arm-none-eabi/lib/thumb/v7e-m+fp/hard\libc_nano.a(lib_a-nano-vfscanf_float.o)
